{
	"data": {
		"bytecode": {
			"linkReferences": {},
			"object": "60a0604052600080546001600160a01b031990811673d9145cce52d386f254917e481eb44e9943f391381790915560018054909116735b38da6a701c568545dcfcb03fcb875f56beddc4179055600560805234801561005d57600080fd5b506080516119c3610087600039600081816101d1015281816103c80152610a1601526119c36000f3fe6080604052600436106100fe5760003560e01c806395f8c33d11610095578063bf79b87311610064578063bf79b873146102b0578063c4fc3b2e146102c3578063cde0acc2146102ec578063debd24bd146102ff578063f5c0753c1461031f57600080fd5b806395f8c33d146102265780639d76ea58146102465780639fda96db1461027e578063a4f67b8b1461029057600080fd5b806350ace9c2116100d157806350ace9c21461019f5780635a8bd215146101bf5780636c23f9c8146101f3578063924806a01461021357600080fd5b80631a39d8ef146101035780631d637f421461012c5780634195ab8e146101595780634fd5e96d14610188575b600080fd5b34801561010f57600080fd5b5061011960055481565b6040519081526020015b60405180910390f35b34801561013857600080fd5b50610119610147366004611264565b600e6020526000908152604090205481565b34801561016557600080fd5b50610179610174366004611286565b61033f565b604051610123939291906112c6565b34801561019457600080fd5b5061019d610385565b005b3480156101ab57600080fd5b5061019d6101ba3660046112ee565b61045a565b3480156101cb57600080fd5b506101197f000000000000000000000000000000000000000000000000000000000000000081565b3480156101ff57600080fd5b5061011961020e36600461131a565b610570565b61019d610221366004611264565b6105ae565b34801561023257600080fd5b5061019d61024136600461131a565b610907565b34801561025257600080fd5b50600054610266906001600160a01b031681565b6040516001600160a01b039091168152602001610123565b61019d61028c3660046112ee565b5050565b34801561029c57600080fd5b506102666102ab36600461131a565b610983565b61019d6102be366004611362565b6109ad565b3480156102cf57600080fd5b506102d8610b6d565b604051610123989796959493929190611479565b61019d6102fa3660046114d5565b610c2f565b34801561030b57600080fd5b5061026661031a366004611501565b610fea565b34801561032b57600080fd5b50600154610266906001600160a01b031681565b6002602052816000526040600020818154811061035b57600080fd5b600091825260209091206003909102018054600182015460029092015460ff909116935090915083565b60006040516103939061115b565b604051809103906000f0801580156103af573d6000803e3d6000fd5b5090506000806000836001600160a01b031663c6cb14017f00000000000000000000000000000000000000000000000000000000000000006040518263ffffffff1660e01b815260040161040591815260200190565b6060604051808303816000875af1158015610424573d6000803e3d6000fd5b505050506040513d601f19601f820116820180604052508101906104489190611523565b600b92909255600c55600d5550505050565b604051636eb1769f60e11b8152336004820152306024820152819083906001600160a01b0383169063dd62ed3e90604401602060405180830381865afa1580156104a8573d6000803e3d6000fd5b505050506040513d601f19601f820116820180604052508101906104cc9190611551565b10156104f35760405162461bcd60e51b81526004016104ea9061156a565b60405180910390fd5b6040516323b872dd60e01b8152336004820152306024820152604481018490526001600160a01b038216906323b872dd906064016020604051808303816000875af1158015610546573d6000803e3d6000fd5b505050506040513d601f19601f8201168201806040525081019061056a91906115af565b50505050565b600b54600090820361058457506001919050565b600c54820361059557506002919050565b600d5482036105a657506003919050565b506000919050565b600080546001600160a01b038381168352600260209081526040808520805482518185028101850190935280835293909416949390929091849084015b8282101561065e576000848152602090206040805160608101909152600384029091018054829060ff166002811115610626576106266112b0565b6002811115610637576106376112b0565b815260200160018201548152602001600282015481525050815260200190600101906105eb565b50505050905060008060005b8351811015610781576000848281518110610687576106876115cc565b6020026020010151905061069e8160400151610570565b92506000815160028111156106b5576106b56112b0565b1480156106c25750826001145b156106e45760208101516106d79060066115f8565b6106e19085611615565b93505b6001815160028111156106f9576106f96112b0565b148015610707575060028311155b1561072957602081015161071c9060046115f8565b6107269085611615565b93505b60028151600281111561073e5761073e6112b0565b14801561074c575060038311155b1561076e5760208101516107619060026115f8565b61076b9085611615565b93505b508061077981611628565b91505061066a565b506001546040516323b872dd60e01b81526001600160a01b039182166004820152868216602482015260448101849052908516906323b872dd906064016020604051808303816000875af11580156107dd573d6000803e3d6000fd5b505050506040513d601f19601f8201168201806040525081019061080191906115af565b50604080518082019091526009815268029b2b73232b9101d160bd1b602082015260015461083891906001600160a01b0316611022565b61086a6040518060400160405280601081526020016f02932b1b2b4bb32b9103a3434b9901d160851b81525086611022565b604080518082018252600b81526a42616c616e63653a20257360a81b602082015290516370a0823160e01b81526001600160a01b0387811660048301526109009291908716906370a08231906024015b602060405180830381865afa1580156108d7573d6000803e3d6000fd5b505050506040513d601f19601f820116820180604052508101906108fb9190611551565b611067565b5050505050565b60005460405163095ea7b360e01b8152306004820152602481018390526001600160a01b0390911690819063095ea7b3906044016020604051808303816000875af115801561095a573d6000803e3d6000fd5b505050506040513d601f19601f8201168201806040525081019061097e91906115af565b505050565b6004818154811061099357600080fd5b6000918252602090912001546001600160a01b0316905081565b60005b600454811015610a105760026000600483815481106109d1576109d16115cc565b60009182526020808320909101546001600160a01b0316835282019290925260400181206109fe91611168565b80610a0881611628565b9150506109b0565b5060005b7f0000000000000000000000000000000000000000000000000000000000000000811015610a65576000818152600360205260408120610a5391611189565b80610a5d81611628565b915050610a14565b506040805160008152602081019182905251610a83916004916111a7565b5060006005819055604080516101008101825286815260208101929092528101610aaf42610258611615565b815260016020820181905260408201526000606082018190526080820181905260a09091015280516006908190610ae690826116c1565b50602082015160018083018054909160ff19909116908381811115610b0d57610b0d6112b0565b021790555060408201516002820155606082015160038201556080820151600482015560a0820151600582015560c0820151600682015560e09091015160079091015582151560010361056a5750506007805460ff191660011790555050565b600680548190610b7c90611641565b80601f0160208091040260200160405190810160405280929190818152602001828054610ba890611641565b8015610bf55780601f10610bca57610100808354040283529160200191610bf5565b820191906000526020600020905b815481529060010190602001808311610bd857829003601f168201915b50505050600183015460028401546003850154600486015460058701546006880154600790980154969760ff909516969395509193909288565b60005460408051808201909152600f81526e2132b337b932903a3930b739b332b960891b60208201526001600160a01b0390911690610c6d906110ac565b604051636eb1769f60e11b815233600482015230602482015284906001600160a01b0383169063dd62ed3e90604401602060405180830381865afa158015610cb9573d6000803e3d6000fd5b505050506040513d601f19601f82011682018060405250810190610cdd9190611551565b1015610cfb5760405162461bcd60e51b81526004016104ea9061156a565b610d2a6040518060400160405280600e81526020016d14995c5d5a5c99481c185cdcd95960921b8152506110ac565b6001546040516323b872dd60e01b81523360048201526001600160a01b03918216602482015260448101869052908216906323b872dd906064016020604051808303816000875af1158015610d83573d6000803e3d6000fd5b505050506040513d601f19601f82011682018060405250810190610da791906115af565b50610dd76040518060400160405280600e81526020016d20b33a32b9103a3930b739b332b960911b8152506110ac565b610de0336110f2565b60026001839003610df357506000610dff565b82600203610dff575060015b60006040518060600160405280836002811115610e1e57610e1e6112b0565b8152602080820189905260409182018890523360009081526002808352928120805460018181018355918352929091208451600390930201805494955085949093849260ff1990921691908490811115610e7a57610e7a6112b0565b0217905550602082015181600101556040820151816002015550508560056000828254610ea79190611615565b909155505060048054600180820183557f8a35acfbc15ff81a39ae7d344fd709f28e8600b4aa8c65c6b64bfe7fe36bd19b9091018054336001600160a01b0319918216811790925560008981526003602090815260408083208054808801825590845292829020909201805490931690931790915580518082018252601b81527f42616c616e63652061646472657373206d794f776e65723a202573000000000092810192909252915491516370a0823160e01b81526001600160a01b0392831693810193909352610f869290918616906370a08231906024016108ba565b604080518082018252601681527542616c616e6365206d73672073656e6465723a20257360501b602082015290516370a0823160e01b8152336004820152610fe291906001600160a01b038616906370a08231906024016108ba565b505050505050565b6003602052816000526040600020818154811061100657600080fd5b6000918252602090912001546001600160a01b03169150829050565b61028c8282604051602401611038929190611781565b60408051601f198184030181529190526020810180516001600160e01b031663319af33360e01b179052611136565b61028c828260405160240161107d9291906117ab565b60408051601f198184030181529190526020810180516001600160e01b0316632d839cb360e21b179052611136565b6110ef816040516024016110c091906117cd565b60408051601f198184030181529190526020810180516001600160e01b031663104c13eb60e21b179052611136565b50565b6040516001600160a01b03821660248201526110ef9060440160408051601f198184030181529190526020810180516001600160e01b031663161765e160e11b1790525b6110ef8160006a636f6e736f6c652e6c6f679050600080835160208501845afa505050565b6101ad806117e183390190565b50805460008255600302906000526020600020908101906110ef919061120c565b50805460008255906000526020600020908101906110ef9190611233565b8280548282559060005260206000209081019282156111fc579160200282015b828111156111fc57825182546001600160a01b0319166001600160a01b039091161782556020909201916001909101906111c7565b50611208929150611233565b5090565b5b8082111561120857805460ff19168155600060018201819055600282015560030161120d565b5b808211156112085760008155600101611234565b80356001600160a01b038116811461125f57600080fd5b919050565b60006020828403121561127657600080fd5b61127f82611248565b9392505050565b6000806040838503121561129957600080fd5b6112a283611248565b946020939093013593505050565b634e487b7160e01b600052602160045260246000fd5b60608101600385106112da576112da6112b0565b938152602081019290925260409091015290565b6000806040838503121561130157600080fd5b8235915061131160208401611248565b90509250929050565b60006020828403121561132c57600080fd5b5035919050565b634e487b7160e01b600052604160045260246000fd5b80151581146110ef57600080fd5b803561125f81611349565b6000806000806080858703121561137857600080fd5b843567ffffffffffffffff8082111561139057600080fd5b818701915087601f8301126113a457600080fd5b8135818111156113b6576113b6611333565b604051601f8201601f19908116603f011681019083821181831017156113de576113de611333565b816040528281528a60208487010111156113f757600080fd5b82602086016020830137600060208483010152809850505050505061141e60208601611357565b93969395505050506040820135916060013590565b6000815180845260005b818110156114595760208185018101518683018201520161143d565b506000602082860101526020601f19601f83011685010191505092915050565b600061010080835261148d8184018c611433565b915050600289106114a0576114a06112b0565b602082019890985260408101969096526060860194909452608085019290925260a084015260c083015260e090910152919050565b6000806000606084860312156114ea57600080fd5b505081359360208301359350604090920135919050565b6000806040838503121561151457600080fd5b50508035926020909101359150565b60008060006060848603121561153857600080fd5b8351925060208401519150604084015190509250925092565b60006020828403121561156357600080fd5b5051919050565b60208082526025908201527f796f75206861766520746f20617070726f766520636f6e74726f6c206f6620746040820152646f6b656e7360d81b606082015260800190565b6000602082840312156115c157600080fd5b815161127f81611349565b634e487b7160e01b600052603260045260246000fd5b634e487b7160e01b600052601160045260246000fd5b808202811582820484141761160f5761160f6115e2565b92915050565b8082018082111561160f5761160f6115e2565b60006001820161163a5761163a6115e2565b5060010190565b600181811c9082168061165557607f821691505b60208210810361167557634e487b7160e01b600052602260045260246000fd5b50919050565b601f82111561097e57600081815260208120601f850160051c810160208610156116a25750805b601f850160051c820191505b81811015610fe2578281556001016116ae565b815167ffffffffffffffff8111156116db576116db611333565b6116ef816116e98454611641565b8461167b565b602080601f831160018114611724576000841561170c5750858301515b600019600386901b1c1916600185901b178555610fe2565b600085815260208120601f198616915b8281101561175357888601518255948401946001909101908401611734565b50858210156117715787850151600019600388901b60f8161c191681555b5050505050600190811b01905550565b6040815260006117946040830185611433565b905060018060a01b03831660208301529392505050565b6040815260006117be6040830185611433565b90508260208301529392505050565b60208152600061127f602083018461143356fe60806040526000805534801561001457600080fd5b50610189806100246000396000f3fe608060405234801561001057600080fd5b506004361061002b5760003560e01c8063c6cb140114610030575b600080fd5b61004361003e3660046100f1565b610062565b6040805193845260208401929092529082015260600160405180910390f35b60008060008061007185610080565b95600295506003945092505050565b60008054818061008f8361010a565b9091555050600054604080514260208201526bffffffffffffffffffffffff193360601b1691810191909152605481019190915282906074016040516020818303038152906040528051906020012060001c6100eb9190610131565b92915050565b60006020828403121561010357600080fd5b5035919050565b60006001820161012a57634e487b7160e01b600052601160045260246000fd5b5060010190565b60008261014e57634e487b7160e01b600052601260045260246000fd5b50069056fea264697066735822122079c7874a8f229d6fac58e9b4602f20e8b3b581189ce1b500c83ab10e8cf7713564736f6c63430008120033a264697066735822122095c38cf418883e50c77a8abca745d8a55e19cbddf583edd3f500080b7c0b3a8964736f6c63430008120033",
			"opcodes": "PUSH1 0xA0 PUSH1 0x40 MSTORE PUSH1 0x0 DUP1 SLOAD PUSH1 0x1 PUSH1 0x1 PUSH1 0xA0 SHL SUB NOT SWAP1 DUP2 AND PUSH20 0xD9145CCE52D386F254917E481EB44E9943F39138 OR SWAP1 SWAP2 SSTORE PUSH1 0x1 DUP1 SLOAD SWAP1 SWAP2 AND PUSH20 0x5B38DA6A701C568545DCFCB03FCB875F56BEDDC4 OR SWAP1 SSTORE PUSH1 0x5 PUSH1 0x80 MSTORE CALLVALUE DUP1 ISZERO PUSH2 0x5D JUMPI PUSH1 0x0 DUP1 REVERT JUMPDEST POP PUSH1 0x80 MLOAD PUSH2 0x19C3 PUSH2 0x87 PUSH1 0x0 CODECOPY PUSH1 0x0 DUP2 DUP2 PUSH2 0x1D1 ADD MSTORE DUP2 DUP2 PUSH2 0x3C8 ADD MSTORE PUSH2 0xA16 ADD MSTORE PUSH2 0x19C3 PUSH1 0x0 RETURN INVALID PUSH1 0x80 PUSH1 0x40 MSTORE PUSH1 0x4 CALLDATASIZE LT PUSH2 0xFE JUMPI PUSH1 0x0 CALLDATALOAD PUSH1 0xE0 SHR DUP1 PUSH4 0x95F8C33D GT PUSH2 0x95 JUMPI DUP1 PUSH4 0xBF79B873 GT PUSH2 0x64 JUMPI DUP1 PUSH4 0xBF79B873 EQ PUSH2 0x2B0 JUMPI DUP1 PUSH4 0xC4FC3B2E EQ PUSH2 0x2C3 JUMPI DUP1 PUSH4 0xCDE0ACC2 EQ PUSH2 0x2EC JUMPI DUP1 PUSH4 0xDEBD24BD EQ PUSH2 0x2FF JUMPI DUP1 PUSH4 0xF5C0753C EQ PUSH2 0x31F JUMPI PUSH1 0x0 DUP1 REVERT JUMPDEST DUP1 PUSH4 0x95F8C33D EQ PUSH2 0x226 JUMPI DUP1 PUSH4 0x9D76EA58 EQ PUSH2 0x246 JUMPI DUP1 PUSH4 0x9FDA96DB EQ PUSH2 0x27E JUMPI DUP1 PUSH4 0xA4F67B8B EQ PUSH2 0x290 JUMPI PUSH1 0x0 DUP1 REVERT JUMPDEST DUP1 PUSH4 0x50ACE9C2 GT PUSH2 0xD1 JUMPI DUP1 PUSH4 0x50ACE9C2 EQ PUSH2 0x19F JUMPI DUP1 PUSH4 0x5A8BD215 EQ PUSH2 0x1BF JUMPI DUP1 PUSH4 0x6C23F9C8 EQ PUSH2 0x1F3 JUMPI DUP1 PUSH4 0x924806A0 EQ PUSH2 0x213 JUMPI PUSH1 0x0 DUP1 REVERT JUMPDEST DUP1 PUSH4 0x1A39D8EF EQ PUSH2 0x103 JUMPI DUP1 PUSH4 0x1D637F42 EQ PUSH2 0x12C JUMPI DUP1 PUSH4 0x4195AB8E EQ PUSH2 0x159 JUMPI DUP1 PUSH4 0x4FD5E96D EQ PUSH2 0x188 JUMPI JUMPDEST PUSH1 0x0 DUP1 REVERT JUMPDEST CALLVALUE DUP1 ISZERO PUSH2 0x10F JUMPI PUSH1 0x0 DUP1 REVERT JUMPDEST POP PUSH2 0x119 PUSH1 0x5 SLOAD DUP2 JUMP JUMPDEST PUSH1 0x40 MLOAD SWAP1 DUP2 MSTORE PUSH1 0x20 ADD JUMPDEST PUSH1 0x40 MLOAD DUP1 SWAP2 SUB SWAP1 RETURN JUMPDEST CALLVALUE DUP1 ISZERO PUSH2 0x138 JUMPI PUSH1 0x0 DUP1 REVERT JUMPDEST POP PUSH2 0x119 PUSH2 0x147 CALLDATASIZE PUSH1 0x4 PUSH2 0x1264 JUMP JUMPDEST PUSH1 0xE PUSH1 0x20 MSTORE PUSH1 0x0 SWAP1 DUP2 MSTORE PUSH1 0x40 SWAP1 KECCAK256 SLOAD DUP2 JUMP JUMPDEST CALLVALUE DUP1 ISZERO PUSH2 0x165 JUMPI PUSH1 0x0 DUP1 REVERT JUMPDEST POP PUSH2 0x179 PUSH2 0x174 CALLDATASIZE PUSH1 0x4 PUSH2 0x1286 JUMP JUMPDEST PUSH2 0x33F JUMP JUMPDEST PUSH1 0x40 MLOAD PUSH2 0x123 SWAP4 SWAP3 SWAP2 SWAP1 PUSH2 0x12C6 JUMP JUMPDEST CALLVALUE DUP1 ISZERO PUSH2 0x194 JUMPI PUSH1 0x0 DUP1 REVERT JUMPDEST POP PUSH2 0x19D PUSH2 0x385 JUMP JUMPDEST STOP JUMPDEST CALLVALUE DUP1 ISZERO PUSH2 0x1AB JUMPI PUSH1 0x0 DUP1 REVERT JUMPDEST POP PUSH2 0x19D PUSH2 0x1BA CALLDATASIZE PUSH1 0x4 PUSH2 0x12EE JUMP JUMPDEST PUSH2 0x45A JUMP JUMPDEST CALLVALUE DUP1 ISZERO PUSH2 0x1CB JUMPI PUSH1 0x0 DUP1 REVERT JUMPDEST POP PUSH2 0x119 PUSH32 0x0 DUP2 JUMP JUMPDEST CALLVALUE DUP1 ISZERO PUSH2 0x1FF JUMPI PUSH1 0x0 DUP1 REVERT JUMPDEST POP PUSH2 0x119 PUSH2 0x20E CALLDATASIZE PUSH1 0x4 PUSH2 0x131A JUMP JUMPDEST PUSH2 0x570 JUMP JUMPDEST PUSH2 0x19D PUSH2 0x221 CALLDATASIZE PUSH1 0x4 PUSH2 0x1264 JUMP JUMPDEST PUSH2 0x5AE JUMP JUMPDEST CALLVALUE DUP1 ISZERO PUSH2 0x232 JUMPI PUSH1 0x0 DUP1 REVERT JUMPDEST POP PUSH2 0x19D PUSH2 0x241 CALLDATASIZE PUSH1 0x4 PUSH2 0x131A JUMP JUMPDEST PUSH2 0x907 JUMP JUMPDEST CALLVALUE DUP1 ISZERO PUSH2 0x252 JUMPI PUSH1 0x0 DUP1 REVERT JUMPDEST POP PUSH1 0x0 SLOAD PUSH2 0x266 SWAP1 PUSH1 0x1 PUSH1 0x1 PUSH1 0xA0 SHL SUB AND DUP2 JUMP JUMPDEST PUSH1 0x40 MLOAD PUSH1 0x1 PUSH1 0x1 PUSH1 0xA0 SHL SUB SWAP1 SWAP2 AND DUP2 MSTORE PUSH1 0x20 ADD PUSH2 0x123 JUMP JUMPDEST PUSH2 0x19D PUSH2 0x28C CALLDATASIZE PUSH1 0x4 PUSH2 0x12EE JUMP JUMPDEST POP POP JUMP JUMPDEST CALLVALUE DUP1 ISZERO PUSH2 0x29C JUMPI PUSH1 0x0 DUP1 REVERT JUMPDEST POP PUSH2 0x266 PUSH2 0x2AB CALLDATASIZE PUSH1 0x4 PUSH2 0x131A JUMP JUMPDEST PUSH2 0x983 JUMP JUMPDEST PUSH2 0x19D PUSH2 0x2BE CALLDATASIZE PUSH1 0x4 PUSH2 0x1362 JUMP JUMPDEST PUSH2 0x9AD JUMP JUMPDEST CALLVALUE DUP1 ISZERO PUSH2 0x2CF JUMPI PUSH1 0x0 DUP1 REVERT JUMPDEST POP PUSH2 0x2D8 PUSH2 0xB6D JUMP JUMPDEST PUSH1 0x40 MLOAD PUSH2 0x123 SWAP9 SWAP8 SWAP7 SWAP6 SWAP5 SWAP4 SWAP3 SWAP2 SWAP1 PUSH2 0x1479 JUMP JUMPDEST PUSH2 0x19D PUSH2 0x2FA CALLDATASIZE PUSH1 0x4 PUSH2 0x14D5 JUMP JUMPDEST PUSH2 0xC2F JUMP JUMPDEST CALLVALUE DUP1 ISZERO PUSH2 0x30B JUMPI PUSH1 0x0 DUP1 REVERT JUMPDEST POP PUSH2 0x266 PUSH2 0x31A CALLDATASIZE PUSH1 0x4 PUSH2 0x1501 JUMP JUMPDEST PUSH2 0xFEA JUMP JUMPDEST CALLVALUE DUP1 ISZERO PUSH2 0x32B JUMPI PUSH1 0x0 DUP1 REVERT JUMPDEST POP PUSH1 0x1 SLOAD PUSH2 0x266 SWAP1 PUSH1 0x1 PUSH1 0x1 PUSH1 0xA0 SHL SUB AND DUP2 JUMP JUMPDEST PUSH1 0x2 PUSH1 0x20 MSTORE DUP2 PUSH1 0x0 MSTORE PUSH1 0x40 PUSH1 0x0 KECCAK256 DUP2 DUP2 SLOAD DUP2 LT PUSH2 0x35B JUMPI PUSH1 0x0 DUP1 REVERT JUMPDEST PUSH1 0x0 SWAP2 DUP3 MSTORE PUSH1 0x20 SWAP1 SWAP2 KECCAK256 PUSH1 0x3 SWAP1 SWAP2 MUL ADD DUP1 SLOAD PUSH1 0x1 DUP3 ADD SLOAD PUSH1 0x2 SWAP1 SWAP3 ADD SLOAD PUSH1 0xFF SWAP1 SWAP2 AND SWAP4 POP SWAP1 SWAP2 POP DUP4 JUMP JUMPDEST PUSH1 0x0 PUSH1 0x40 MLOAD PUSH2 0x393 SWAP1 PUSH2 0x115B JUMP JUMPDEST PUSH1 0x40 MLOAD DUP1 SWAP2 SUB SWAP1 PUSH1 0x0 CREATE DUP1 ISZERO DUP1 ISZERO PUSH2 0x3AF JUMPI RETURNDATASIZE PUSH1 0x0 DUP1 RETURNDATACOPY RETURNDATASIZE PUSH1 0x0 REVERT JUMPDEST POP SWAP1 POP PUSH1 0x0 DUP1 PUSH1 0x0 DUP4 PUSH1 0x1 PUSH1 0x1 PUSH1 0xA0 SHL SUB AND PUSH4 0xC6CB1401 PUSH32 0x0 PUSH1 0x40 MLOAD DUP3 PUSH4 0xFFFFFFFF AND PUSH1 0xE0 SHL DUP2 MSTORE PUSH1 0x4 ADD PUSH2 0x405 SWAP2 DUP2 MSTORE PUSH1 0x20 ADD SWAP1 JUMP JUMPDEST PUSH1 0x60 PUSH1 0x40 MLOAD DUP1 DUP4 SUB DUP2 PUSH1 0x0 DUP8 GAS CALL ISZERO DUP1 ISZERO PUSH2 0x424 JUMPI RETURNDATASIZE PUSH1 0x0 DUP1 RETURNDATACOPY RETURNDATASIZE PUSH1 0x0 REVERT JUMPDEST POP POP POP POP PUSH1 0x40 MLOAD RETURNDATASIZE PUSH1 0x1F NOT PUSH1 0x1F DUP3 ADD AND DUP3 ADD DUP1 PUSH1 0x40 MSTORE POP DUP2 ADD SWAP1 PUSH2 0x448 SWAP2 SWAP1 PUSH2 0x1523 JUMP JUMPDEST PUSH1 0xB SWAP3 SWAP1 SWAP3 SSTORE PUSH1 0xC SSTORE PUSH1 0xD SSTORE POP POP POP POP JUMP JUMPDEST PUSH1 0x40 MLOAD PUSH4 0x6EB1769F PUSH1 0xE1 SHL DUP2 MSTORE CALLER PUSH1 0x4 DUP3 ADD MSTORE ADDRESS PUSH1 0x24 DUP3 ADD MSTORE DUP2 SWAP1 DUP4 SWAP1 PUSH1 0x1 PUSH1 0x1 PUSH1 0xA0 SHL SUB DUP4 AND SWAP1 PUSH4 0xDD62ED3E SWAP1 PUSH1 0x44 ADD PUSH1 0x20 PUSH1 0x40 MLOAD DUP1 DUP4 SUB DUP2 DUP7 GAS STATICCALL ISZERO DUP1 ISZERO PUSH2 0x4A8 JUMPI RETURNDATASIZE PUSH1 0x0 DUP1 RETURNDATACOPY RETURNDATASIZE PUSH1 0x0 REVERT JUMPDEST POP POP POP POP PUSH1 0x40 MLOAD RETURNDATASIZE PUSH1 0x1F NOT PUSH1 0x1F DUP3 ADD AND DUP3 ADD DUP1 PUSH1 0x40 MSTORE POP DUP2 ADD SWAP1 PUSH2 0x4CC SWAP2 SWAP1 PUSH2 0x1551 JUMP JUMPDEST LT ISZERO PUSH2 0x4F3 JUMPI PUSH1 0x40 MLOAD PUSH3 0x461BCD PUSH1 0xE5 SHL DUP2 MSTORE PUSH1 0x4 ADD PUSH2 0x4EA SWAP1 PUSH2 0x156A JUMP JUMPDEST PUSH1 0x40 MLOAD DUP1 SWAP2 SUB SWAP1 REVERT JUMPDEST PUSH1 0x40 MLOAD PUSH4 0x23B872DD PUSH1 0xE0 SHL DUP2 MSTORE CALLER PUSH1 0x4 DUP3 ADD MSTORE ADDRESS PUSH1 0x24 DUP3 ADD MSTORE PUSH1 0x44 DUP2 ADD DUP5 SWAP1 MSTORE PUSH1 0x1 PUSH1 0x1 PUSH1 0xA0 SHL SUB DUP3 AND SWAP1 PUSH4 0x23B872DD SWAP1 PUSH1 0x64 ADD PUSH1 0x20 PUSH1 0x40 MLOAD DUP1 DUP4 SUB DUP2 PUSH1 0x0 DUP8 GAS CALL ISZERO DUP1 ISZERO PUSH2 0x546 JUMPI RETURNDATASIZE PUSH1 0x0 DUP1 RETURNDATACOPY RETURNDATASIZE PUSH1 0x0 REVERT JUMPDEST POP POP POP POP PUSH1 0x40 MLOAD RETURNDATASIZE PUSH1 0x1F NOT PUSH1 0x1F DUP3 ADD AND DUP3 ADD DUP1 PUSH1 0x40 MSTORE POP DUP2 ADD SWAP1 PUSH2 0x56A SWAP2 SWAP1 PUSH2 0x15AF JUMP JUMPDEST POP POP POP POP JUMP JUMPDEST PUSH1 0xB SLOAD PUSH1 0x0 SWAP1 DUP3 SUB PUSH2 0x584 JUMPI POP PUSH1 0x1 SWAP2 SWAP1 POP JUMP JUMPDEST PUSH1 0xC SLOAD DUP3 SUB PUSH2 0x595 JUMPI POP PUSH1 0x2 SWAP2 SWAP1 POP JUMP JUMPDEST PUSH1 0xD SLOAD DUP3 SUB PUSH2 0x5A6 JUMPI POP PUSH1 0x3 SWAP2 SWAP1 POP JUMP JUMPDEST POP PUSH1 0x0 SWAP2 SWAP1 POP JUMP JUMPDEST PUSH1 0x0 DUP1 SLOAD PUSH1 0x1 PUSH1 0x1 PUSH1 0xA0 SHL SUB DUP4 DUP2 AND DUP4 MSTORE PUSH1 0x2 PUSH1 0x20 SWAP1 DUP2 MSTORE PUSH1 0x40 DUP1 DUP6 KECCAK256 DUP1 SLOAD DUP3 MLOAD DUP2 DUP6 MUL DUP2 ADD DUP6 ADD SWAP1 SWAP4 MSTORE DUP1 DUP4 MSTORE SWAP4 SWAP1 SWAP5 AND SWAP5 SWAP4 SWAP1 SWAP3 SWAP1 SWAP2 DUP5 SWAP1 DUP5 ADD JUMPDEST DUP3 DUP3 LT ISZERO PUSH2 0x65E JUMPI PUSH1 0x0 DUP5 DUP2 MSTORE PUSH1 0x20 SWAP1 KECCAK256 PUSH1 0x40 DUP1 MLOAD PUSH1 0x60 DUP2 ADD SWAP1 SWAP2 MSTORE PUSH1 0x3 DUP5 MUL SWAP1 SWAP2 ADD DUP1 SLOAD DUP3 SWAP1 PUSH1 0xFF AND PUSH1 0x2 DUP2 GT ISZERO PUSH2 0x626 JUMPI PUSH2 0x626 PUSH2 0x12B0 JUMP JUMPDEST PUSH1 0x2 DUP2 GT ISZERO PUSH2 0x637 JUMPI PUSH2 0x637 PUSH2 0x12B0 JUMP JUMPDEST DUP2 MSTORE PUSH1 0x20 ADD PUSH1 0x1 DUP3 ADD SLOAD DUP2 MSTORE PUSH1 0x20 ADD PUSH1 0x2 DUP3 ADD SLOAD DUP2 MSTORE POP POP DUP2 MSTORE PUSH1 0x20 ADD SWAP1 PUSH1 0x1 ADD SWAP1 PUSH2 0x5EB JUMP JUMPDEST POP POP POP POP SWAP1 POP PUSH1 0x0 DUP1 PUSH1 0x0 JUMPDEST DUP4 MLOAD DUP2 LT ISZERO PUSH2 0x781 JUMPI PUSH1 0x0 DUP5 DUP3 DUP2 MLOAD DUP2 LT PUSH2 0x687 JUMPI PUSH2 0x687 PUSH2 0x15CC JUMP JUMPDEST PUSH1 0x20 MUL PUSH1 0x20 ADD ADD MLOAD SWAP1 POP PUSH2 0x69E DUP2 PUSH1 0x40 ADD MLOAD PUSH2 0x570 JUMP JUMPDEST SWAP3 POP PUSH1 0x0 DUP2 MLOAD PUSH1 0x2 DUP2 GT ISZERO PUSH2 0x6B5 JUMPI PUSH2 0x6B5 PUSH2 0x12B0 JUMP JUMPDEST EQ DUP1 ISZERO PUSH2 0x6C2 JUMPI POP DUP3 PUSH1 0x1 EQ JUMPDEST ISZERO PUSH2 0x6E4 JUMPI PUSH1 0x20 DUP2 ADD MLOAD PUSH2 0x6D7 SWAP1 PUSH1 0x6 PUSH2 0x15F8 JUMP JUMPDEST PUSH2 0x6E1 SWAP1 DUP6 PUSH2 0x1615 JUMP JUMPDEST SWAP4 POP JUMPDEST PUSH1 0x1 DUP2 MLOAD PUSH1 0x2 DUP2 GT ISZERO PUSH2 0x6F9 JUMPI PUSH2 0x6F9 PUSH2 0x12B0 JUMP JUMPDEST EQ DUP1 ISZERO PUSH2 0x707 JUMPI POP PUSH1 0x2 DUP4 GT ISZERO JUMPDEST ISZERO PUSH2 0x729 JUMPI PUSH1 0x20 DUP2 ADD MLOAD PUSH2 0x71C SWAP1 PUSH1 0x4 PUSH2 0x15F8 JUMP JUMPDEST PUSH2 0x726 SWAP1 DUP6 PUSH2 0x1615 JUMP JUMPDEST SWAP4 POP JUMPDEST PUSH1 0x2 DUP2 MLOAD PUSH1 0x2 DUP2 GT ISZERO PUSH2 0x73E JUMPI PUSH2 0x73E PUSH2 0x12B0 JUMP JUMPDEST EQ DUP1 ISZERO PUSH2 0x74C JUMPI POP PUSH1 0x3 DUP4 GT ISZERO JUMPDEST ISZERO PUSH2 0x76E JUMPI PUSH1 0x20 DUP2 ADD MLOAD PUSH2 0x761 SWAP1 PUSH1 0x2 PUSH2 0x15F8 JUMP JUMPDEST PUSH2 0x76B SWAP1 DUP6 PUSH2 0x1615 JUMP JUMPDEST SWAP4 POP JUMPDEST POP DUP1 PUSH2 0x779 DUP2 PUSH2 0x1628 JUMP JUMPDEST SWAP2 POP POP PUSH2 0x66A JUMP JUMPDEST POP PUSH1 0x1 SLOAD PUSH1 0x40 MLOAD PUSH4 0x23B872DD PUSH1 0xE0 SHL DUP2 MSTORE PUSH1 0x1 PUSH1 0x1 PUSH1 0xA0 SHL SUB SWAP2 DUP3 AND PUSH1 0x4 DUP3 ADD MSTORE DUP7 DUP3 AND PUSH1 0x24 DUP3 ADD MSTORE PUSH1 0x44 DUP2 ADD DUP5 SWAP1 MSTORE SWAP1 DUP6 AND SWAP1 PUSH4 0x23B872DD SWAP1 PUSH1 0x64 ADD PUSH1 0x20 PUSH1 0x40 MLOAD DUP1 DUP4 SUB DUP2 PUSH1 0x0 DUP8 GAS CALL ISZERO DUP1 ISZERO PUSH2 0x7DD JUMPI RETURNDATASIZE PUSH1 0x0 DUP1 RETURNDATACOPY RETURNDATASIZE PUSH1 0x0 REVERT JUMPDEST POP POP POP POP PUSH1 0x40 MLOAD RETURNDATASIZE PUSH1 0x1F NOT PUSH1 0x1F DUP3 ADD AND DUP3 ADD DUP1 PUSH1 0x40 MSTORE POP DUP2 ADD SWAP1 PUSH2 0x801 SWAP2 SWAP1 PUSH2 0x15AF JUMP JUMPDEST POP PUSH1 0x40 DUP1 MLOAD DUP1 DUP3 ADD SWAP1 SWAP2 MSTORE PUSH1 0x9 DUP2 MSTORE PUSH9 0x29B2B73232B9101D1 PUSH1 0xBD SHL PUSH1 0x20 DUP3 ADD MSTORE PUSH1 0x1 SLOAD PUSH2 0x838 SWAP2 SWAP1 PUSH1 0x1 PUSH1 0x1 PUSH1 0xA0 SHL SUB AND PUSH2 0x1022 JUMP JUMPDEST PUSH2 0x86A PUSH1 0x40 MLOAD DUP1 PUSH1 0x40 ADD PUSH1 0x40 MSTORE DUP1 PUSH1 0x10 DUP2 MSTORE PUSH1 0x20 ADD PUSH16 0x2932B1B2B4BB32B9103A3434B9901D1 PUSH1 0x85 SHL DUP2 MSTORE POP DUP7 PUSH2 0x1022 JUMP JUMPDEST PUSH1 0x40 DUP1 MLOAD DUP1 DUP3 ADD DUP3 MSTORE PUSH1 0xB DUP2 MSTORE PUSH11 0x42616C616E63653A202573 PUSH1 0xA8 SHL PUSH1 0x20 DUP3 ADD MSTORE SWAP1 MLOAD PUSH4 0x70A08231 PUSH1 0xE0 SHL DUP2 MSTORE PUSH1 0x1 PUSH1 0x1 PUSH1 0xA0 SHL SUB DUP8 DUP2 AND PUSH1 0x4 DUP4 ADD MSTORE PUSH2 0x900 SWAP3 SWAP2 SWAP1 DUP8 AND SWAP1 PUSH4 0x70A08231 SWAP1 PUSH1 0x24 ADD JUMPDEST PUSH1 0x20 PUSH1 0x40 MLOAD DUP1 DUP4 SUB DUP2 DUP7 GAS STATICCALL ISZERO DUP1 ISZERO PUSH2 0x8D7 JUMPI RETURNDATASIZE PUSH1 0x0 DUP1 RETURNDATACOPY RETURNDATASIZE PUSH1 0x0 REVERT JUMPDEST POP POP POP POP PUSH1 0x40 MLOAD RETURNDATASIZE PUSH1 0x1F NOT PUSH1 0x1F DUP3 ADD AND DUP3 ADD DUP1 PUSH1 0x40 MSTORE POP DUP2 ADD SWAP1 PUSH2 0x8FB SWAP2 SWAP1 PUSH2 0x1551 JUMP JUMPDEST PUSH2 0x1067 JUMP JUMPDEST POP POP POP POP POP JUMP JUMPDEST PUSH1 0x0 SLOAD PUSH1 0x40 MLOAD PUSH4 0x95EA7B3 PUSH1 0xE0 SHL DUP2 MSTORE ADDRESS PUSH1 0x4 DUP3 ADD MSTORE PUSH1 0x24 DUP2 ADD DUP4 SWAP1 MSTORE PUSH1 0x1 PUSH1 0x1 PUSH1 0xA0 SHL SUB SWAP1 SWAP2 AND SWAP1 DUP2 SWAP1 PUSH4 0x95EA7B3 SWAP1 PUSH1 0x44 ADD PUSH1 0x20 PUSH1 0x40 MLOAD DUP1 DUP4 SUB DUP2 PUSH1 0x0 DUP8 GAS CALL ISZERO DUP1 ISZERO PUSH2 0x95A JUMPI RETURNDATASIZE PUSH1 0x0 DUP1 RETURNDATACOPY RETURNDATASIZE PUSH1 0x0 REVERT JUMPDEST POP POP POP POP PUSH1 0x40 MLOAD RETURNDATASIZE PUSH1 0x1F NOT PUSH1 0x1F DUP3 ADD AND DUP3 ADD DUP1 PUSH1 0x40 MSTORE POP DUP2 ADD SWAP1 PUSH2 0x97E SWAP2 SWAP1 PUSH2 0x15AF JUMP JUMPDEST POP POP POP JUMP JUMPDEST PUSH1 0x4 DUP2 DUP2 SLOAD DUP2 LT PUSH2 0x993 JUMPI PUSH1 0x0 DUP1 REVERT JUMPDEST PUSH1 0x0 SWAP2 DUP3 MSTORE PUSH1 0x20 SWAP1 SWAP2 KECCAK256 ADD SLOAD PUSH1 0x1 PUSH1 0x1 PUSH1 0xA0 SHL SUB AND SWAP1 POP DUP2 JUMP JUMPDEST PUSH1 0x0 JUMPDEST PUSH1 0x4 SLOAD DUP2 LT ISZERO PUSH2 0xA10 JUMPI PUSH1 0x2 PUSH1 0x0 PUSH1 0x4 DUP4 DUP2 SLOAD DUP2 LT PUSH2 0x9D1 JUMPI PUSH2 0x9D1 PUSH2 0x15CC JUMP JUMPDEST PUSH1 0x0 SWAP2 DUP3 MSTORE PUSH1 0x20 DUP1 DUP4 KECCAK256 SWAP1 SWAP2 ADD SLOAD PUSH1 0x1 PUSH1 0x1 PUSH1 0xA0 SHL SUB AND DUP4 MSTORE DUP3 ADD SWAP3 SWAP1 SWAP3 MSTORE PUSH1 0x40 ADD DUP2 KECCAK256 PUSH2 0x9FE SWAP2 PUSH2 0x1168 JUMP JUMPDEST DUP1 PUSH2 0xA08 DUP2 PUSH2 0x1628 JUMP JUMPDEST SWAP2 POP POP PUSH2 0x9B0 JUMP JUMPDEST POP PUSH1 0x0 JUMPDEST PUSH32 0x0 DUP2 LT ISZERO PUSH2 0xA65 JUMPI PUSH1 0x0 DUP2 DUP2 MSTORE PUSH1 0x3 PUSH1 0x20 MSTORE PUSH1 0x40 DUP2 KECCAK256 PUSH2 0xA53 SWAP2 PUSH2 0x1189 JUMP JUMPDEST DUP1 PUSH2 0xA5D DUP2 PUSH2 0x1628 JUMP JUMPDEST SWAP2 POP POP PUSH2 0xA14 JUMP JUMPDEST POP PUSH1 0x40 DUP1 MLOAD PUSH1 0x0 DUP2 MSTORE PUSH1 0x20 DUP2 ADD SWAP2 DUP3 SWAP1 MSTORE MLOAD PUSH2 0xA83 SWAP2 PUSH1 0x4 SWAP2 PUSH2 0x11A7 JUMP JUMPDEST POP PUSH1 0x0 PUSH1 0x5 DUP2 SWAP1 SSTORE PUSH1 0x40 DUP1 MLOAD PUSH2 0x100 DUP2 ADD DUP3 MSTORE DUP7 DUP2 MSTORE PUSH1 0x20 DUP2 ADD SWAP3 SWAP1 SWAP3 MSTORE DUP2 ADD PUSH2 0xAAF TIMESTAMP PUSH2 0x258 PUSH2 0x1615 JUMP JUMPDEST DUP2 MSTORE PUSH1 0x1 PUSH1 0x20 DUP3 ADD DUP2 SWAP1 MSTORE PUSH1 0x40 DUP3 ADD MSTORE PUSH1 0x0 PUSH1 0x60 DUP3 ADD DUP2 SWAP1 MSTORE PUSH1 0x80 DUP3 ADD DUP2 SWAP1 MSTORE PUSH1 0xA0 SWAP1 SWAP2 ADD MSTORE DUP1 MLOAD PUSH1 0x6 SWAP1 DUP2 SWAP1 PUSH2 0xAE6 SWAP1 DUP3 PUSH2 0x16C1 JUMP JUMPDEST POP PUSH1 0x20 DUP3 ADD MLOAD PUSH1 0x1 DUP1 DUP4 ADD DUP1 SLOAD SWAP1 SWAP2 PUSH1 0xFF NOT SWAP1 SWAP2 AND SWAP1 DUP4 DUP2 DUP2 GT ISZERO PUSH2 0xB0D JUMPI PUSH2 0xB0D PUSH2 0x12B0 JUMP JUMPDEST MUL OR SWAP1 SSTORE POP PUSH1 0x40 DUP3 ADD MLOAD PUSH1 0x2 DUP3 ADD SSTORE PUSH1 0x60 DUP3 ADD MLOAD PUSH1 0x3 DUP3 ADD SSTORE PUSH1 0x80 DUP3 ADD MLOAD PUSH1 0x4 DUP3 ADD SSTORE PUSH1 0xA0 DUP3 ADD MLOAD PUSH1 0x5 DUP3 ADD SSTORE PUSH1 0xC0 DUP3 ADD MLOAD PUSH1 0x6 DUP3 ADD SSTORE PUSH1 0xE0 SWAP1 SWAP2 ADD MLOAD PUSH1 0x7 SWAP1 SWAP2 ADD SSTORE DUP3 ISZERO ISZERO PUSH1 0x1 SUB PUSH2 0x56A JUMPI POP POP PUSH1 0x7 DUP1 SLOAD PUSH1 0xFF NOT AND PUSH1 0x1 OR SWAP1 SSTORE POP POP JUMP JUMPDEST PUSH1 0x6 DUP1 SLOAD DUP2 SWAP1 PUSH2 0xB7C SWAP1 PUSH2 0x1641 JUMP JUMPDEST DUP1 PUSH1 0x1F ADD PUSH1 0x20 DUP1 SWAP2 DIV MUL PUSH1 0x20 ADD PUSH1 0x40 MLOAD SWAP1 DUP2 ADD PUSH1 0x40 MSTORE DUP1 SWAP3 SWAP2 SWAP1 DUP2 DUP2 MSTORE PUSH1 0x20 ADD DUP3 DUP1 SLOAD PUSH2 0xBA8 SWAP1 PUSH2 0x1641 JUMP JUMPDEST DUP1 ISZERO PUSH2 0xBF5 JUMPI DUP1 PUSH1 0x1F LT PUSH2 0xBCA JUMPI PUSH2 0x100 DUP1 DUP4 SLOAD DIV MUL DUP4 MSTORE SWAP2 PUSH1 0x20 ADD SWAP2 PUSH2 0xBF5 JUMP JUMPDEST DUP3 ADD SWAP2 SWAP1 PUSH1 0x0 MSTORE PUSH1 0x20 PUSH1 0x0 KECCAK256 SWAP1 JUMPDEST DUP2 SLOAD DUP2 MSTORE SWAP1 PUSH1 0x1 ADD SWAP1 PUSH1 0x20 ADD DUP1 DUP4 GT PUSH2 0xBD8 JUMPI DUP3 SWAP1 SUB PUSH1 0x1F AND DUP3 ADD SWAP2 JUMPDEST POP POP POP POP PUSH1 0x1 DUP4 ADD SLOAD PUSH1 0x2 DUP5 ADD SLOAD PUSH1 0x3 DUP6 ADD SLOAD PUSH1 0x4 DUP7 ADD SLOAD PUSH1 0x5 DUP8 ADD SLOAD PUSH1 0x6 DUP9 ADD SLOAD PUSH1 0x7 SWAP1 SWAP9 ADD SLOAD SWAP7 SWAP8 PUSH1 0xFF SWAP1 SWAP6 AND SWAP7 SWAP4 SWAP6 POP SWAP2 SWAP4 SWAP1 SWAP3 DUP9 JUMP JUMPDEST PUSH1 0x0 SLOAD PUSH1 0x40 DUP1 MLOAD DUP1 DUP3 ADD SWAP1 SWAP2 MSTORE PUSH1 0xF DUP2 MSTORE PUSH15 0x2132B337B932903A3930B739B332B9 PUSH1 0x89 SHL PUSH1 0x20 DUP3 ADD MSTORE PUSH1 0x1 PUSH1 0x1 PUSH1 0xA0 SHL SUB SWAP1 SWAP2 AND SWAP1 PUSH2 0xC6D SWAP1 PUSH2 0x10AC JUMP JUMPDEST PUSH1 0x40 MLOAD PUSH4 0x6EB1769F PUSH1 0xE1 SHL DUP2 MSTORE CALLER PUSH1 0x4 DUP3 ADD MSTORE ADDRESS PUSH1 0x24 DUP3 ADD MSTORE DUP5 SWAP1 PUSH1 0x1 PUSH1 0x1 PUSH1 0xA0 SHL SUB DUP4 AND SWAP1 PUSH4 0xDD62ED3E SWAP1 PUSH1 0x44 ADD PUSH1 0x20 PUSH1 0x40 MLOAD DUP1 DUP4 SUB DUP2 DUP7 GAS STATICCALL ISZERO DUP1 ISZERO PUSH2 0xCB9 JUMPI RETURNDATASIZE PUSH1 0x0 DUP1 RETURNDATACOPY RETURNDATASIZE PUSH1 0x0 REVERT JUMPDEST POP POP POP POP PUSH1 0x40 MLOAD RETURNDATASIZE PUSH1 0x1F NOT PUSH1 0x1F DUP3 ADD AND DUP3 ADD DUP1 PUSH1 0x40 MSTORE POP DUP2 ADD SWAP1 PUSH2 0xCDD SWAP2 SWAP1 PUSH2 0x1551 JUMP JUMPDEST LT ISZERO PUSH2 0xCFB JUMPI PUSH1 0x40 MLOAD PUSH3 0x461BCD PUSH1 0xE5 SHL DUP2 MSTORE PUSH1 0x4 ADD PUSH2 0x4EA SWAP1 PUSH2 0x156A JUMP JUMPDEST PUSH2 0xD2A PUSH1 0x40 MLOAD DUP1 PUSH1 0x40 ADD PUSH1 0x40 MSTORE DUP1 PUSH1 0xE DUP2 MSTORE PUSH1 0x20 ADD PUSH14 0x14995C5D5A5C99481C185CDCD959 PUSH1 0x92 SHL DUP2 MSTORE POP PUSH2 0x10AC JUMP JUMPDEST PUSH1 0x1 SLOAD PUSH1 0x40 MLOAD PUSH4 0x23B872DD PUSH1 0xE0 SHL DUP2 MSTORE CALLER PUSH1 0x4 DUP3 ADD MSTORE PUSH1 0x1 PUSH1 0x1 PUSH1 0xA0 SHL SUB SWAP2 DUP3 AND PUSH1 0x24 DUP3 ADD MSTORE PUSH1 0x44 DUP2 ADD DUP7 SWAP1 MSTORE SWAP1 DUP3 AND SWAP1 PUSH4 0x23B872DD SWAP1 PUSH1 0x64 ADD PUSH1 0x20 PUSH1 0x40 MLOAD DUP1 DUP4 SUB DUP2 PUSH1 0x0 DUP8 GAS CALL ISZERO DUP1 ISZERO PUSH2 0xD83 JUMPI RETURNDATASIZE PUSH1 0x0 DUP1 RETURNDATACOPY RETURNDATASIZE PUSH1 0x0 REVERT JUMPDEST POP POP POP POP PUSH1 0x40 MLOAD RETURNDATASIZE PUSH1 0x1F NOT PUSH1 0x1F DUP3 ADD AND DUP3 ADD DUP1 PUSH1 0x40 MSTORE POP DUP2 ADD SWAP1 PUSH2 0xDA7 SWAP2 SWAP1 PUSH2 0x15AF JUMP JUMPDEST POP PUSH2 0xDD7 PUSH1 0x40 MLOAD DUP1 PUSH1 0x40 ADD PUSH1 0x40 MSTORE DUP1 PUSH1 0xE DUP2 MSTORE PUSH1 0x20 ADD PUSH14 0x20B33A32B9103A3930B739B332B9 PUSH1 0x91 SHL DUP2 MSTORE POP PUSH2 0x10AC JUMP JUMPDEST PUSH2 0xDE0 CALLER PUSH2 0x10F2 JUMP JUMPDEST PUSH1 0x2 PUSH1 0x1 DUP4 SWAP1 SUB PUSH2 0xDF3 JUMPI POP PUSH1 0x0 PUSH2 0xDFF JUMP JUMPDEST DUP3 PUSH1 0x2 SUB PUSH2 0xDFF JUMPI POP PUSH1 0x1 JUMPDEST PUSH1 0x0 PUSH1 0x40 MLOAD DUP1 PUSH1 0x60 ADD PUSH1 0x40 MSTORE DUP1 DUP4 PUSH1 0x2 DUP2 GT ISZERO PUSH2 0xE1E JUMPI PUSH2 0xE1E PUSH2 0x12B0 JUMP JUMPDEST DUP2 MSTORE PUSH1 0x20 DUP1 DUP3 ADD DUP10 SWAP1 MSTORE PUSH1 0x40 SWAP2 DUP3 ADD DUP9 SWAP1 MSTORE CALLER PUSH1 0x0 SWAP1 DUP2 MSTORE PUSH1 0x2 DUP1 DUP4 MSTORE SWAP3 DUP2 KECCAK256 DUP1 SLOAD PUSH1 0x1 DUP2 DUP2 ADD DUP4 SSTORE SWAP2 DUP4 MSTORE SWAP3 SWAP1 SWAP2 KECCAK256 DUP5 MLOAD PUSH1 0x3 SWAP1 SWAP4 MUL ADD DUP1 SLOAD SWAP5 SWAP6 POP DUP6 SWAP5 SWAP1 SWAP4 DUP5 SWAP3 PUSH1 0xFF NOT SWAP1 SWAP3 AND SWAP2 SWAP1 DUP5 SWAP1 DUP2 GT ISZERO PUSH2 0xE7A JUMPI PUSH2 0xE7A PUSH2 0x12B0 JUMP JUMPDEST MUL OR SWAP1 SSTORE POP PUSH1 0x20 DUP3 ADD MLOAD DUP2 PUSH1 0x1 ADD SSTORE PUSH1 0x40 DUP3 ADD MLOAD DUP2 PUSH1 0x2 ADD SSTORE POP POP DUP6 PUSH1 0x5 PUSH1 0x0 DUP3 DUP3 SLOAD PUSH2 0xEA7 SWAP2 SWAP1 PUSH2 0x1615 JUMP JUMPDEST SWAP1 SWAP2 SSTORE POP POP PUSH1 0x4 DUP1 SLOAD PUSH1 0x1 DUP1 DUP3 ADD DUP4 SSTORE PUSH32 0x8A35ACFBC15FF81A39AE7D344FD709F28E8600B4AA8C65C6B64BFE7FE36BD19B SWAP1 SWAP2 ADD DUP1 SLOAD CALLER PUSH1 0x1 PUSH1 0x1 PUSH1 0xA0 SHL SUB NOT SWAP2 DUP3 AND DUP2 OR SWAP1 SWAP3 SSTORE PUSH1 0x0 DUP10 DUP2 MSTORE PUSH1 0x3 PUSH1 0x20 SWAP1 DUP2 MSTORE PUSH1 0x40 DUP1 DUP4 KECCAK256 DUP1 SLOAD DUP1 DUP9 ADD DUP3 SSTORE SWAP1 DUP5 MSTORE SWAP3 DUP3 SWAP1 KECCAK256 SWAP1 SWAP3 ADD DUP1 SLOAD SWAP1 SWAP4 AND SWAP1 SWAP4 OR SWAP1 SWAP2 SSTORE DUP1 MLOAD DUP1 DUP3 ADD DUP3 MSTORE PUSH1 0x1B DUP2 MSTORE PUSH32 0x42616C616E63652061646472657373206D794F776E65723A2025730000000000 SWAP3 DUP2 ADD SWAP3 SWAP1 SWAP3 MSTORE SWAP2 SLOAD SWAP2 MLOAD PUSH4 0x70A08231 PUSH1 0xE0 SHL DUP2 MSTORE PUSH1 0x1 PUSH1 0x1 PUSH1 0xA0 SHL SUB SWAP3 DUP4 AND SWAP4 DUP2 ADD SWAP4 SWAP1 SWAP4 MSTORE PUSH2 0xF86 SWAP3 SWAP1 SWAP2 DUP7 AND SWAP1 PUSH4 0x70A08231 SWAP1 PUSH1 0x24 ADD PUSH2 0x8BA JUMP JUMPDEST PUSH1 0x40 DUP1 MLOAD DUP1 DUP3 ADD DUP3 MSTORE PUSH1 0x16 DUP2 MSTORE PUSH22 0x42616C616E6365206D73672073656E6465723A202573 PUSH1 0x50 SHL PUSH1 0x20 DUP3 ADD MSTORE SWAP1 MLOAD PUSH4 0x70A08231 PUSH1 0xE0 SHL DUP2 MSTORE CALLER PUSH1 0x4 DUP3 ADD MSTORE PUSH2 0xFE2 SWAP2 SWAP1 PUSH1 0x1 PUSH1 0x1 PUSH1 0xA0 SHL SUB DUP7 AND SWAP1 PUSH4 0x70A08231 SWAP1 PUSH1 0x24 ADD PUSH2 0x8BA JUMP JUMPDEST POP POP POP POP POP POP JUMP JUMPDEST PUSH1 0x3 PUSH1 0x20 MSTORE DUP2 PUSH1 0x0 MSTORE PUSH1 0x40 PUSH1 0x0 KECCAK256 DUP2 DUP2 SLOAD DUP2 LT PUSH2 0x1006 JUMPI PUSH1 0x0 DUP1 REVERT JUMPDEST PUSH1 0x0 SWAP2 DUP3 MSTORE PUSH1 0x20 SWAP1 SWAP2 KECCAK256 ADD SLOAD PUSH1 0x1 PUSH1 0x1 PUSH1 0xA0 SHL SUB AND SWAP2 POP DUP3 SWAP1 POP JUMP JUMPDEST PUSH2 0x28C DUP3 DUP3 PUSH1 0x40 MLOAD PUSH1 0x24 ADD PUSH2 0x1038 SWAP3 SWAP2 SWAP1 PUSH2 0x1781 JUMP JUMPDEST PUSH1 0x40 DUP1 MLOAD PUSH1 0x1F NOT DUP2 DUP5 SUB ADD DUP2 MSTORE SWAP2 SWAP1 MSTORE PUSH1 0x20 DUP2 ADD DUP1 MLOAD PUSH1 0x1 PUSH1 0x1 PUSH1 0xE0 SHL SUB AND PUSH4 0x319AF333 PUSH1 0xE0 SHL OR SWAP1 MSTORE PUSH2 0x1136 JUMP JUMPDEST PUSH2 0x28C DUP3 DUP3 PUSH1 0x40 MLOAD PUSH1 0x24 ADD PUSH2 0x107D SWAP3 SWAP2 SWAP1 PUSH2 0x17AB JUMP JUMPDEST PUSH1 0x40 DUP1 MLOAD PUSH1 0x1F NOT DUP2 DUP5 SUB ADD DUP2 MSTORE SWAP2 SWAP1 MSTORE PUSH1 0x20 DUP2 ADD DUP1 MLOAD PUSH1 0x1 PUSH1 0x1 PUSH1 0xE0 SHL SUB AND PUSH4 0x2D839CB3 PUSH1 0xE2 SHL OR SWAP1 MSTORE PUSH2 0x1136 JUMP JUMPDEST PUSH2 0x10EF DUP2 PUSH1 0x40 MLOAD PUSH1 0x24 ADD PUSH2 0x10C0 SWAP2 SWAP1 PUSH2 0x17CD JUMP JUMPDEST PUSH1 0x40 DUP1 MLOAD PUSH1 0x1F NOT DUP2 DUP5 SUB ADD DUP2 MSTORE SWAP2 SWAP1 MSTORE PUSH1 0x20 DUP2 ADD DUP1 MLOAD PUSH1 0x1 PUSH1 0x1 PUSH1 0xE0 SHL SUB AND PUSH4 0x104C13EB PUSH1 0xE2 SHL OR SWAP1 MSTORE PUSH2 0x1136 JUMP JUMPDEST POP JUMP JUMPDEST PUSH1 0x40 MLOAD PUSH1 0x1 PUSH1 0x1 PUSH1 0xA0 SHL SUB DUP3 AND PUSH1 0x24 DUP3 ADD MSTORE PUSH2 0x10EF SWAP1 PUSH1 0x44 ADD PUSH1 0x40 DUP1 MLOAD PUSH1 0x1F NOT DUP2 DUP5 SUB ADD DUP2 MSTORE SWAP2 SWAP1 MSTORE PUSH1 0x20 DUP2 ADD DUP1 MLOAD PUSH1 0x1 PUSH1 0x1 PUSH1 0xE0 SHL SUB AND PUSH4 0x161765E1 PUSH1 0xE1 SHL OR SWAP1 MSTORE JUMPDEST PUSH2 0x10EF DUP2 PUSH1 0x0 PUSH11 0x636F6E736F6C652E6C6F67 SWAP1 POP PUSH1 0x0 DUP1 DUP4 MLOAD PUSH1 0x20 DUP6 ADD DUP5 GAS STATICCALL POP POP POP JUMP JUMPDEST PUSH2 0x1AD DUP1 PUSH2 0x17E1 DUP4 CODECOPY ADD SWAP1 JUMP JUMPDEST POP DUP1 SLOAD PUSH1 0x0 DUP3 SSTORE PUSH1 0x3 MUL SWAP1 PUSH1 0x0 MSTORE PUSH1 0x20 PUSH1 0x0 KECCAK256 SWAP1 DUP2 ADD SWAP1 PUSH2 0x10EF SWAP2 SWAP1 PUSH2 0x120C JUMP JUMPDEST POP DUP1 SLOAD PUSH1 0x0 DUP3 SSTORE SWAP1 PUSH1 0x0 MSTORE PUSH1 0x20 PUSH1 0x0 KECCAK256 SWAP1 DUP2 ADD SWAP1 PUSH2 0x10EF SWAP2 SWAP1 PUSH2 0x1233 JUMP JUMPDEST DUP3 DUP1 SLOAD DUP3 DUP3 SSTORE SWAP1 PUSH1 0x0 MSTORE PUSH1 0x20 PUSH1 0x0 KECCAK256 SWAP1 DUP2 ADD SWAP3 DUP3 ISZERO PUSH2 0x11FC JUMPI SWAP2 PUSH1 0x20 MUL DUP3 ADD JUMPDEST DUP3 DUP2 GT ISZERO PUSH2 0x11FC JUMPI DUP3 MLOAD DUP3 SLOAD PUSH1 0x1 PUSH1 0x1 PUSH1 0xA0 SHL SUB NOT AND PUSH1 0x1 PUSH1 0x1 PUSH1 0xA0 SHL SUB SWAP1 SWAP2 AND OR DUP3 SSTORE PUSH1 0x20 SWAP1 SWAP3 ADD SWAP2 PUSH1 0x1 SWAP1 SWAP2 ADD SWAP1 PUSH2 0x11C7 JUMP JUMPDEST POP PUSH2 0x1208 SWAP3 SWAP2 POP PUSH2 0x1233 JUMP JUMPDEST POP SWAP1 JUMP JUMPDEST JUMPDEST DUP1 DUP3 GT ISZERO PUSH2 0x1208 JUMPI DUP1 SLOAD PUSH1 0xFF NOT AND DUP2 SSTORE PUSH1 0x0 PUSH1 0x1 DUP3 ADD DUP2 SWAP1 SSTORE PUSH1 0x2 DUP3 ADD SSTORE PUSH1 0x3 ADD PUSH2 0x120D JUMP JUMPDEST JUMPDEST DUP1 DUP3 GT ISZERO PUSH2 0x1208 JUMPI PUSH1 0x0 DUP2 SSTORE PUSH1 0x1 ADD PUSH2 0x1234 JUMP JUMPDEST DUP1 CALLDATALOAD PUSH1 0x1 PUSH1 0x1 PUSH1 0xA0 SHL SUB DUP2 AND DUP2 EQ PUSH2 0x125F JUMPI PUSH1 0x0 DUP1 REVERT JUMPDEST SWAP2 SWAP1 POP JUMP JUMPDEST PUSH1 0x0 PUSH1 0x20 DUP3 DUP5 SUB SLT ISZERO PUSH2 0x1276 JUMPI PUSH1 0x0 DUP1 REVERT JUMPDEST PUSH2 0x127F DUP3 PUSH2 0x1248 JUMP JUMPDEST SWAP4 SWAP3 POP POP POP JUMP JUMPDEST PUSH1 0x0 DUP1 PUSH1 0x40 DUP4 DUP6 SUB SLT ISZERO PUSH2 0x1299 JUMPI PUSH1 0x0 DUP1 REVERT JUMPDEST PUSH2 0x12A2 DUP4 PUSH2 0x1248 JUMP JUMPDEST SWAP5 PUSH1 0x20 SWAP4 SWAP1 SWAP4 ADD CALLDATALOAD SWAP4 POP POP POP JUMP JUMPDEST PUSH4 0x4E487B71 PUSH1 0xE0 SHL PUSH1 0x0 MSTORE PUSH1 0x21 PUSH1 0x4 MSTORE PUSH1 0x24 PUSH1 0x0 REVERT JUMPDEST PUSH1 0x60 DUP2 ADD PUSH1 0x3 DUP6 LT PUSH2 0x12DA JUMPI PUSH2 0x12DA PUSH2 0x12B0 JUMP JUMPDEST SWAP4 DUP2 MSTORE PUSH1 0x20 DUP2 ADD SWAP3 SWAP1 SWAP3 MSTORE PUSH1 0x40 SWAP1 SWAP2 ADD MSTORE SWAP1 JUMP JUMPDEST PUSH1 0x0 DUP1 PUSH1 0x40 DUP4 DUP6 SUB SLT ISZERO PUSH2 0x1301 JUMPI PUSH1 0x0 DUP1 REVERT JUMPDEST DUP3 CALLDATALOAD SWAP2 POP PUSH2 0x1311 PUSH1 0x20 DUP5 ADD PUSH2 0x1248 JUMP JUMPDEST SWAP1 POP SWAP3 POP SWAP3 SWAP1 POP JUMP JUMPDEST PUSH1 0x0 PUSH1 0x20 DUP3 DUP5 SUB SLT ISZERO PUSH2 0x132C JUMPI PUSH1 0x0 DUP1 REVERT JUMPDEST POP CALLDATALOAD SWAP2 SWAP1 POP JUMP JUMPDEST PUSH4 0x4E487B71 PUSH1 0xE0 SHL PUSH1 0x0 MSTORE PUSH1 0x41 PUSH1 0x4 MSTORE PUSH1 0x24 PUSH1 0x0 REVERT JUMPDEST DUP1 ISZERO ISZERO DUP2 EQ PUSH2 0x10EF JUMPI PUSH1 0x0 DUP1 REVERT JUMPDEST DUP1 CALLDATALOAD PUSH2 0x125F DUP2 PUSH2 0x1349 JUMP JUMPDEST PUSH1 0x0 DUP1 PUSH1 0x0 DUP1 PUSH1 0x80 DUP6 DUP8 SUB SLT ISZERO PUSH2 0x1378 JUMPI PUSH1 0x0 DUP1 REVERT JUMPDEST DUP5 CALLDATALOAD PUSH8 0xFFFFFFFFFFFFFFFF DUP1 DUP3 GT ISZERO PUSH2 0x1390 JUMPI PUSH1 0x0 DUP1 REVERT JUMPDEST DUP2 DUP8 ADD SWAP2 POP DUP8 PUSH1 0x1F DUP4 ADD SLT PUSH2 0x13A4 JUMPI PUSH1 0x0 DUP1 REVERT JUMPDEST DUP2 CALLDATALOAD DUP2 DUP2 GT ISZERO PUSH2 0x13B6 JUMPI PUSH2 0x13B6 PUSH2 0x1333 JUMP JUMPDEST PUSH1 0x40 MLOAD PUSH1 0x1F DUP3 ADD PUSH1 0x1F NOT SWAP1 DUP2 AND PUSH1 0x3F ADD AND DUP2 ADD SWAP1 DUP4 DUP3 GT DUP2 DUP4 LT OR ISZERO PUSH2 0x13DE JUMPI PUSH2 0x13DE PUSH2 0x1333 JUMP JUMPDEST DUP2 PUSH1 0x40 MSTORE DUP3 DUP2 MSTORE DUP11 PUSH1 0x20 DUP5 DUP8 ADD ADD GT ISZERO PUSH2 0x13F7 JUMPI PUSH1 0x0 DUP1 REVERT JUMPDEST DUP3 PUSH1 0x20 DUP7 ADD PUSH1 0x20 DUP4 ADD CALLDATACOPY PUSH1 0x0 PUSH1 0x20 DUP5 DUP4 ADD ADD MSTORE DUP1 SWAP9 POP POP POP POP POP POP PUSH2 0x141E PUSH1 0x20 DUP7 ADD PUSH2 0x1357 JUMP JUMPDEST SWAP4 SWAP7 SWAP4 SWAP6 POP POP POP POP PUSH1 0x40 DUP3 ADD CALLDATALOAD SWAP2 PUSH1 0x60 ADD CALLDATALOAD SWAP1 JUMP JUMPDEST PUSH1 0x0 DUP2 MLOAD DUP1 DUP5 MSTORE PUSH1 0x0 JUMPDEST DUP2 DUP2 LT ISZERO PUSH2 0x1459 JUMPI PUSH1 0x20 DUP2 DUP6 ADD DUP2 ADD MLOAD DUP7 DUP4 ADD DUP3 ADD MSTORE ADD PUSH2 0x143D JUMP JUMPDEST POP PUSH1 0x0 PUSH1 0x20 DUP3 DUP7 ADD ADD MSTORE PUSH1 0x20 PUSH1 0x1F NOT PUSH1 0x1F DUP4 ADD AND DUP6 ADD ADD SWAP2 POP POP SWAP3 SWAP2 POP POP JUMP JUMPDEST PUSH1 0x0 PUSH2 0x100 DUP1 DUP4 MSTORE PUSH2 0x148D DUP2 DUP5 ADD DUP13 PUSH2 0x1433 JUMP JUMPDEST SWAP2 POP POP PUSH1 0x2 DUP10 LT PUSH2 0x14A0 JUMPI PUSH2 0x14A0 PUSH2 0x12B0 JUMP JUMPDEST PUSH1 0x20 DUP3 ADD SWAP9 SWAP1 SWAP9 MSTORE PUSH1 0x40 DUP2 ADD SWAP7 SWAP1 SWAP7 MSTORE PUSH1 0x60 DUP7 ADD SWAP5 SWAP1 SWAP5 MSTORE PUSH1 0x80 DUP6 ADD SWAP3 SWAP1 SWAP3 MSTORE PUSH1 0xA0 DUP5 ADD MSTORE PUSH1 0xC0 DUP4 ADD MSTORE PUSH1 0xE0 SWAP1 SWAP2 ADD MSTORE SWAP2 SWAP1 POP JUMP JUMPDEST PUSH1 0x0 DUP1 PUSH1 0x0 PUSH1 0x60 DUP5 DUP7 SUB SLT ISZERO PUSH2 0x14EA JUMPI PUSH1 0x0 DUP1 REVERT JUMPDEST POP POP DUP2 CALLDATALOAD SWAP4 PUSH1 0x20 DUP4 ADD CALLDATALOAD SWAP4 POP PUSH1 0x40 SWAP1 SWAP3 ADD CALLDATALOAD SWAP2 SWAP1 POP JUMP JUMPDEST PUSH1 0x0 DUP1 PUSH1 0x40 DUP4 DUP6 SUB SLT ISZERO PUSH2 0x1514 JUMPI PUSH1 0x0 DUP1 REVERT JUMPDEST POP POP DUP1 CALLDATALOAD SWAP3 PUSH1 0x20 SWAP1 SWAP2 ADD CALLDATALOAD SWAP2 POP JUMP JUMPDEST PUSH1 0x0 DUP1 PUSH1 0x0 PUSH1 0x60 DUP5 DUP7 SUB SLT ISZERO PUSH2 0x1538 JUMPI PUSH1 0x0 DUP1 REVERT JUMPDEST DUP4 MLOAD SWAP3 POP PUSH1 0x20 DUP5 ADD MLOAD SWAP2 POP PUSH1 0x40 DUP5 ADD MLOAD SWAP1 POP SWAP3 POP SWAP3 POP SWAP3 JUMP JUMPDEST PUSH1 0x0 PUSH1 0x20 DUP3 DUP5 SUB SLT ISZERO PUSH2 0x1563 JUMPI PUSH1 0x0 DUP1 REVERT JUMPDEST POP MLOAD SWAP2 SWAP1 POP JUMP JUMPDEST PUSH1 0x20 DUP1 DUP3 MSTORE PUSH1 0x25 SWAP1 DUP3 ADD MSTORE PUSH32 0x796F75206861766520746F20617070726F766520636F6E74726F6C206F662074 PUSH1 0x40 DUP3 ADD MSTORE PUSH5 0x6F6B656E73 PUSH1 0xD8 SHL PUSH1 0x60 DUP3 ADD MSTORE PUSH1 0x80 ADD SWAP1 JUMP JUMPDEST PUSH1 0x0 PUSH1 0x20 DUP3 DUP5 SUB SLT ISZERO PUSH2 0x15C1 JUMPI PUSH1 0x0 DUP1 REVERT JUMPDEST DUP2 MLOAD PUSH2 0x127F DUP2 PUSH2 0x1349 JUMP JUMPDEST PUSH4 0x4E487B71 PUSH1 0xE0 SHL PUSH1 0x0 MSTORE PUSH1 0x32 PUSH1 0x4 MSTORE PUSH1 0x24 PUSH1 0x0 REVERT JUMPDEST PUSH4 0x4E487B71 PUSH1 0xE0 SHL PUSH1 0x0 MSTORE PUSH1 0x11 PUSH1 0x4 MSTORE PUSH1 0x24 PUSH1 0x0 REVERT JUMPDEST DUP1 DUP3 MUL DUP2 ISZERO DUP3 DUP3 DIV DUP5 EQ OR PUSH2 0x160F JUMPI PUSH2 0x160F PUSH2 0x15E2 JUMP JUMPDEST SWAP3 SWAP2 POP POP JUMP JUMPDEST DUP1 DUP3 ADD DUP1 DUP3 GT ISZERO PUSH2 0x160F JUMPI PUSH2 0x160F PUSH2 0x15E2 JUMP JUMPDEST PUSH1 0x0 PUSH1 0x1 DUP3 ADD PUSH2 0x163A JUMPI PUSH2 0x163A PUSH2 0x15E2 JUMP JUMPDEST POP PUSH1 0x1 ADD SWAP1 JUMP JUMPDEST PUSH1 0x1 DUP2 DUP2 SHR SWAP1 DUP3 AND DUP1 PUSH2 0x1655 JUMPI PUSH1 0x7F DUP3 AND SWAP2 POP JUMPDEST PUSH1 0x20 DUP3 LT DUP2 SUB PUSH2 0x1675 JUMPI PUSH4 0x4E487B71 PUSH1 0xE0 SHL PUSH1 0x0 MSTORE PUSH1 0x22 PUSH1 0x4 MSTORE PUSH1 0x24 PUSH1 0x0 REVERT JUMPDEST POP SWAP2 SWAP1 POP JUMP JUMPDEST PUSH1 0x1F DUP3 GT ISZERO PUSH2 0x97E JUMPI PUSH1 0x0 DUP2 DUP2 MSTORE PUSH1 0x20 DUP2 KECCAK256 PUSH1 0x1F DUP6 ADD PUSH1 0x5 SHR DUP2 ADD PUSH1 0x20 DUP7 LT ISZERO PUSH2 0x16A2 JUMPI POP DUP1 JUMPDEST PUSH1 0x1F DUP6 ADD PUSH1 0x5 SHR DUP3 ADD SWAP2 POP JUMPDEST DUP2 DUP2 LT ISZERO PUSH2 0xFE2 JUMPI DUP3 DUP2 SSTORE PUSH1 0x1 ADD PUSH2 0x16AE JUMP JUMPDEST DUP2 MLOAD PUSH8 0xFFFFFFFFFFFFFFFF DUP2 GT ISZERO PUSH2 0x16DB JUMPI PUSH2 0x16DB PUSH2 0x1333 JUMP JUMPDEST PUSH2 0x16EF DUP2 PUSH2 0x16E9 DUP5 SLOAD PUSH2 0x1641 JUMP JUMPDEST DUP5 PUSH2 0x167B JUMP JUMPDEST PUSH1 0x20 DUP1 PUSH1 0x1F DUP4 GT PUSH1 0x1 DUP2 EQ PUSH2 0x1724 JUMPI PUSH1 0x0 DUP5 ISZERO PUSH2 0x170C JUMPI POP DUP6 DUP4 ADD MLOAD JUMPDEST PUSH1 0x0 NOT PUSH1 0x3 DUP7 SWAP1 SHL SHR NOT AND PUSH1 0x1 DUP6 SWAP1 SHL OR DUP6 SSTORE PUSH2 0xFE2 JUMP JUMPDEST PUSH1 0x0 DUP6 DUP2 MSTORE PUSH1 0x20 DUP2 KECCAK256 PUSH1 0x1F NOT DUP7 AND SWAP2 JUMPDEST DUP3 DUP2 LT ISZERO PUSH2 0x1753 JUMPI DUP9 DUP7 ADD MLOAD DUP3 SSTORE SWAP5 DUP5 ADD SWAP5 PUSH1 0x1 SWAP1 SWAP2 ADD SWAP1 DUP5 ADD PUSH2 0x1734 JUMP JUMPDEST POP DUP6 DUP3 LT ISZERO PUSH2 0x1771 JUMPI DUP8 DUP6 ADD MLOAD PUSH1 0x0 NOT PUSH1 0x3 DUP9 SWAP1 SHL PUSH1 0xF8 AND SHR NOT AND DUP2 SSTORE JUMPDEST POP POP POP POP POP PUSH1 0x1 SWAP1 DUP2 SHL ADD SWAP1 SSTORE POP JUMP JUMPDEST PUSH1 0x40 DUP2 MSTORE PUSH1 0x0 PUSH2 0x1794 PUSH1 0x40 DUP4 ADD DUP6 PUSH2 0x1433 JUMP JUMPDEST SWAP1 POP PUSH1 0x1 DUP1 PUSH1 0xA0 SHL SUB DUP4 AND PUSH1 0x20 DUP4 ADD MSTORE SWAP4 SWAP3 POP POP POP JUMP JUMPDEST PUSH1 0x40 DUP2 MSTORE PUSH1 0x0 PUSH2 0x17BE PUSH1 0x40 DUP4 ADD DUP6 PUSH2 0x1433 JUMP JUMPDEST SWAP1 POP DUP3 PUSH1 0x20 DUP4 ADD MSTORE SWAP4 SWAP3 POP POP POP JUMP JUMPDEST PUSH1 0x20 DUP2 MSTORE PUSH1 0x0 PUSH2 0x127F PUSH1 0x20 DUP4 ADD DUP5 PUSH2 0x1433 JUMP INVALID PUSH1 0x80 PUSH1 0x40 MSTORE PUSH1 0x0 DUP1 SSTORE CALLVALUE DUP1 ISZERO PUSH2 0x14 JUMPI PUSH1 0x0 DUP1 REVERT JUMPDEST POP PUSH2 0x189 DUP1 PUSH2 0x24 PUSH1 0x0 CODECOPY PUSH1 0x0 RETURN INVALID PUSH1 0x80 PUSH1 0x40 MSTORE CALLVALUE DUP1 ISZERO PUSH2 0x10 JUMPI PUSH1 0x0 DUP1 REVERT JUMPDEST POP PUSH1 0x4 CALLDATASIZE LT PUSH2 0x2B JUMPI PUSH1 0x0 CALLDATALOAD PUSH1 0xE0 SHR DUP1 PUSH4 0xC6CB1401 EQ PUSH2 0x30 JUMPI JUMPDEST PUSH1 0x0 DUP1 REVERT JUMPDEST PUSH2 0x43 PUSH2 0x3E CALLDATASIZE PUSH1 0x4 PUSH2 0xF1 JUMP JUMPDEST PUSH2 0x62 JUMP JUMPDEST PUSH1 0x40 DUP1 MLOAD SWAP4 DUP5 MSTORE PUSH1 0x20 DUP5 ADD SWAP3 SWAP1 SWAP3 MSTORE SWAP1 DUP3 ADD MSTORE PUSH1 0x60 ADD PUSH1 0x40 MLOAD DUP1 SWAP2 SUB SWAP1 RETURN JUMPDEST PUSH1 0x0 DUP1 PUSH1 0x0 DUP1 PUSH2 0x71 DUP6 PUSH2 0x80 JUMP JUMPDEST SWAP6 PUSH1 0x2 SWAP6 POP PUSH1 0x3 SWAP5 POP SWAP3 POP POP POP JUMP JUMPDEST PUSH1 0x0 DUP1 SLOAD DUP2 DUP1 PUSH2 0x8F DUP4 PUSH2 0x10A JUMP JUMPDEST SWAP1 SWAP2 SSTORE POP POP PUSH1 0x0 SLOAD PUSH1 0x40 DUP1 MLOAD TIMESTAMP PUSH1 0x20 DUP3 ADD MSTORE PUSH12 0xFFFFFFFFFFFFFFFFFFFFFFFF NOT CALLER PUSH1 0x60 SHL AND SWAP2 DUP2 ADD SWAP2 SWAP1 SWAP2 MSTORE PUSH1 0x54 DUP2 ADD SWAP2 SWAP1 SWAP2 MSTORE DUP3 SWAP1 PUSH1 0x74 ADD PUSH1 0x40 MLOAD PUSH1 0x20 DUP2 DUP4 SUB SUB DUP2 MSTORE SWAP1 PUSH1 0x40 MSTORE DUP1 MLOAD SWAP1 PUSH1 0x20 ADD KECCAK256 PUSH1 0x0 SHR PUSH2 0xEB SWAP2 SWAP1 PUSH2 0x131 JUMP JUMPDEST SWAP3 SWAP2 POP POP JUMP JUMPDEST PUSH1 0x0 PUSH1 0x20 DUP3 DUP5 SUB SLT ISZERO PUSH2 0x103 JUMPI PUSH1 0x0 DUP1 REVERT JUMPDEST POP CALLDATALOAD SWAP2 SWAP1 POP JUMP JUMPDEST PUSH1 0x0 PUSH1 0x1 DUP3 ADD PUSH2 0x12A JUMPI PUSH4 0x4E487B71 PUSH1 0xE0 SHL PUSH1 0x0 MSTORE PUSH1 0x11 PUSH1 0x4 MSTORE PUSH1 0x24 PUSH1 0x0 REVERT JUMPDEST POP PUSH1 0x1 ADD SWAP1 JUMP JUMPDEST PUSH1 0x0 DUP3 PUSH2 0x14E JUMPI PUSH4 0x4E487B71 PUSH1 0xE0 SHL PUSH1 0x0 MSTORE PUSH1 0x12 PUSH1 0x4 MSTORE PUSH1 0x24 PUSH1 0x0 REVERT JUMPDEST POP MOD SWAP1 JUMP INVALID LOG2 PUSH5 0x6970667358 0x22 SLT KECCAK256 PUSH26 0xC7874A8F229D6FAC58E9B4602F20E8B3B581189CE1B500C83AB1 0xE DUP13 0xF7 PUSH18 0x3564736F6C63430008120033A26469706673 PC 0x22 SLT KECCAK256 SWAP6 0xC3 DUP13 DELEGATECALL XOR DUP9 RETURNDATACOPY POP 0xC7 PUSH27 0x8ABCA745D8A55E19CBDDF583EDD3F500080B7C0B3A8964736F6C63 NUMBER STOP ADDMOD SLT STOP CALLER "
		},
		"gasEstimates": {
			"creation": {
				"codeDepositCost": "1319000",
				"executionCost": "infinite",
				"totalCost": "infinite"
			},
			"external": {
				"HORSES()": "infinite",
				"Loot(address)": "2554",
				"accept(uint256,address)": "infinite",
				"acceptEther(uint256,address)": "363",
				"approveSpending(uint256)": "infinite",
				"currentRace()": "infinite",
				"findPos(uint256)": "6722",
				"horseBettor(uint256,uint256)": "4793",
				"myOwner()": "2447",
				"raceExecution()": "infinite",
				"registerUser(uint256,uint256,uint256)": "infinite",
				"returnToken(address)": "infinite",
				"startRace(string,bool,uint256,uint256)": "infinite",
				"tokenAddress()": "2382",
				"totalAmount()": "2308",
				"totalUsers(uint256)": "4703",
				"userBet(address,uint256)": "9161"
			}
		},
		"methodIdentifiers": {
			"HORSES()": "5a8bd215",
			"Loot(address)": "1d637f42",
			"accept(uint256,address)": "50ace9c2",
			"acceptEther(uint256,address)": "9fda96db",
			"approveSpending(uint256)": "95f8c33d",
			"currentRace()": "c4fc3b2e",
			"findPos(uint256)": "6c23f9c8",
			"horseBettor(uint256,uint256)": "debd24bd",
			"myOwner()": "f5c0753c",
			"raceExecution()": "4fd5e96d",
			"registerUser(uint256,uint256,uint256)": "cde0acc2",
			"returnToken(address)": "924806a0",
			"startRace(string,bool,uint256,uint256)": "bf79b873",
			"tokenAddress()": "9d76ea58",
			"totalAmount()": "1a39d8ef",
			"totalUsers(uint256)": "a4f67b8b",
			"userBet(address,uint256)": "4195ab8e"
		}
	},
	"abi": [
		{
			"inputs": [],
			"name": "HORSES",
			"outputs": [
				{
					"internalType": "uint256",
					"name": "",
					"type": "uint256"
				}
			],
			"stateMutability": "view",
			"type": "function"
		},
		{
			"inputs": [
				{
					"internalType": "address",
					"name": "",
					"type": "address"
				}
			],
			"name": "Loot",
			"outputs": [
				{
					"internalType": "uint256",
					"name": "",
					"type": "uint256"
				}
			],
			"stateMutability": "view",
			"type": "function"
		},
		{
			"inputs": [
				{
					"internalType": "uint256",
					"name": "amount",
					"type": "uint256"
				},
				{
					"internalType": "address",
					"name": "_token",
					"type": "address"
				}
			],
			"name": "accept",
			"outputs": [],
			"stateMutability": "nonpayable",
			"type": "function"
		},
		{
			"inputs": [
				{
					"internalType": "uint256",
					"name": "amount",
					"type": "uint256"
				},
				{
					"internalType": "address",
					"name": "_token",
					"type": "address"
				}
			],
			"name": "acceptEther",
			"outputs": [],
			"stateMutability": "payable",
			"type": "function"
		},
		{
			"inputs": [
				{
					"internalType": "uint256",
					"name": "_amount",
					"type": "uint256"
				}
			],
			"name": "approveSpending",
			"outputs": [],
			"stateMutability": "nonpayable",
			"type": "function"
		},
		{
			"inputs": [],
			"name": "currentRace",
			"outputs": [
				{
					"internalType": "string",
					"name": "name",
					"type": "string"
				},
				{
					"internalType": "enum Main.RACE_TYPE",
					"name": "raceType",
					"type": "uint8"
				},
				{
					"internalType": "uint256",
					"name": "startTime",
					"type": "uint256"
				},
				{
					"internalType": "uint256",
					"name": "raceId",
					"type": "uint256"
				},
				{
					"internalType": "uint256",
					"name": "locationId",
					"type": "uint256"
				},
				{
					"internalType": "uint256",
					"name": "first",
					"type": "uint256"
				},
				{
					"internalType": "uint256",
					"name": "runner",
					"type": "uint256"
				},
				{
					"internalType": "uint256",
					"name": "third",
					"type": "uint256"
				}
			],
			"stateMutability": "view",
			"type": "function"
		},
		{
			"inputs": [
				{
					"internalType": "uint256",
					"name": "h",
					"type": "uint256"
				}
			],
			"name": "findPos",
			"outputs": [
				{
					"internalType": "uint256",
					"name": "",
					"type": "uint256"
				}
			],
			"stateMutability": "view",
			"type": "function"
		},
		{
			"inputs": [
				{
					"internalType": "uint256",
					"name": "",
					"type": "uint256"
				},
				{
					"internalType": "uint256",
					"name": "",
					"type": "uint256"
				}
			],
			"name": "horseBettor",
			"outputs": [
				{
					"internalType": "address",
					"name": "",
					"type": "address"
				}
			],
			"stateMutability": "view",
			"type": "function"
		},
		{
			"inputs": [],
			"name": "myOwner",
			"outputs": [
				{
					"internalType": "address",
					"name": "",
					"type": "address"
				}
			],
			"stateMutability": "view",
			"type": "function"
		},
		{
			"inputs": [],
			"name": "raceExecution",
			"outputs": [],
			"stateMutability": "nonpayable",
			"type": "function"
		},
		{
			"inputs": [
				{
					"internalType": "uint256",
					"name": "_betAmount",
					"type": "uint256"
				},
				{
					"internalType": "uint256",
					"name": "_horse",
					"type": "uint256"
				},
				{
					"internalType": "uint256",
					"name": "_betType",
					"type": "uint256"
				}
			],
			"name": "registerUser",
			"outputs": [],
			"stateMutability": "payable",
			"type": "function"
		},
		{
			"inputs": [
				{
					"internalType": "address",
					"name": "user",
					"type": "address"
				}
			],
			"name": "returnToken",
			"outputs": [],
			"stateMutability": "payable",
			"type": "function"
		},
		{
			"inputs": [
				{
					"internalType": "string",
					"name": "raceName",
					"type": "string"
				},
				{
					"internalType": "bool",
					"name": "raceType",
					"type": "bool"
				},
				{
					"internalType": "uint256",
					"name": "numberofHorses",
					"type": "uint256"
				},
				{
					"internalType": "uint256",
					"name": "begin",
					"type": "uint256"
				}
			],
			"name": "startRace",
			"outputs": [],
			"stateMutability": "payable",
			"type": "function"
		},
		{
			"inputs": [],
			"name": "tokenAddress",
			"outputs": [
				{
					"internalType": "address",
					"name": "",
					"type": "address"
				}
			],
			"stateMutability": "view",
			"type": "function"
		},
		{
			"inputs": [],
			"name": "totalAmount",
			"outputs": [
				{
					"internalType": "uint256",
					"name": "",
					"type": "uint256"
				}
			],
			"stateMutability": "view",
			"type": "function"
		},
		{
			"inputs": [
				{
					"internalType": "uint256",
					"name": "",
					"type": "uint256"
				}
			],
			"name": "totalUsers",
			"outputs": [
				{
					"internalType": "address",
					"name": "",
					"type": "address"
				}
			],
			"stateMutability": "view",
			"type": "function"
		},
		{
			"inputs": [
				{
					"internalType": "address",
					"name": "",
					"type": "address"
				},
				{
					"internalType": "uint256",
					"name": "",
					"type": "uint256"
				}
			],
			"name": "userBet",
			"outputs": [
				{
					"internalType": "enum Main.BET_TYPE",
					"name": "betType",
					"type": "uint8"
				},
				{
					"internalType": "uint256",
					"name": "amount",
					"type": "uint256"
				},
				{
					"internalType": "uint256",
					"name": "horseNum",
					"type": "uint256"
				}
			],
			"stateMutability": "view",
			"type": "function"
		}
	]
}