{
	"data": {
		"bytecode": {
			"linkReferences": {},
			"object": "60a0604052600180546001600160a01b03199081167386c3259c19f69d64634d0d7297b52cf299cab74d1790915560028054909116735b38da6a701c568545dcfcb03fcb875f56beddc4179055600560805234801561005d57600080fd5b506100673361006c565b6100bc565b600080546001600160a01b038381166001600160a01b0319831681178455604051919092169283917f8be0079c531659141344cd1fd0a4f28419497f9722a3daafe3b4186f6b6457e09190a35050565b608051611b676100e5600039600081816101f2015281816104380152610a9c0152611b676000f3fe60806040526004361061011f5760003560e01c806395f8c33d116100a0578063c4fc3b2e11610064578063c4fc3b2e14610313578063cde0acc21461033c578063debd24bd1461034f578063f2fde38b1461036f578063f5c0753c1461038f57600080fd5b806395f8c33d1461028e5780639d76ea58146102ae5780639fda96db146102ce578063a4f67b8b146102e0578063bf79b8731461030057600080fd5b80635a8bd215116100e75780635a8bd215146101e05780636c23f9c814610214578063715018a6146102345780638da5cb5b14610249578063924806a01461027b57600080fd5b80631a39d8ef146101245780631d637f421461014d5780634195ab8e1461017a5780634fd5e96d146101a957806350ace9c2146101c0575b600080fd5b34801561013057600080fd5b5061013a60065481565b6040519081526020015b60405180910390f35b34801561015957600080fd5b5061013a610168366004611408565b600f6020526000908152604090205481565b34801561018657600080fd5b5061019a61019536600461142a565b6103af565b6040516101449392919061146a565b3480156101b557600080fd5b506101be6103f5565b005b3480156101cc57600080fd5b506101be6101db366004611492565b6104ca565b3480156101ec57600080fd5b5061013a7f000000000000000000000000000000000000000000000000000000000000000081565b34801561022057600080fd5b5061013a61022f3660046114be565b6105e0565b34801561024057600080fd5b506101be61061e565b34801561025557600080fd5b506000546001600160a01b03165b6040516001600160a01b039091168152602001610144565b6101be610289366004611408565b610632565b34801561029a57600080fd5b506101be6102a93660046114be565b61098d565b3480156102ba57600080fd5b50600154610263906001600160a01b031681565b6101be6102dc366004611492565b5050565b3480156102ec57600080fd5b506102636102fb3660046114be565b610a09565b6101be61030e366004611506565b610a33565b34801561031f57600080fd5b50610328610bf3565b60405161014498979695949392919061161d565b6101be61034a366004611679565b610cb5565b34801561035b57600080fd5b5061026361036a3660046116a5565b61106e565b34801561037b57600080fd5b506101be61038a366004611408565b6110a6565b34801561039b57600080fd5b50600254610263906001600160a01b031681565b600360205281600052604060002081815481106103cb57600080fd5b600091825260209091206003909102018054600182015460029092015460ff909116935090915083565b6000604051610403906112ff565b604051809103906000f08015801561041f573d6000803e3d6000fd5b5090506000806000836001600160a01b031663c6cb14017f00000000000000000000000000000000000000000000000000000000000000006040518263ffffffff1660e01b815260040161047591815260200190565b6060604051808303816000875af1158015610494573d6000803e3d6000fd5b505050506040513d601f19601f820116820180604052508101906104b891906116c7565b600c92909255600d55600e5550505050565b604051636eb1769f60e11b8152336004820152306024820152819083906001600160a01b0383169063dd62ed3e90604401602060405180830381865afa158015610518573d6000803e3d6000fd5b505050506040513d601f19601f8201168201806040525081019061053c91906116f5565b10156105635760405162461bcd60e51b815260040161055a9061170e565b60405180910390fd5b6040516323b872dd60e01b8152336004820152306024820152604481018490526001600160a01b038216906323b872dd906064016020604051808303816000875af11580156105b6573d6000803e3d6000fd5b505050506040513d601f19601f820116820180604052508101906105da9190611753565b50505050565b600c5460009082036105f457506001919050565b600d54820361060557506002919050565b600e54820361061657506003919050565b506000919050565b61062661111f565b6106306000611179565b565b6001546001600160a01b038281166000908152600360209081526040808320805482518185028101850190935280835294909516949293909291849084015b828210156106e4576000848152602090206040805160608101909152600384029091018054829060ff1660028111156106ac576106ac611454565b60028111156106bd576106bd611454565b81526020016001820154815260200160028201548152505081526020019060010190610671565b50505050905060008060005b835181101561080757600084828151811061070d5761070d611770565b6020026020010151905061072481604001516105e0565b925060008151600281111561073b5761073b611454565b1480156107485750826001145b1561076a57602081015161075d90600661179c565b61076790856117b9565b93505b60018151600281111561077f5761077f611454565b14801561078d575060028311155b156107af5760208101516107a290600461179c565b6107ac90856117b9565b93505b6002815160028111156107c4576107c4611454565b1480156107d2575060038311155b156107f45760208101516107e790600261179c565b6107f190856117b9565b93505b50806107ff816117cc565b9150506106f0565b506002546040516323b872dd60e01b81526001600160a01b039182166004820152868216602482015260448101849052908516906323b872dd906064016020604051808303816000875af1158015610863573d6000803e3d6000fd5b505050506040513d601f19601f820116820180604052508101906108879190611753565b50604080518082019091526009815268029b2b73232b9101d160bd1b60208201526002546108be91906001600160a01b03166111c9565b6108f06040518060400160405280601081526020016f02932b1b2b4bb32b9103a3434b9901d160851b815250866111c9565b604080518082018252600b81526a42616c616e63653a20257360a81b602082015290516370a0823160e01b81526001600160a01b0387811660048301526109869291908716906370a08231906024015b602060405180830381865afa15801561095d573d6000803e3d6000fd5b505050506040513d601f19601f8201168201806040525081019061098191906116f5565b61120e565b5050505050565b60015460405163095ea7b360e01b8152306004820152602481018390526001600160a01b0390911690819063095ea7b3906044016020604051808303816000875af11580156109e0573d6000803e3d6000fd5b505050506040513d601f19601f82011682018060405250810190610a049190611753565b505050565b60058181548110610a1957600080fd5b6000918252602090912001546001600160a01b0316905081565b60005b600554811015610a96576003600060058381548110610a5757610a57611770565b60009182526020808320909101546001600160a01b031683528201929092526040018120610a849161130c565b80610a8e816117cc565b915050610a36565b5060005b7f0000000000000000000000000000000000000000000000000000000000000000811015610aeb576000818152600460205260408120610ad99161132d565b80610ae3816117cc565b915050610a9a565b506040805160008152602081019182905251610b099160059161134b565b5060006006819055604080516101008101825286815260208101929092528101610b35426102586117b9565b815260016020820181905260408201526000606082018190526080820181905260a09091015280516007908190610b6c9082611865565b50602082015160018083018054909160ff19909116908381811115610b9357610b93611454565b021790555060408201516002820155606082015160038201556080820151600482015560a0820151600582015560c0820151600682015560e0909101516007909101558215156001036105da5750506008805460ff191660011790555050565b600780548190610c02906117e5565b80601f0160208091040260200160405190810160405280929190818152602001828054610c2e906117e5565b8015610c7b5780601f10610c5057610100808354040283529160200191610c7b565b820191906000526020600020905b815481529060010190602001808311610c5e57829003601f168201915b50505050600183015460028401546003850154600486015460058701546006880154600790980154969760ff909516969395509193909288565b60015460408051808201909152600f81526e2132b337b932903a3930b739b332b960891b60208201526001600160a01b0390911690610cf390611253565b604051636eb1769f60e11b815233600482015230602482015284906001600160a01b0383169063dd62ed3e90604401602060405180830381865afa158015610d3f573d6000803e3d6000fd5b505050506040513d601f19601f82011682018060405250810190610d6391906116f5565b1015610d815760405162461bcd60e51b815260040161055a9061170e565b610db06040518060400160405280600e81526020016d14995c5d5a5c99481c185cdcd95960921b815250611253565b6002546040516323b872dd60e01b81523360048201526001600160a01b03918216602482015260448101869052908216906323b872dd906064016020604051808303816000875af1158015610e09573d6000803e3d6000fd5b505050506040513d601f19601f82011682018060405250810190610e2d9190611753565b50610e5d6040518060400160405280600e81526020016d20b33a32b9103a3930b739b332b960911b815250611253565b610e6633611296565b60026001839003610e7957506000610e85565b82600203610e85575060015b60006040518060600160405280836002811115610ea457610ea4611454565b815260208082018990526040918201889052336000908152600380835292812080546001818101835591835292909120845192909302909201805493945084939092839160ff191690836002811115610eff57610eff611454565b0217905550602082015181600101556040820151816002015550508560066000828254610f2c91906117b9565b90915550506005805460018082019092557f036b6384b5eca791c62761152d0c79bb0604c104a5fb6f4eb0703f3154bb3db0018054336001600160a01b03199182168117909255600088815260046020818152604080842080549788018155845292819020909501805490931690931790915580518082018252601b81527f42616c616e63652061646472657373206d794f776e65723a20257300000000009381019390935260025490516370a0823160e01b81526001600160a01b039182169281019290925261100a9291908616906370a0823190602401610940565b604080518082018252601681527542616c616e6365206d73672073656e6465723a20257360501b602082015290516370a0823160e01b815233600482015261106691906001600160a01b038616906370a0823190602401610940565b505050505050565b6004602052816000526040600020818154811061108a57600080fd5b6000918252602090912001546001600160a01b03169150829050565b6110ae61111f565b6001600160a01b0381166111135760405162461bcd60e51b815260206004820152602660248201527f4f776e61626c653a206e6577206f776e657220697320746865207a65726f206160448201526564647265737360d01b606482015260840161055a565b61111c81611179565b50565b6000546001600160a01b031633146106305760405162461bcd60e51b815260206004820181905260248201527f4f776e61626c653a2063616c6c6572206973206e6f7420746865206f776e6572604482015260640161055a565b600080546001600160a01b038381166001600160a01b0319831681178455604051919092169283917f8be0079c531659141344cd1fd0a4f28419497f9722a3daafe3b4186f6b6457e09190a35050565b6102dc82826040516024016111df929190611925565b60408051601f198184030181529190526020810180516001600160e01b031663319af33360e01b1790526112da565b6102dc828260405160240161122492919061194f565b60408051601f198184030181529190526020810180516001600160e01b0316632d839cb360e21b1790526112da565b61111c816040516024016112679190611971565b60408051601f198184030181529190526020810180516001600160e01b031663104c13eb60e21b1790526112da565b6040516001600160a01b038216602482015261111c9060440160408051601f198184030181529190526020810180516001600160e01b031663161765e160e11b1790525b61111c8160006a636f6e736f6c652e6c6f679050600080835160208501845afa505050565b6101ad8061198583390190565b508054600082556003029060005260206000209081019061111c91906113b0565b508054600082559060005260206000209081019061111c91906113d7565b8280548282559060005260206000209081019282156113a0579160200282015b828111156113a057825182546001600160a01b0319166001600160a01b0390911617825560209092019160019091019061136b565b506113ac9291506113d7565b5090565b5b808211156113ac57805460ff1916815560006001820181905560028201556003016113b1565b5b808211156113ac57600081556001016113d8565b80356001600160a01b038116811461140357600080fd5b919050565b60006020828403121561141a57600080fd5b611423826113ec565b9392505050565b6000806040838503121561143d57600080fd5b611446836113ec565b946020939093013593505050565b634e487b7160e01b600052602160045260246000fd5b606081016003851061147e5761147e611454565b938152602081019290925260409091015290565b600080604083850312156114a557600080fd5b823591506114b5602084016113ec565b90509250929050565b6000602082840312156114d057600080fd5b5035919050565b634e487b7160e01b600052604160045260246000fd5b801515811461111c57600080fd5b8035611403816114ed565b6000806000806080858703121561151c57600080fd5b843567ffffffffffffffff8082111561153457600080fd5b818701915087601f83011261154857600080fd5b81358181111561155a5761155a6114d7565b604051601f8201601f19908116603f01168101908382118183101715611582576115826114d7565b816040528281528a602084870101111561159b57600080fd5b8260208601602083013760006020848301015280985050505050506115c2602086016114fb565b93969395505050506040820135916060013590565b6000815180845260005b818110156115fd576020818501810151868301820152016115e1565b506000602082860101526020601f19601f83011685010191505092915050565b60006101008083526116318184018c6115d7565b9150506002891061164457611644611454565b602082019890985260408101969096526060860194909452608085019290925260a084015260c083015260e090910152919050565b60008060006060848603121561168e57600080fd5b505081359360208301359350604090920135919050565b600080604083850312156116b857600080fd5b50508035926020909101359150565b6000806000606084860312156116dc57600080fd5b8351925060208401519150604084015190509250925092565b60006020828403121561170757600080fd5b5051919050565b60208082526025908201527f796f75206861766520746f20617070726f766520636f6e74726f6c206f6620746040820152646f6b656e7360d81b606082015260800190565b60006020828403121561176557600080fd5b8151611423816114ed565b634e487b7160e01b600052603260045260246000fd5b634e487b7160e01b600052601160045260246000fd5b80820281158282048414176117b3576117b3611786565b92915050565b808201808211156117b3576117b3611786565b6000600182016117de576117de611786565b5060010190565b600181811c908216806117f957607f821691505b60208210810361181957634e487b7160e01b600052602260045260246000fd5b50919050565b601f821115610a0457600081815260208120601f850160051c810160208610156118465750805b601f850160051c820191505b8181101561106657828155600101611852565b815167ffffffffffffffff81111561187f5761187f6114d7565b6118938161188d84546117e5565b8461181f565b602080601f8311600181146118c857600084156118b05750858301515b600019600386901b1c1916600185901b178555611066565b600085815260208120601f198616915b828110156118f7578886015182559484019460019091019084016118d8565b50858210156119155787850151600019600388901b60f8161c191681555b5050505050600190811b01905550565b60408152600061193860408301856115d7565b905060018060a01b03831660208301529392505050565b60408152600061196260408301856115d7565b90508260208301529392505050565b60208152600061142360208301846115d756fe60806040526000805534801561001457600080fd5b50610189806100246000396000f3fe608060405234801561001057600080fd5b506004361061002b5760003560e01c8063c6cb140114610030575b600080fd5b61004361003e3660046100f1565b610062565b6040805193845260208401929092529082015260600160405180910390f35b60008060008061007185610080565b95600295506003945092505050565b60008054818061008f8361010a565b9091555050600054604080514260208201526bffffffffffffffffffffffff193360601b1691810191909152605481019190915282906074016040516020818303038152906040528051906020012060001c6100eb9190610131565b92915050565b60006020828403121561010357600080fd5b5035919050565b60006001820161012a57634e487b7160e01b600052601160045260246000fd5b5060010190565b60008261014e57634e487b7160e01b600052601260045260246000fd5b50069056fea26469706673582212202eb898e5b20e4726be00cd57d3a82df269887dd4bbbd0f72955753d6fb19e16b64736f6c63430008120033a2646970667358221220c8e748e404d2cd753ad6c37219b65e744a926f1d429c3aa6a1d2ab4344b340ca64736f6c63430008120033",
			"opcodes": "PUSH1 0xA0 PUSH1 0x40 MSTORE PUSH1 0x1 DUP1 SLOAD PUSH1 0x1 PUSH1 0x1 PUSH1 0xA0 SHL SUB NOT SWAP1 DUP2 AND PUSH20 0x86C3259C19F69D64634D0D7297B52CF299CAB74D OR SWAP1 SWAP2 SSTORE PUSH1 0x2 DUP1 SLOAD SWAP1 SWAP2 AND PUSH20 0x5B38DA6A701C568545DCFCB03FCB875F56BEDDC4 OR SWAP1 SSTORE PUSH1 0x5 PUSH1 0x80 MSTORE CALLVALUE DUP1 ISZERO PUSH2 0x5D JUMPI PUSH1 0x0 DUP1 REVERT JUMPDEST POP PUSH2 0x67 CALLER PUSH2 0x6C JUMP JUMPDEST PUSH2 0xBC JUMP JUMPDEST PUSH1 0x0 DUP1 SLOAD PUSH1 0x1 PUSH1 0x1 PUSH1 0xA0 SHL SUB DUP4 DUP2 AND PUSH1 0x1 PUSH1 0x1 PUSH1 0xA0 SHL SUB NOT DUP4 AND DUP2 OR DUP5 SSTORE PUSH1 0x40 MLOAD SWAP2 SWAP1 SWAP3 AND SWAP3 DUP4 SWAP2 PUSH32 0x8BE0079C531659141344CD1FD0A4F28419497F9722A3DAAFE3B4186F6B6457E0 SWAP2 SWAP1 LOG3 POP POP JUMP JUMPDEST PUSH1 0x80 MLOAD PUSH2 0x1B67 PUSH2 0xE5 PUSH1 0x0 CODECOPY PUSH1 0x0 DUP2 DUP2 PUSH2 0x1F2 ADD MSTORE DUP2 DUP2 PUSH2 0x438 ADD MSTORE PUSH2 0xA9C ADD MSTORE PUSH2 0x1B67 PUSH1 0x0 RETURN INVALID PUSH1 0x80 PUSH1 0x40 MSTORE PUSH1 0x4 CALLDATASIZE LT PUSH2 0x11F JUMPI PUSH1 0x0 CALLDATALOAD PUSH1 0xE0 SHR DUP1 PUSH4 0x95F8C33D GT PUSH2 0xA0 JUMPI DUP1 PUSH4 0xC4FC3B2E GT PUSH2 0x64 JUMPI DUP1 PUSH4 0xC4FC3B2E EQ PUSH2 0x313 JUMPI DUP1 PUSH4 0xCDE0ACC2 EQ PUSH2 0x33C JUMPI DUP1 PUSH4 0xDEBD24BD EQ PUSH2 0x34F JUMPI DUP1 PUSH4 0xF2FDE38B EQ PUSH2 0x36F JUMPI DUP1 PUSH4 0xF5C0753C EQ PUSH2 0x38F JUMPI PUSH1 0x0 DUP1 REVERT JUMPDEST DUP1 PUSH4 0x95F8C33D EQ PUSH2 0x28E JUMPI DUP1 PUSH4 0x9D76EA58 EQ PUSH2 0x2AE JUMPI DUP1 PUSH4 0x9FDA96DB EQ PUSH2 0x2CE JUMPI DUP1 PUSH4 0xA4F67B8B EQ PUSH2 0x2E0 JUMPI DUP1 PUSH4 0xBF79B873 EQ PUSH2 0x300 JUMPI PUSH1 0x0 DUP1 REVERT JUMPDEST DUP1 PUSH4 0x5A8BD215 GT PUSH2 0xE7 JUMPI DUP1 PUSH4 0x5A8BD215 EQ PUSH2 0x1E0 JUMPI DUP1 PUSH4 0x6C23F9C8 EQ PUSH2 0x214 JUMPI DUP1 PUSH4 0x715018A6 EQ PUSH2 0x234 JUMPI DUP1 PUSH4 0x8DA5CB5B EQ PUSH2 0x249 JUMPI DUP1 PUSH4 0x924806A0 EQ PUSH2 0x27B JUMPI PUSH1 0x0 DUP1 REVERT JUMPDEST DUP1 PUSH4 0x1A39D8EF EQ PUSH2 0x124 JUMPI DUP1 PUSH4 0x1D637F42 EQ PUSH2 0x14D JUMPI DUP1 PUSH4 0x4195AB8E EQ PUSH2 0x17A JUMPI DUP1 PUSH4 0x4FD5E96D EQ PUSH2 0x1A9 JUMPI DUP1 PUSH4 0x50ACE9C2 EQ PUSH2 0x1C0 JUMPI JUMPDEST PUSH1 0x0 DUP1 REVERT JUMPDEST CALLVALUE DUP1 ISZERO PUSH2 0x130 JUMPI PUSH1 0x0 DUP1 REVERT JUMPDEST POP PUSH2 0x13A PUSH1 0x6 SLOAD DUP2 JUMP JUMPDEST PUSH1 0x40 MLOAD SWAP1 DUP2 MSTORE PUSH1 0x20 ADD JUMPDEST PUSH1 0x40 MLOAD DUP1 SWAP2 SUB SWAP1 RETURN JUMPDEST CALLVALUE DUP1 ISZERO PUSH2 0x159 JUMPI PUSH1 0x0 DUP1 REVERT JUMPDEST POP PUSH2 0x13A PUSH2 0x168 CALLDATASIZE PUSH1 0x4 PUSH2 0x1408 JUMP JUMPDEST PUSH1 0xF PUSH1 0x20 MSTORE PUSH1 0x0 SWAP1 DUP2 MSTORE PUSH1 0x40 SWAP1 KECCAK256 SLOAD DUP2 JUMP JUMPDEST CALLVALUE DUP1 ISZERO PUSH2 0x186 JUMPI PUSH1 0x0 DUP1 REVERT JUMPDEST POP PUSH2 0x19A PUSH2 0x195 CALLDATASIZE PUSH1 0x4 PUSH2 0x142A JUMP JUMPDEST PUSH2 0x3AF JUMP JUMPDEST PUSH1 0x40 MLOAD PUSH2 0x144 SWAP4 SWAP3 SWAP2 SWAP1 PUSH2 0x146A JUMP JUMPDEST CALLVALUE DUP1 ISZERO PUSH2 0x1B5 JUMPI PUSH1 0x0 DUP1 REVERT JUMPDEST POP PUSH2 0x1BE PUSH2 0x3F5 JUMP JUMPDEST STOP JUMPDEST CALLVALUE DUP1 ISZERO PUSH2 0x1CC JUMPI PUSH1 0x0 DUP1 REVERT JUMPDEST POP PUSH2 0x1BE PUSH2 0x1DB CALLDATASIZE PUSH1 0x4 PUSH2 0x1492 JUMP JUMPDEST PUSH2 0x4CA JUMP JUMPDEST CALLVALUE DUP1 ISZERO PUSH2 0x1EC JUMPI PUSH1 0x0 DUP1 REVERT JUMPDEST POP PUSH2 0x13A PUSH32 0x0 DUP2 JUMP JUMPDEST CALLVALUE DUP1 ISZERO PUSH2 0x220 JUMPI PUSH1 0x0 DUP1 REVERT JUMPDEST POP PUSH2 0x13A PUSH2 0x22F CALLDATASIZE PUSH1 0x4 PUSH2 0x14BE JUMP JUMPDEST PUSH2 0x5E0 JUMP JUMPDEST CALLVALUE DUP1 ISZERO PUSH2 0x240 JUMPI PUSH1 0x0 DUP1 REVERT JUMPDEST POP PUSH2 0x1BE PUSH2 0x61E JUMP JUMPDEST CALLVALUE DUP1 ISZERO PUSH2 0x255 JUMPI PUSH1 0x0 DUP1 REVERT JUMPDEST POP PUSH1 0x0 SLOAD PUSH1 0x1 PUSH1 0x1 PUSH1 0xA0 SHL SUB AND JUMPDEST PUSH1 0x40 MLOAD PUSH1 0x1 PUSH1 0x1 PUSH1 0xA0 SHL SUB SWAP1 SWAP2 AND DUP2 MSTORE PUSH1 0x20 ADD PUSH2 0x144 JUMP JUMPDEST PUSH2 0x1BE PUSH2 0x289 CALLDATASIZE PUSH1 0x4 PUSH2 0x1408 JUMP JUMPDEST PUSH2 0x632 JUMP JUMPDEST CALLVALUE DUP1 ISZERO PUSH2 0x29A JUMPI PUSH1 0x0 DUP1 REVERT JUMPDEST POP PUSH2 0x1BE PUSH2 0x2A9 CALLDATASIZE PUSH1 0x4 PUSH2 0x14BE JUMP JUMPDEST PUSH2 0x98D JUMP JUMPDEST CALLVALUE DUP1 ISZERO PUSH2 0x2BA JUMPI PUSH1 0x0 DUP1 REVERT JUMPDEST POP PUSH1 0x1 SLOAD PUSH2 0x263 SWAP1 PUSH1 0x1 PUSH1 0x1 PUSH1 0xA0 SHL SUB AND DUP2 JUMP JUMPDEST PUSH2 0x1BE PUSH2 0x2DC CALLDATASIZE PUSH1 0x4 PUSH2 0x1492 JUMP JUMPDEST POP POP JUMP JUMPDEST CALLVALUE DUP1 ISZERO PUSH2 0x2EC JUMPI PUSH1 0x0 DUP1 REVERT JUMPDEST POP PUSH2 0x263 PUSH2 0x2FB CALLDATASIZE PUSH1 0x4 PUSH2 0x14BE JUMP JUMPDEST PUSH2 0xA09 JUMP JUMPDEST PUSH2 0x1BE PUSH2 0x30E CALLDATASIZE PUSH1 0x4 PUSH2 0x1506 JUMP JUMPDEST PUSH2 0xA33 JUMP JUMPDEST CALLVALUE DUP1 ISZERO PUSH2 0x31F JUMPI PUSH1 0x0 DUP1 REVERT JUMPDEST POP PUSH2 0x328 PUSH2 0xBF3 JUMP JUMPDEST PUSH1 0x40 MLOAD PUSH2 0x144 SWAP9 SWAP8 SWAP7 SWAP6 SWAP5 SWAP4 SWAP3 SWAP2 SWAP1 PUSH2 0x161D JUMP JUMPDEST PUSH2 0x1BE PUSH2 0x34A CALLDATASIZE PUSH1 0x4 PUSH2 0x1679 JUMP JUMPDEST PUSH2 0xCB5 JUMP JUMPDEST CALLVALUE DUP1 ISZERO PUSH2 0x35B JUMPI PUSH1 0x0 DUP1 REVERT JUMPDEST POP PUSH2 0x263 PUSH2 0x36A CALLDATASIZE PUSH1 0x4 PUSH2 0x16A5 JUMP JUMPDEST PUSH2 0x106E JUMP JUMPDEST CALLVALUE DUP1 ISZERO PUSH2 0x37B JUMPI PUSH1 0x0 DUP1 REVERT JUMPDEST POP PUSH2 0x1BE PUSH2 0x38A CALLDATASIZE PUSH1 0x4 PUSH2 0x1408 JUMP JUMPDEST PUSH2 0x10A6 JUMP JUMPDEST CALLVALUE DUP1 ISZERO PUSH2 0x39B JUMPI PUSH1 0x0 DUP1 REVERT JUMPDEST POP PUSH1 0x2 SLOAD PUSH2 0x263 SWAP1 PUSH1 0x1 PUSH1 0x1 PUSH1 0xA0 SHL SUB AND DUP2 JUMP JUMPDEST PUSH1 0x3 PUSH1 0x20 MSTORE DUP2 PUSH1 0x0 MSTORE PUSH1 0x40 PUSH1 0x0 KECCAK256 DUP2 DUP2 SLOAD DUP2 LT PUSH2 0x3CB JUMPI PUSH1 0x0 DUP1 REVERT JUMPDEST PUSH1 0x0 SWAP2 DUP3 MSTORE PUSH1 0x20 SWAP1 SWAP2 KECCAK256 PUSH1 0x3 SWAP1 SWAP2 MUL ADD DUP1 SLOAD PUSH1 0x1 DUP3 ADD SLOAD PUSH1 0x2 SWAP1 SWAP3 ADD SLOAD PUSH1 0xFF SWAP1 SWAP2 AND SWAP4 POP SWAP1 SWAP2 POP DUP4 JUMP JUMPDEST PUSH1 0x0 PUSH1 0x40 MLOAD PUSH2 0x403 SWAP1 PUSH2 0x12FF JUMP JUMPDEST PUSH1 0x40 MLOAD DUP1 SWAP2 SUB SWAP1 PUSH1 0x0 CREATE DUP1 ISZERO DUP1 ISZERO PUSH2 0x41F JUMPI RETURNDATASIZE PUSH1 0x0 DUP1 RETURNDATACOPY RETURNDATASIZE PUSH1 0x0 REVERT JUMPDEST POP SWAP1 POP PUSH1 0x0 DUP1 PUSH1 0x0 DUP4 PUSH1 0x1 PUSH1 0x1 PUSH1 0xA0 SHL SUB AND PUSH4 0xC6CB1401 PUSH32 0x0 PUSH1 0x40 MLOAD DUP3 PUSH4 0xFFFFFFFF AND PUSH1 0xE0 SHL DUP2 MSTORE PUSH1 0x4 ADD PUSH2 0x475 SWAP2 DUP2 MSTORE PUSH1 0x20 ADD SWAP1 JUMP JUMPDEST PUSH1 0x60 PUSH1 0x40 MLOAD DUP1 DUP4 SUB DUP2 PUSH1 0x0 DUP8 GAS CALL ISZERO DUP1 ISZERO PUSH2 0x494 JUMPI RETURNDATASIZE PUSH1 0x0 DUP1 RETURNDATACOPY RETURNDATASIZE PUSH1 0x0 REVERT JUMPDEST POP POP POP POP PUSH1 0x40 MLOAD RETURNDATASIZE PUSH1 0x1F NOT PUSH1 0x1F DUP3 ADD AND DUP3 ADD DUP1 PUSH1 0x40 MSTORE POP DUP2 ADD SWAP1 PUSH2 0x4B8 SWAP2 SWAP1 PUSH2 0x16C7 JUMP JUMPDEST PUSH1 0xC SWAP3 SWAP1 SWAP3 SSTORE PUSH1 0xD SSTORE PUSH1 0xE SSTORE POP POP POP POP JUMP JUMPDEST PUSH1 0x40 MLOAD PUSH4 0x6EB1769F PUSH1 0xE1 SHL DUP2 MSTORE CALLER PUSH1 0x4 DUP3 ADD MSTORE ADDRESS PUSH1 0x24 DUP3 ADD MSTORE DUP2 SWAP1 DUP4 SWAP1 PUSH1 0x1 PUSH1 0x1 PUSH1 0xA0 SHL SUB DUP4 AND SWAP1 PUSH4 0xDD62ED3E SWAP1 PUSH1 0x44 ADD PUSH1 0x20 PUSH1 0x40 MLOAD DUP1 DUP4 SUB DUP2 DUP7 GAS STATICCALL ISZERO DUP1 ISZERO PUSH2 0x518 JUMPI RETURNDATASIZE PUSH1 0x0 DUP1 RETURNDATACOPY RETURNDATASIZE PUSH1 0x0 REVERT JUMPDEST POP POP POP POP PUSH1 0x40 MLOAD RETURNDATASIZE PUSH1 0x1F NOT PUSH1 0x1F DUP3 ADD AND DUP3 ADD DUP1 PUSH1 0x40 MSTORE POP DUP2 ADD SWAP1 PUSH2 0x53C SWAP2 SWAP1 PUSH2 0x16F5 JUMP JUMPDEST LT ISZERO PUSH2 0x563 JUMPI PUSH1 0x40 MLOAD PUSH3 0x461BCD PUSH1 0xE5 SHL DUP2 MSTORE PUSH1 0x4 ADD PUSH2 0x55A SWAP1 PUSH2 0x170E JUMP JUMPDEST PUSH1 0x40 MLOAD DUP1 SWAP2 SUB SWAP1 REVERT JUMPDEST PUSH1 0x40 MLOAD PUSH4 0x23B872DD PUSH1 0xE0 SHL DUP2 MSTORE CALLER PUSH1 0x4 DUP3 ADD MSTORE ADDRESS PUSH1 0x24 DUP3 ADD MSTORE PUSH1 0x44 DUP2 ADD DUP5 SWAP1 MSTORE PUSH1 0x1 PUSH1 0x1 PUSH1 0xA0 SHL SUB DUP3 AND SWAP1 PUSH4 0x23B872DD SWAP1 PUSH1 0x64 ADD PUSH1 0x20 PUSH1 0x40 MLOAD DUP1 DUP4 SUB DUP2 PUSH1 0x0 DUP8 GAS CALL ISZERO DUP1 ISZERO PUSH2 0x5B6 JUMPI RETURNDATASIZE PUSH1 0x0 DUP1 RETURNDATACOPY RETURNDATASIZE PUSH1 0x0 REVERT JUMPDEST POP POP POP POP PUSH1 0x40 MLOAD RETURNDATASIZE PUSH1 0x1F NOT PUSH1 0x1F DUP3 ADD AND DUP3 ADD DUP1 PUSH1 0x40 MSTORE POP DUP2 ADD SWAP1 PUSH2 0x5DA SWAP2 SWAP1 PUSH2 0x1753 JUMP JUMPDEST POP POP POP POP JUMP JUMPDEST PUSH1 0xC SLOAD PUSH1 0x0 SWAP1 DUP3 SUB PUSH2 0x5F4 JUMPI POP PUSH1 0x1 SWAP2 SWAP1 POP JUMP JUMPDEST PUSH1 0xD SLOAD DUP3 SUB PUSH2 0x605 JUMPI POP PUSH1 0x2 SWAP2 SWAP1 POP JUMP JUMPDEST PUSH1 0xE SLOAD DUP3 SUB PUSH2 0x616 JUMPI POP PUSH1 0x3 SWAP2 SWAP1 POP JUMP JUMPDEST POP PUSH1 0x0 SWAP2 SWAP1 POP JUMP JUMPDEST PUSH2 0x626 PUSH2 0x111F JUMP JUMPDEST PUSH2 0x630 PUSH1 0x0 PUSH2 0x1179 JUMP JUMPDEST JUMP JUMPDEST PUSH1 0x1 SLOAD PUSH1 0x1 PUSH1 0x1 PUSH1 0xA0 SHL SUB DUP3 DUP2 AND PUSH1 0x0 SWAP1 DUP2 MSTORE PUSH1 0x3 PUSH1 0x20 SWAP1 DUP2 MSTORE PUSH1 0x40 DUP1 DUP4 KECCAK256 DUP1 SLOAD DUP3 MLOAD DUP2 DUP6 MUL DUP2 ADD DUP6 ADD SWAP1 SWAP4 MSTORE DUP1 DUP4 MSTORE SWAP5 SWAP1 SWAP6 AND SWAP5 SWAP3 SWAP4 SWAP1 SWAP3 SWAP2 DUP5 SWAP1 DUP5 ADD JUMPDEST DUP3 DUP3 LT ISZERO PUSH2 0x6E4 JUMPI PUSH1 0x0 DUP5 DUP2 MSTORE PUSH1 0x20 SWAP1 KECCAK256 PUSH1 0x40 DUP1 MLOAD PUSH1 0x60 DUP2 ADD SWAP1 SWAP2 MSTORE PUSH1 0x3 DUP5 MUL SWAP1 SWAP2 ADD DUP1 SLOAD DUP3 SWAP1 PUSH1 0xFF AND PUSH1 0x2 DUP2 GT ISZERO PUSH2 0x6AC JUMPI PUSH2 0x6AC PUSH2 0x1454 JUMP JUMPDEST PUSH1 0x2 DUP2 GT ISZERO PUSH2 0x6BD JUMPI PUSH2 0x6BD PUSH2 0x1454 JUMP JUMPDEST DUP2 MSTORE PUSH1 0x20 ADD PUSH1 0x1 DUP3 ADD SLOAD DUP2 MSTORE PUSH1 0x20 ADD PUSH1 0x2 DUP3 ADD SLOAD DUP2 MSTORE POP POP DUP2 MSTORE PUSH1 0x20 ADD SWAP1 PUSH1 0x1 ADD SWAP1 PUSH2 0x671 JUMP JUMPDEST POP POP POP POP SWAP1 POP PUSH1 0x0 DUP1 PUSH1 0x0 JUMPDEST DUP4 MLOAD DUP2 LT ISZERO PUSH2 0x807 JUMPI PUSH1 0x0 DUP5 DUP3 DUP2 MLOAD DUP2 LT PUSH2 0x70D JUMPI PUSH2 0x70D PUSH2 0x1770 JUMP JUMPDEST PUSH1 0x20 MUL PUSH1 0x20 ADD ADD MLOAD SWAP1 POP PUSH2 0x724 DUP2 PUSH1 0x40 ADD MLOAD PUSH2 0x5E0 JUMP JUMPDEST SWAP3 POP PUSH1 0x0 DUP2 MLOAD PUSH1 0x2 DUP2 GT ISZERO PUSH2 0x73B JUMPI PUSH2 0x73B PUSH2 0x1454 JUMP JUMPDEST EQ DUP1 ISZERO PUSH2 0x748 JUMPI POP DUP3 PUSH1 0x1 EQ JUMPDEST ISZERO PUSH2 0x76A JUMPI PUSH1 0x20 DUP2 ADD MLOAD PUSH2 0x75D SWAP1 PUSH1 0x6 PUSH2 0x179C JUMP JUMPDEST PUSH2 0x767 SWAP1 DUP6 PUSH2 0x17B9 JUMP JUMPDEST SWAP4 POP JUMPDEST PUSH1 0x1 DUP2 MLOAD PUSH1 0x2 DUP2 GT ISZERO PUSH2 0x77F JUMPI PUSH2 0x77F PUSH2 0x1454 JUMP JUMPDEST EQ DUP1 ISZERO PUSH2 0x78D JUMPI POP PUSH1 0x2 DUP4 GT ISZERO JUMPDEST ISZERO PUSH2 0x7AF JUMPI PUSH1 0x20 DUP2 ADD MLOAD PUSH2 0x7A2 SWAP1 PUSH1 0x4 PUSH2 0x179C JUMP JUMPDEST PUSH2 0x7AC SWAP1 DUP6 PUSH2 0x17B9 JUMP JUMPDEST SWAP4 POP JUMPDEST PUSH1 0x2 DUP2 MLOAD PUSH1 0x2 DUP2 GT ISZERO PUSH2 0x7C4 JUMPI PUSH2 0x7C4 PUSH2 0x1454 JUMP JUMPDEST EQ DUP1 ISZERO PUSH2 0x7D2 JUMPI POP PUSH1 0x3 DUP4 GT ISZERO JUMPDEST ISZERO PUSH2 0x7F4 JUMPI PUSH1 0x20 DUP2 ADD MLOAD PUSH2 0x7E7 SWAP1 PUSH1 0x2 PUSH2 0x179C JUMP JUMPDEST PUSH2 0x7F1 SWAP1 DUP6 PUSH2 0x17B9 JUMP JUMPDEST SWAP4 POP JUMPDEST POP DUP1 PUSH2 0x7FF DUP2 PUSH2 0x17CC JUMP JUMPDEST SWAP2 POP POP PUSH2 0x6F0 JUMP JUMPDEST POP PUSH1 0x2 SLOAD PUSH1 0x40 MLOAD PUSH4 0x23B872DD PUSH1 0xE0 SHL DUP2 MSTORE PUSH1 0x1 PUSH1 0x1 PUSH1 0xA0 SHL SUB SWAP2 DUP3 AND PUSH1 0x4 DUP3 ADD MSTORE DUP7 DUP3 AND PUSH1 0x24 DUP3 ADD MSTORE PUSH1 0x44 DUP2 ADD DUP5 SWAP1 MSTORE SWAP1 DUP6 AND SWAP1 PUSH4 0x23B872DD SWAP1 PUSH1 0x64 ADD PUSH1 0x20 PUSH1 0x40 MLOAD DUP1 DUP4 SUB DUP2 PUSH1 0x0 DUP8 GAS CALL ISZERO DUP1 ISZERO PUSH2 0x863 JUMPI RETURNDATASIZE PUSH1 0x0 DUP1 RETURNDATACOPY RETURNDATASIZE PUSH1 0x0 REVERT JUMPDEST POP POP POP POP PUSH1 0x40 MLOAD RETURNDATASIZE PUSH1 0x1F NOT PUSH1 0x1F DUP3 ADD AND DUP3 ADD DUP1 PUSH1 0x40 MSTORE POP DUP2 ADD SWAP1 PUSH2 0x887 SWAP2 SWAP1 PUSH2 0x1753 JUMP JUMPDEST POP PUSH1 0x40 DUP1 MLOAD DUP1 DUP3 ADD SWAP1 SWAP2 MSTORE PUSH1 0x9 DUP2 MSTORE PUSH9 0x29B2B73232B9101D1 PUSH1 0xBD SHL PUSH1 0x20 DUP3 ADD MSTORE PUSH1 0x2 SLOAD PUSH2 0x8BE SWAP2 SWAP1 PUSH1 0x1 PUSH1 0x1 PUSH1 0xA0 SHL SUB AND PUSH2 0x11C9 JUMP JUMPDEST PUSH2 0x8F0 PUSH1 0x40 MLOAD DUP1 PUSH1 0x40 ADD PUSH1 0x40 MSTORE DUP1 PUSH1 0x10 DUP2 MSTORE PUSH1 0x20 ADD PUSH16 0x2932B1B2B4BB32B9103A3434B9901D1 PUSH1 0x85 SHL DUP2 MSTORE POP DUP7 PUSH2 0x11C9 JUMP JUMPDEST PUSH1 0x40 DUP1 MLOAD DUP1 DUP3 ADD DUP3 MSTORE PUSH1 0xB DUP2 MSTORE PUSH11 0x42616C616E63653A202573 PUSH1 0xA8 SHL PUSH1 0x20 DUP3 ADD MSTORE SWAP1 MLOAD PUSH4 0x70A08231 PUSH1 0xE0 SHL DUP2 MSTORE PUSH1 0x1 PUSH1 0x1 PUSH1 0xA0 SHL SUB DUP8 DUP2 AND PUSH1 0x4 DUP4 ADD MSTORE PUSH2 0x986 SWAP3 SWAP2 SWAP1 DUP8 AND SWAP1 PUSH4 0x70A08231 SWAP1 PUSH1 0x24 ADD JUMPDEST PUSH1 0x20 PUSH1 0x40 MLOAD DUP1 DUP4 SUB DUP2 DUP7 GAS STATICCALL ISZERO DUP1 ISZERO PUSH2 0x95D JUMPI RETURNDATASIZE PUSH1 0x0 DUP1 RETURNDATACOPY RETURNDATASIZE PUSH1 0x0 REVERT JUMPDEST POP POP POP POP PUSH1 0x40 MLOAD RETURNDATASIZE PUSH1 0x1F NOT PUSH1 0x1F DUP3 ADD AND DUP3 ADD DUP1 PUSH1 0x40 MSTORE POP DUP2 ADD SWAP1 PUSH2 0x981 SWAP2 SWAP1 PUSH2 0x16F5 JUMP JUMPDEST PUSH2 0x120E JUMP JUMPDEST POP POP POP POP POP JUMP JUMPDEST PUSH1 0x1 SLOAD PUSH1 0x40 MLOAD PUSH4 0x95EA7B3 PUSH1 0xE0 SHL DUP2 MSTORE ADDRESS PUSH1 0x4 DUP3 ADD MSTORE PUSH1 0x24 DUP2 ADD DUP4 SWAP1 MSTORE PUSH1 0x1 PUSH1 0x1 PUSH1 0xA0 SHL SUB SWAP1 SWAP2 AND SWAP1 DUP2 SWAP1 PUSH4 0x95EA7B3 SWAP1 PUSH1 0x44 ADD PUSH1 0x20 PUSH1 0x40 MLOAD DUP1 DUP4 SUB DUP2 PUSH1 0x0 DUP8 GAS CALL ISZERO DUP1 ISZERO PUSH2 0x9E0 JUMPI RETURNDATASIZE PUSH1 0x0 DUP1 RETURNDATACOPY RETURNDATASIZE PUSH1 0x0 REVERT JUMPDEST POP POP POP POP PUSH1 0x40 MLOAD RETURNDATASIZE PUSH1 0x1F NOT PUSH1 0x1F DUP3 ADD AND DUP3 ADD DUP1 PUSH1 0x40 MSTORE POP DUP2 ADD SWAP1 PUSH2 0xA04 SWAP2 SWAP1 PUSH2 0x1753 JUMP JUMPDEST POP POP POP JUMP JUMPDEST PUSH1 0x5 DUP2 DUP2 SLOAD DUP2 LT PUSH2 0xA19 JUMPI PUSH1 0x0 DUP1 REVERT JUMPDEST PUSH1 0x0 SWAP2 DUP3 MSTORE PUSH1 0x20 SWAP1 SWAP2 KECCAK256 ADD SLOAD PUSH1 0x1 PUSH1 0x1 PUSH1 0xA0 SHL SUB AND SWAP1 POP DUP2 JUMP JUMPDEST PUSH1 0x0 JUMPDEST PUSH1 0x5 SLOAD DUP2 LT ISZERO PUSH2 0xA96 JUMPI PUSH1 0x3 PUSH1 0x0 PUSH1 0x5 DUP4 DUP2 SLOAD DUP2 LT PUSH2 0xA57 JUMPI PUSH2 0xA57 PUSH2 0x1770 JUMP JUMPDEST PUSH1 0x0 SWAP2 DUP3 MSTORE PUSH1 0x20 DUP1 DUP4 KECCAK256 SWAP1 SWAP2 ADD SLOAD PUSH1 0x1 PUSH1 0x1 PUSH1 0xA0 SHL SUB AND DUP4 MSTORE DUP3 ADD SWAP3 SWAP1 SWAP3 MSTORE PUSH1 0x40 ADD DUP2 KECCAK256 PUSH2 0xA84 SWAP2 PUSH2 0x130C JUMP JUMPDEST DUP1 PUSH2 0xA8E DUP2 PUSH2 0x17CC JUMP JUMPDEST SWAP2 POP POP PUSH2 0xA36 JUMP JUMPDEST POP PUSH1 0x0 JUMPDEST PUSH32 0x0 DUP2 LT ISZERO PUSH2 0xAEB JUMPI PUSH1 0x0 DUP2 DUP2 MSTORE PUSH1 0x4 PUSH1 0x20 MSTORE PUSH1 0x40 DUP2 KECCAK256 PUSH2 0xAD9 SWAP2 PUSH2 0x132D JUMP JUMPDEST DUP1 PUSH2 0xAE3 DUP2 PUSH2 0x17CC JUMP JUMPDEST SWAP2 POP POP PUSH2 0xA9A JUMP JUMPDEST POP PUSH1 0x40 DUP1 MLOAD PUSH1 0x0 DUP2 MSTORE PUSH1 0x20 DUP2 ADD SWAP2 DUP3 SWAP1 MSTORE MLOAD PUSH2 0xB09 SWAP2 PUSH1 0x5 SWAP2 PUSH2 0x134B JUMP JUMPDEST POP PUSH1 0x0 PUSH1 0x6 DUP2 SWAP1 SSTORE PUSH1 0x40 DUP1 MLOAD PUSH2 0x100 DUP2 ADD DUP3 MSTORE DUP7 DUP2 MSTORE PUSH1 0x20 DUP2 ADD SWAP3 SWAP1 SWAP3 MSTORE DUP2 ADD PUSH2 0xB35 TIMESTAMP PUSH2 0x258 PUSH2 0x17B9 JUMP JUMPDEST DUP2 MSTORE PUSH1 0x1 PUSH1 0x20 DUP3 ADD DUP2 SWAP1 MSTORE PUSH1 0x40 DUP3 ADD MSTORE PUSH1 0x0 PUSH1 0x60 DUP3 ADD DUP2 SWAP1 MSTORE PUSH1 0x80 DUP3 ADD DUP2 SWAP1 MSTORE PUSH1 0xA0 SWAP1 SWAP2 ADD MSTORE DUP1 MLOAD PUSH1 0x7 SWAP1 DUP2 SWAP1 PUSH2 0xB6C SWAP1 DUP3 PUSH2 0x1865 JUMP JUMPDEST POP PUSH1 0x20 DUP3 ADD MLOAD PUSH1 0x1 DUP1 DUP4 ADD DUP1 SLOAD SWAP1 SWAP2 PUSH1 0xFF NOT SWAP1 SWAP2 AND SWAP1 DUP4 DUP2 DUP2 GT ISZERO PUSH2 0xB93 JUMPI PUSH2 0xB93 PUSH2 0x1454 JUMP JUMPDEST MUL OR SWAP1 SSTORE POP PUSH1 0x40 DUP3 ADD MLOAD PUSH1 0x2 DUP3 ADD SSTORE PUSH1 0x60 DUP3 ADD MLOAD PUSH1 0x3 DUP3 ADD SSTORE PUSH1 0x80 DUP3 ADD MLOAD PUSH1 0x4 DUP3 ADD SSTORE PUSH1 0xA0 DUP3 ADD MLOAD PUSH1 0x5 DUP3 ADD SSTORE PUSH1 0xC0 DUP3 ADD MLOAD PUSH1 0x6 DUP3 ADD SSTORE PUSH1 0xE0 SWAP1 SWAP2 ADD MLOAD PUSH1 0x7 SWAP1 SWAP2 ADD SSTORE DUP3 ISZERO ISZERO PUSH1 0x1 SUB PUSH2 0x5DA JUMPI POP POP PUSH1 0x8 DUP1 SLOAD PUSH1 0xFF NOT AND PUSH1 0x1 OR SWAP1 SSTORE POP POP JUMP JUMPDEST PUSH1 0x7 DUP1 SLOAD DUP2 SWAP1 PUSH2 0xC02 SWAP1 PUSH2 0x17E5 JUMP JUMPDEST DUP1 PUSH1 0x1F ADD PUSH1 0x20 DUP1 SWAP2 DIV MUL PUSH1 0x20 ADD PUSH1 0x40 MLOAD SWAP1 DUP2 ADD PUSH1 0x40 MSTORE DUP1 SWAP3 SWAP2 SWAP1 DUP2 DUP2 MSTORE PUSH1 0x20 ADD DUP3 DUP1 SLOAD PUSH2 0xC2E SWAP1 PUSH2 0x17E5 JUMP JUMPDEST DUP1 ISZERO PUSH2 0xC7B JUMPI DUP1 PUSH1 0x1F LT PUSH2 0xC50 JUMPI PUSH2 0x100 DUP1 DUP4 SLOAD DIV MUL DUP4 MSTORE SWAP2 PUSH1 0x20 ADD SWAP2 PUSH2 0xC7B JUMP JUMPDEST DUP3 ADD SWAP2 SWAP1 PUSH1 0x0 MSTORE PUSH1 0x20 PUSH1 0x0 KECCAK256 SWAP1 JUMPDEST DUP2 SLOAD DUP2 MSTORE SWAP1 PUSH1 0x1 ADD SWAP1 PUSH1 0x20 ADD DUP1 DUP4 GT PUSH2 0xC5E JUMPI DUP3 SWAP1 SUB PUSH1 0x1F AND DUP3 ADD SWAP2 JUMPDEST POP POP POP POP PUSH1 0x1 DUP4 ADD SLOAD PUSH1 0x2 DUP5 ADD SLOAD PUSH1 0x3 DUP6 ADD SLOAD PUSH1 0x4 DUP7 ADD SLOAD PUSH1 0x5 DUP8 ADD SLOAD PUSH1 0x6 DUP9 ADD SLOAD PUSH1 0x7 SWAP1 SWAP9 ADD SLOAD SWAP7 SWAP8 PUSH1 0xFF SWAP1 SWAP6 AND SWAP7 SWAP4 SWAP6 POP SWAP2 SWAP4 SWAP1 SWAP3 DUP9 JUMP JUMPDEST PUSH1 0x1 SLOAD PUSH1 0x40 DUP1 MLOAD DUP1 DUP3 ADD SWAP1 SWAP2 MSTORE PUSH1 0xF DUP2 MSTORE PUSH15 0x2132B337B932903A3930B739B332B9 PUSH1 0x89 SHL PUSH1 0x20 DUP3 ADD MSTORE PUSH1 0x1 PUSH1 0x1 PUSH1 0xA0 SHL SUB SWAP1 SWAP2 AND SWAP1 PUSH2 0xCF3 SWAP1 PUSH2 0x1253 JUMP JUMPDEST PUSH1 0x40 MLOAD PUSH4 0x6EB1769F PUSH1 0xE1 SHL DUP2 MSTORE CALLER PUSH1 0x4 DUP3 ADD MSTORE ADDRESS PUSH1 0x24 DUP3 ADD MSTORE DUP5 SWAP1 PUSH1 0x1 PUSH1 0x1 PUSH1 0xA0 SHL SUB DUP4 AND SWAP1 PUSH4 0xDD62ED3E SWAP1 PUSH1 0x44 ADD PUSH1 0x20 PUSH1 0x40 MLOAD DUP1 DUP4 SUB DUP2 DUP7 GAS STATICCALL ISZERO DUP1 ISZERO PUSH2 0xD3F JUMPI RETURNDATASIZE PUSH1 0x0 DUP1 RETURNDATACOPY RETURNDATASIZE PUSH1 0x0 REVERT JUMPDEST POP POP POP POP PUSH1 0x40 MLOAD RETURNDATASIZE PUSH1 0x1F NOT PUSH1 0x1F DUP3 ADD AND DUP3 ADD DUP1 PUSH1 0x40 MSTORE POP DUP2 ADD SWAP1 PUSH2 0xD63 SWAP2 SWAP1 PUSH2 0x16F5 JUMP JUMPDEST LT ISZERO PUSH2 0xD81 JUMPI PUSH1 0x40 MLOAD PUSH3 0x461BCD PUSH1 0xE5 SHL DUP2 MSTORE PUSH1 0x4 ADD PUSH2 0x55A SWAP1 PUSH2 0x170E JUMP JUMPDEST PUSH2 0xDB0 PUSH1 0x40 MLOAD DUP1 PUSH1 0x40 ADD PUSH1 0x40 MSTORE DUP1 PUSH1 0xE DUP2 MSTORE PUSH1 0x20 ADD PUSH14 0x14995C5D5A5C99481C185CDCD959 PUSH1 0x92 SHL DUP2 MSTORE POP PUSH2 0x1253 JUMP JUMPDEST PUSH1 0x2 SLOAD PUSH1 0x40 MLOAD PUSH4 0x23B872DD PUSH1 0xE0 SHL DUP2 MSTORE CALLER PUSH1 0x4 DUP3 ADD MSTORE PUSH1 0x1 PUSH1 0x1 PUSH1 0xA0 SHL SUB SWAP2 DUP3 AND PUSH1 0x24 DUP3 ADD MSTORE PUSH1 0x44 DUP2 ADD DUP7 SWAP1 MSTORE SWAP1 DUP3 AND SWAP1 PUSH4 0x23B872DD SWAP1 PUSH1 0x64 ADD PUSH1 0x20 PUSH1 0x40 MLOAD DUP1 DUP4 SUB DUP2 PUSH1 0x0 DUP8 GAS CALL ISZERO DUP1 ISZERO PUSH2 0xE09 JUMPI RETURNDATASIZE PUSH1 0x0 DUP1 RETURNDATACOPY RETURNDATASIZE PUSH1 0x0 REVERT JUMPDEST POP POP POP POP PUSH1 0x40 MLOAD RETURNDATASIZE PUSH1 0x1F NOT PUSH1 0x1F DUP3 ADD AND DUP3 ADD DUP1 PUSH1 0x40 MSTORE POP DUP2 ADD SWAP1 PUSH2 0xE2D SWAP2 SWAP1 PUSH2 0x1753 JUMP JUMPDEST POP PUSH2 0xE5D PUSH1 0x40 MLOAD DUP1 PUSH1 0x40 ADD PUSH1 0x40 MSTORE DUP1 PUSH1 0xE DUP2 MSTORE PUSH1 0x20 ADD PUSH14 0x20B33A32B9103A3930B739B332B9 PUSH1 0x91 SHL DUP2 MSTORE POP PUSH2 0x1253 JUMP JUMPDEST PUSH2 0xE66 CALLER PUSH2 0x1296 JUMP JUMPDEST PUSH1 0x2 PUSH1 0x1 DUP4 SWAP1 SUB PUSH2 0xE79 JUMPI POP PUSH1 0x0 PUSH2 0xE85 JUMP JUMPDEST DUP3 PUSH1 0x2 SUB PUSH2 0xE85 JUMPI POP PUSH1 0x1 JUMPDEST PUSH1 0x0 PUSH1 0x40 MLOAD DUP1 PUSH1 0x60 ADD PUSH1 0x40 MSTORE DUP1 DUP4 PUSH1 0x2 DUP2 GT ISZERO PUSH2 0xEA4 JUMPI PUSH2 0xEA4 PUSH2 0x1454 JUMP JUMPDEST DUP2 MSTORE PUSH1 0x20 DUP1 DUP3 ADD DUP10 SWAP1 MSTORE PUSH1 0x40 SWAP2 DUP3 ADD DUP9 SWAP1 MSTORE CALLER PUSH1 0x0 SWAP1 DUP2 MSTORE PUSH1 0x3 DUP1 DUP4 MSTORE SWAP3 DUP2 KECCAK256 DUP1 SLOAD PUSH1 0x1 DUP2 DUP2 ADD DUP4 SSTORE SWAP2 DUP4 MSTORE SWAP3 SWAP1 SWAP2 KECCAK256 DUP5 MLOAD SWAP3 SWAP1 SWAP4 MUL SWAP1 SWAP3 ADD DUP1 SLOAD SWAP4 SWAP5 POP DUP5 SWAP4 SWAP1 SWAP3 DUP4 SWAP2 PUSH1 0xFF NOT AND SWAP1 DUP4 PUSH1 0x2 DUP2 GT ISZERO PUSH2 0xEFF JUMPI PUSH2 0xEFF PUSH2 0x1454 JUMP JUMPDEST MUL OR SWAP1 SSTORE POP PUSH1 0x20 DUP3 ADD MLOAD DUP2 PUSH1 0x1 ADD SSTORE PUSH1 0x40 DUP3 ADD MLOAD DUP2 PUSH1 0x2 ADD SSTORE POP POP DUP6 PUSH1 0x6 PUSH1 0x0 DUP3 DUP3 SLOAD PUSH2 0xF2C SWAP2 SWAP1 PUSH2 0x17B9 JUMP JUMPDEST SWAP1 SWAP2 SSTORE POP POP PUSH1 0x5 DUP1 SLOAD PUSH1 0x1 DUP1 DUP3 ADD SWAP1 SWAP3 SSTORE PUSH32 0x36B6384B5ECA791C62761152D0C79BB0604C104A5FB6F4EB0703F3154BB3DB0 ADD DUP1 SLOAD CALLER PUSH1 0x1 PUSH1 0x1 PUSH1 0xA0 SHL SUB NOT SWAP2 DUP3 AND DUP2 OR SWAP1 SWAP3 SSTORE PUSH1 0x0 DUP9 DUP2 MSTORE PUSH1 0x4 PUSH1 0x20 DUP2 DUP2 MSTORE PUSH1 0x40 DUP1 DUP5 KECCAK256 DUP1 SLOAD SWAP8 DUP9 ADD DUP2 SSTORE DUP5 MSTORE SWAP3 DUP2 SWAP1 KECCAK256 SWAP1 SWAP6 ADD DUP1 SLOAD SWAP1 SWAP4 AND SWAP1 SWAP4 OR SWAP1 SWAP2 SSTORE DUP1 MLOAD DUP1 DUP3 ADD DUP3 MSTORE PUSH1 0x1B DUP2 MSTORE PUSH32 0x42616C616E63652061646472657373206D794F776E65723A2025730000000000 SWAP4 DUP2 ADD SWAP4 SWAP1 SWAP4 MSTORE PUSH1 0x2 SLOAD SWAP1 MLOAD PUSH4 0x70A08231 PUSH1 0xE0 SHL DUP2 MSTORE PUSH1 0x1 PUSH1 0x1 PUSH1 0xA0 SHL SUB SWAP2 DUP3 AND SWAP3 DUP2 ADD SWAP3 SWAP1 SWAP3 MSTORE PUSH2 0x100A SWAP3 SWAP2 SWAP1 DUP7 AND SWAP1 PUSH4 0x70A08231 SWAP1 PUSH1 0x24 ADD PUSH2 0x940 JUMP JUMPDEST PUSH1 0x40 DUP1 MLOAD DUP1 DUP3 ADD DUP3 MSTORE PUSH1 0x16 DUP2 MSTORE PUSH22 0x42616C616E6365206D73672073656E6465723A202573 PUSH1 0x50 SHL PUSH1 0x20 DUP3 ADD MSTORE SWAP1 MLOAD PUSH4 0x70A08231 PUSH1 0xE0 SHL DUP2 MSTORE CALLER PUSH1 0x4 DUP3 ADD MSTORE PUSH2 0x1066 SWAP2 SWAP1 PUSH1 0x1 PUSH1 0x1 PUSH1 0xA0 SHL SUB DUP7 AND SWAP1 PUSH4 0x70A08231 SWAP1 PUSH1 0x24 ADD PUSH2 0x940 JUMP JUMPDEST POP POP POP POP POP POP JUMP JUMPDEST PUSH1 0x4 PUSH1 0x20 MSTORE DUP2 PUSH1 0x0 MSTORE PUSH1 0x40 PUSH1 0x0 KECCAK256 DUP2 DUP2 SLOAD DUP2 LT PUSH2 0x108A JUMPI PUSH1 0x0 DUP1 REVERT JUMPDEST PUSH1 0x0 SWAP2 DUP3 MSTORE PUSH1 0x20 SWAP1 SWAP2 KECCAK256 ADD SLOAD PUSH1 0x1 PUSH1 0x1 PUSH1 0xA0 SHL SUB AND SWAP2 POP DUP3 SWAP1 POP JUMP JUMPDEST PUSH2 0x10AE PUSH2 0x111F JUMP JUMPDEST PUSH1 0x1 PUSH1 0x1 PUSH1 0xA0 SHL SUB DUP2 AND PUSH2 0x1113 JUMPI PUSH1 0x40 MLOAD PUSH3 0x461BCD PUSH1 0xE5 SHL DUP2 MSTORE PUSH1 0x20 PUSH1 0x4 DUP3 ADD MSTORE PUSH1 0x26 PUSH1 0x24 DUP3 ADD MSTORE PUSH32 0x4F776E61626C653A206E6577206F776E657220697320746865207A65726F2061 PUSH1 0x44 DUP3 ADD MSTORE PUSH6 0x646472657373 PUSH1 0xD0 SHL PUSH1 0x64 DUP3 ADD MSTORE PUSH1 0x84 ADD PUSH2 0x55A JUMP JUMPDEST PUSH2 0x111C DUP2 PUSH2 0x1179 JUMP JUMPDEST POP JUMP JUMPDEST PUSH1 0x0 SLOAD PUSH1 0x1 PUSH1 0x1 PUSH1 0xA0 SHL SUB AND CALLER EQ PUSH2 0x630 JUMPI PUSH1 0x40 MLOAD PUSH3 0x461BCD PUSH1 0xE5 SHL DUP2 MSTORE PUSH1 0x20 PUSH1 0x4 DUP3 ADD DUP2 SWAP1 MSTORE PUSH1 0x24 DUP3 ADD MSTORE PUSH32 0x4F776E61626C653A2063616C6C6572206973206E6F7420746865206F776E6572 PUSH1 0x44 DUP3 ADD MSTORE PUSH1 0x64 ADD PUSH2 0x55A JUMP JUMPDEST PUSH1 0x0 DUP1 SLOAD PUSH1 0x1 PUSH1 0x1 PUSH1 0xA0 SHL SUB DUP4 DUP2 AND PUSH1 0x1 PUSH1 0x1 PUSH1 0xA0 SHL SUB NOT DUP4 AND DUP2 OR DUP5 SSTORE PUSH1 0x40 MLOAD SWAP2 SWAP1 SWAP3 AND SWAP3 DUP4 SWAP2 PUSH32 0x8BE0079C531659141344CD1FD0A4F28419497F9722A3DAAFE3B4186F6B6457E0 SWAP2 SWAP1 LOG3 POP POP JUMP JUMPDEST PUSH2 0x2DC DUP3 DUP3 PUSH1 0x40 MLOAD PUSH1 0x24 ADD PUSH2 0x11DF SWAP3 SWAP2 SWAP1 PUSH2 0x1925 JUMP JUMPDEST PUSH1 0x40 DUP1 MLOAD PUSH1 0x1F NOT DUP2 DUP5 SUB ADD DUP2 MSTORE SWAP2 SWAP1 MSTORE PUSH1 0x20 DUP2 ADD DUP1 MLOAD PUSH1 0x1 PUSH1 0x1 PUSH1 0xE0 SHL SUB AND PUSH4 0x319AF333 PUSH1 0xE0 SHL OR SWAP1 MSTORE PUSH2 0x12DA JUMP JUMPDEST PUSH2 0x2DC DUP3 DUP3 PUSH1 0x40 MLOAD PUSH1 0x24 ADD PUSH2 0x1224 SWAP3 SWAP2 SWAP1 PUSH2 0x194F JUMP JUMPDEST PUSH1 0x40 DUP1 MLOAD PUSH1 0x1F NOT DUP2 DUP5 SUB ADD DUP2 MSTORE SWAP2 SWAP1 MSTORE PUSH1 0x20 DUP2 ADD DUP1 MLOAD PUSH1 0x1 PUSH1 0x1 PUSH1 0xE0 SHL SUB AND PUSH4 0x2D839CB3 PUSH1 0xE2 SHL OR SWAP1 MSTORE PUSH2 0x12DA JUMP JUMPDEST PUSH2 0x111C DUP2 PUSH1 0x40 MLOAD PUSH1 0x24 ADD PUSH2 0x1267 SWAP2 SWAP1 PUSH2 0x1971 JUMP JUMPDEST PUSH1 0x40 DUP1 MLOAD PUSH1 0x1F NOT DUP2 DUP5 SUB ADD DUP2 MSTORE SWAP2 SWAP1 MSTORE PUSH1 0x20 DUP2 ADD DUP1 MLOAD PUSH1 0x1 PUSH1 0x1 PUSH1 0xE0 SHL SUB AND PUSH4 0x104C13EB PUSH1 0xE2 SHL OR SWAP1 MSTORE PUSH2 0x12DA JUMP JUMPDEST PUSH1 0x40 MLOAD PUSH1 0x1 PUSH1 0x1 PUSH1 0xA0 SHL SUB DUP3 AND PUSH1 0x24 DUP3 ADD MSTORE PUSH2 0x111C SWAP1 PUSH1 0x44 ADD PUSH1 0x40 DUP1 MLOAD PUSH1 0x1F NOT DUP2 DUP5 SUB ADD DUP2 MSTORE SWAP2 SWAP1 MSTORE PUSH1 0x20 DUP2 ADD DUP1 MLOAD PUSH1 0x1 PUSH1 0x1 PUSH1 0xE0 SHL SUB AND PUSH4 0x161765E1 PUSH1 0xE1 SHL OR SWAP1 MSTORE JUMPDEST PUSH2 0x111C DUP2 PUSH1 0x0 PUSH11 0x636F6E736F6C652E6C6F67 SWAP1 POP PUSH1 0x0 DUP1 DUP4 MLOAD PUSH1 0x20 DUP6 ADD DUP5 GAS STATICCALL POP POP POP JUMP JUMPDEST PUSH2 0x1AD DUP1 PUSH2 0x1985 DUP4 CODECOPY ADD SWAP1 JUMP JUMPDEST POP DUP1 SLOAD PUSH1 0x0 DUP3 SSTORE PUSH1 0x3 MUL SWAP1 PUSH1 0x0 MSTORE PUSH1 0x20 PUSH1 0x0 KECCAK256 SWAP1 DUP2 ADD SWAP1 PUSH2 0x111C SWAP2 SWAP1 PUSH2 0x13B0 JUMP JUMPDEST POP DUP1 SLOAD PUSH1 0x0 DUP3 SSTORE SWAP1 PUSH1 0x0 MSTORE PUSH1 0x20 PUSH1 0x0 KECCAK256 SWAP1 DUP2 ADD SWAP1 PUSH2 0x111C SWAP2 SWAP1 PUSH2 0x13D7 JUMP JUMPDEST DUP3 DUP1 SLOAD DUP3 DUP3 SSTORE SWAP1 PUSH1 0x0 MSTORE PUSH1 0x20 PUSH1 0x0 KECCAK256 SWAP1 DUP2 ADD SWAP3 DUP3 ISZERO PUSH2 0x13A0 JUMPI SWAP2 PUSH1 0x20 MUL DUP3 ADD JUMPDEST DUP3 DUP2 GT ISZERO PUSH2 0x13A0 JUMPI DUP3 MLOAD DUP3 SLOAD PUSH1 0x1 PUSH1 0x1 PUSH1 0xA0 SHL SUB NOT AND PUSH1 0x1 PUSH1 0x1 PUSH1 0xA0 SHL SUB SWAP1 SWAP2 AND OR DUP3 SSTORE PUSH1 0x20 SWAP1 SWAP3 ADD SWAP2 PUSH1 0x1 SWAP1 SWAP2 ADD SWAP1 PUSH2 0x136B JUMP JUMPDEST POP PUSH2 0x13AC SWAP3 SWAP2 POP PUSH2 0x13D7 JUMP JUMPDEST POP SWAP1 JUMP JUMPDEST JUMPDEST DUP1 DUP3 GT ISZERO PUSH2 0x13AC JUMPI DUP1 SLOAD PUSH1 0xFF NOT AND DUP2 SSTORE PUSH1 0x0 PUSH1 0x1 DUP3 ADD DUP2 SWAP1 SSTORE PUSH1 0x2 DUP3 ADD SSTORE PUSH1 0x3 ADD PUSH2 0x13B1 JUMP JUMPDEST JUMPDEST DUP1 DUP3 GT ISZERO PUSH2 0x13AC JUMPI PUSH1 0x0 DUP2 SSTORE PUSH1 0x1 ADD PUSH2 0x13D8 JUMP JUMPDEST DUP1 CALLDATALOAD PUSH1 0x1 PUSH1 0x1 PUSH1 0xA0 SHL SUB DUP2 AND DUP2 EQ PUSH2 0x1403 JUMPI PUSH1 0x0 DUP1 REVERT JUMPDEST SWAP2 SWAP1 POP JUMP JUMPDEST PUSH1 0x0 PUSH1 0x20 DUP3 DUP5 SUB SLT ISZERO PUSH2 0x141A JUMPI PUSH1 0x0 DUP1 REVERT JUMPDEST PUSH2 0x1423 DUP3 PUSH2 0x13EC JUMP JUMPDEST SWAP4 SWAP3 POP POP POP JUMP JUMPDEST PUSH1 0x0 DUP1 PUSH1 0x40 DUP4 DUP6 SUB SLT ISZERO PUSH2 0x143D JUMPI PUSH1 0x0 DUP1 REVERT JUMPDEST PUSH2 0x1446 DUP4 PUSH2 0x13EC JUMP JUMPDEST SWAP5 PUSH1 0x20 SWAP4 SWAP1 SWAP4 ADD CALLDATALOAD SWAP4 POP POP POP JUMP JUMPDEST PUSH4 0x4E487B71 PUSH1 0xE0 SHL PUSH1 0x0 MSTORE PUSH1 0x21 PUSH1 0x4 MSTORE PUSH1 0x24 PUSH1 0x0 REVERT JUMPDEST PUSH1 0x60 DUP2 ADD PUSH1 0x3 DUP6 LT PUSH2 0x147E JUMPI PUSH2 0x147E PUSH2 0x1454 JUMP JUMPDEST SWAP4 DUP2 MSTORE PUSH1 0x20 DUP2 ADD SWAP3 SWAP1 SWAP3 MSTORE PUSH1 0x40 SWAP1 SWAP2 ADD MSTORE SWAP1 JUMP JUMPDEST PUSH1 0x0 DUP1 PUSH1 0x40 DUP4 DUP6 SUB SLT ISZERO PUSH2 0x14A5 JUMPI PUSH1 0x0 DUP1 REVERT JUMPDEST DUP3 CALLDATALOAD SWAP2 POP PUSH2 0x14B5 PUSH1 0x20 DUP5 ADD PUSH2 0x13EC JUMP JUMPDEST SWAP1 POP SWAP3 POP SWAP3 SWAP1 POP JUMP JUMPDEST PUSH1 0x0 PUSH1 0x20 DUP3 DUP5 SUB SLT ISZERO PUSH2 0x14D0 JUMPI PUSH1 0x0 DUP1 REVERT JUMPDEST POP CALLDATALOAD SWAP2 SWAP1 POP JUMP JUMPDEST PUSH4 0x4E487B71 PUSH1 0xE0 SHL PUSH1 0x0 MSTORE PUSH1 0x41 PUSH1 0x4 MSTORE PUSH1 0x24 PUSH1 0x0 REVERT JUMPDEST DUP1 ISZERO ISZERO DUP2 EQ PUSH2 0x111C JUMPI PUSH1 0x0 DUP1 REVERT JUMPDEST DUP1 CALLDATALOAD PUSH2 0x1403 DUP2 PUSH2 0x14ED JUMP JUMPDEST PUSH1 0x0 DUP1 PUSH1 0x0 DUP1 PUSH1 0x80 DUP6 DUP8 SUB SLT ISZERO PUSH2 0x151C JUMPI PUSH1 0x0 DUP1 REVERT JUMPDEST DUP5 CALLDATALOAD PUSH8 0xFFFFFFFFFFFFFFFF DUP1 DUP3 GT ISZERO PUSH2 0x1534 JUMPI PUSH1 0x0 DUP1 REVERT JUMPDEST DUP2 DUP8 ADD SWAP2 POP DUP8 PUSH1 0x1F DUP4 ADD SLT PUSH2 0x1548 JUMPI PUSH1 0x0 DUP1 REVERT JUMPDEST DUP2 CALLDATALOAD DUP2 DUP2 GT ISZERO PUSH2 0x155A JUMPI PUSH2 0x155A PUSH2 0x14D7 JUMP JUMPDEST PUSH1 0x40 MLOAD PUSH1 0x1F DUP3 ADD PUSH1 0x1F NOT SWAP1 DUP2 AND PUSH1 0x3F ADD AND DUP2 ADD SWAP1 DUP4 DUP3 GT DUP2 DUP4 LT OR ISZERO PUSH2 0x1582 JUMPI PUSH2 0x1582 PUSH2 0x14D7 JUMP JUMPDEST DUP2 PUSH1 0x40 MSTORE DUP3 DUP2 MSTORE DUP11 PUSH1 0x20 DUP5 DUP8 ADD ADD GT ISZERO PUSH2 0x159B JUMPI PUSH1 0x0 DUP1 REVERT JUMPDEST DUP3 PUSH1 0x20 DUP7 ADD PUSH1 0x20 DUP4 ADD CALLDATACOPY PUSH1 0x0 PUSH1 0x20 DUP5 DUP4 ADD ADD MSTORE DUP1 SWAP9 POP POP POP POP POP POP PUSH2 0x15C2 PUSH1 0x20 DUP7 ADD PUSH2 0x14FB JUMP JUMPDEST SWAP4 SWAP7 SWAP4 SWAP6 POP POP POP POP PUSH1 0x40 DUP3 ADD CALLDATALOAD SWAP2 PUSH1 0x60 ADD CALLDATALOAD SWAP1 JUMP JUMPDEST PUSH1 0x0 DUP2 MLOAD DUP1 DUP5 MSTORE PUSH1 0x0 JUMPDEST DUP2 DUP2 LT ISZERO PUSH2 0x15FD JUMPI PUSH1 0x20 DUP2 DUP6 ADD DUP2 ADD MLOAD DUP7 DUP4 ADD DUP3 ADD MSTORE ADD PUSH2 0x15E1 JUMP JUMPDEST POP PUSH1 0x0 PUSH1 0x20 DUP3 DUP7 ADD ADD MSTORE PUSH1 0x20 PUSH1 0x1F NOT PUSH1 0x1F DUP4 ADD AND DUP6 ADD ADD SWAP2 POP POP SWAP3 SWAP2 POP POP JUMP JUMPDEST PUSH1 0x0 PUSH2 0x100 DUP1 DUP4 MSTORE PUSH2 0x1631 DUP2 DUP5 ADD DUP13 PUSH2 0x15D7 JUMP JUMPDEST SWAP2 POP POP PUSH1 0x2 DUP10 LT PUSH2 0x1644 JUMPI PUSH2 0x1644 PUSH2 0x1454 JUMP JUMPDEST PUSH1 0x20 DUP3 ADD SWAP9 SWAP1 SWAP9 MSTORE PUSH1 0x40 DUP2 ADD SWAP7 SWAP1 SWAP7 MSTORE PUSH1 0x60 DUP7 ADD SWAP5 SWAP1 SWAP5 MSTORE PUSH1 0x80 DUP6 ADD SWAP3 SWAP1 SWAP3 MSTORE PUSH1 0xA0 DUP5 ADD MSTORE PUSH1 0xC0 DUP4 ADD MSTORE PUSH1 0xE0 SWAP1 SWAP2 ADD MSTORE SWAP2 SWAP1 POP JUMP JUMPDEST PUSH1 0x0 DUP1 PUSH1 0x0 PUSH1 0x60 DUP5 DUP7 SUB SLT ISZERO PUSH2 0x168E JUMPI PUSH1 0x0 DUP1 REVERT JUMPDEST POP POP DUP2 CALLDATALOAD SWAP4 PUSH1 0x20 DUP4 ADD CALLDATALOAD SWAP4 POP PUSH1 0x40 SWAP1 SWAP3 ADD CALLDATALOAD SWAP2 SWAP1 POP JUMP JUMPDEST PUSH1 0x0 DUP1 PUSH1 0x40 DUP4 DUP6 SUB SLT ISZERO PUSH2 0x16B8 JUMPI PUSH1 0x0 DUP1 REVERT JUMPDEST POP POP DUP1 CALLDATALOAD SWAP3 PUSH1 0x20 SWAP1 SWAP2 ADD CALLDATALOAD SWAP2 POP JUMP JUMPDEST PUSH1 0x0 DUP1 PUSH1 0x0 PUSH1 0x60 DUP5 DUP7 SUB SLT ISZERO PUSH2 0x16DC JUMPI PUSH1 0x0 DUP1 REVERT JUMPDEST DUP4 MLOAD SWAP3 POP PUSH1 0x20 DUP5 ADD MLOAD SWAP2 POP PUSH1 0x40 DUP5 ADD MLOAD SWAP1 POP SWAP3 POP SWAP3 POP SWAP3 JUMP JUMPDEST PUSH1 0x0 PUSH1 0x20 DUP3 DUP5 SUB SLT ISZERO PUSH2 0x1707 JUMPI PUSH1 0x0 DUP1 REVERT JUMPDEST POP MLOAD SWAP2 SWAP1 POP JUMP JUMPDEST PUSH1 0x20 DUP1 DUP3 MSTORE PUSH1 0x25 SWAP1 DUP3 ADD MSTORE PUSH32 0x796F75206861766520746F20617070726F766520636F6E74726F6C206F662074 PUSH1 0x40 DUP3 ADD MSTORE PUSH5 0x6F6B656E73 PUSH1 0xD8 SHL PUSH1 0x60 DUP3 ADD MSTORE PUSH1 0x80 ADD SWAP1 JUMP JUMPDEST PUSH1 0x0 PUSH1 0x20 DUP3 DUP5 SUB SLT ISZERO PUSH2 0x1765 JUMPI PUSH1 0x0 DUP1 REVERT JUMPDEST DUP2 MLOAD PUSH2 0x1423 DUP2 PUSH2 0x14ED JUMP JUMPDEST PUSH4 0x4E487B71 PUSH1 0xE0 SHL PUSH1 0x0 MSTORE PUSH1 0x32 PUSH1 0x4 MSTORE PUSH1 0x24 PUSH1 0x0 REVERT JUMPDEST PUSH4 0x4E487B71 PUSH1 0xE0 SHL PUSH1 0x0 MSTORE PUSH1 0x11 PUSH1 0x4 MSTORE PUSH1 0x24 PUSH1 0x0 REVERT JUMPDEST DUP1 DUP3 MUL DUP2 ISZERO DUP3 DUP3 DIV DUP5 EQ OR PUSH2 0x17B3 JUMPI PUSH2 0x17B3 PUSH2 0x1786 JUMP JUMPDEST SWAP3 SWAP2 POP POP JUMP JUMPDEST DUP1 DUP3 ADD DUP1 DUP3 GT ISZERO PUSH2 0x17B3 JUMPI PUSH2 0x17B3 PUSH2 0x1786 JUMP JUMPDEST PUSH1 0x0 PUSH1 0x1 DUP3 ADD PUSH2 0x17DE JUMPI PUSH2 0x17DE PUSH2 0x1786 JUMP JUMPDEST POP PUSH1 0x1 ADD SWAP1 JUMP JUMPDEST PUSH1 0x1 DUP2 DUP2 SHR SWAP1 DUP3 AND DUP1 PUSH2 0x17F9 JUMPI PUSH1 0x7F DUP3 AND SWAP2 POP JUMPDEST PUSH1 0x20 DUP3 LT DUP2 SUB PUSH2 0x1819 JUMPI PUSH4 0x4E487B71 PUSH1 0xE0 SHL PUSH1 0x0 MSTORE PUSH1 0x22 PUSH1 0x4 MSTORE PUSH1 0x24 PUSH1 0x0 REVERT JUMPDEST POP SWAP2 SWAP1 POP JUMP JUMPDEST PUSH1 0x1F DUP3 GT ISZERO PUSH2 0xA04 JUMPI PUSH1 0x0 DUP2 DUP2 MSTORE PUSH1 0x20 DUP2 KECCAK256 PUSH1 0x1F DUP6 ADD PUSH1 0x5 SHR DUP2 ADD PUSH1 0x20 DUP7 LT ISZERO PUSH2 0x1846 JUMPI POP DUP1 JUMPDEST PUSH1 0x1F DUP6 ADD PUSH1 0x5 SHR DUP3 ADD SWAP2 POP JUMPDEST DUP2 DUP2 LT ISZERO PUSH2 0x1066 JUMPI DUP3 DUP2 SSTORE PUSH1 0x1 ADD PUSH2 0x1852 JUMP JUMPDEST DUP2 MLOAD PUSH8 0xFFFFFFFFFFFFFFFF DUP2 GT ISZERO PUSH2 0x187F JUMPI PUSH2 0x187F PUSH2 0x14D7 JUMP JUMPDEST PUSH2 0x1893 DUP2 PUSH2 0x188D DUP5 SLOAD PUSH2 0x17E5 JUMP JUMPDEST DUP5 PUSH2 0x181F JUMP JUMPDEST PUSH1 0x20 DUP1 PUSH1 0x1F DUP4 GT PUSH1 0x1 DUP2 EQ PUSH2 0x18C8 JUMPI PUSH1 0x0 DUP5 ISZERO PUSH2 0x18B0 JUMPI POP DUP6 DUP4 ADD MLOAD JUMPDEST PUSH1 0x0 NOT PUSH1 0x3 DUP7 SWAP1 SHL SHR NOT AND PUSH1 0x1 DUP6 SWAP1 SHL OR DUP6 SSTORE PUSH2 0x1066 JUMP JUMPDEST PUSH1 0x0 DUP6 DUP2 MSTORE PUSH1 0x20 DUP2 KECCAK256 PUSH1 0x1F NOT DUP7 AND SWAP2 JUMPDEST DUP3 DUP2 LT ISZERO PUSH2 0x18F7 JUMPI DUP9 DUP7 ADD MLOAD DUP3 SSTORE SWAP5 DUP5 ADD SWAP5 PUSH1 0x1 SWAP1 SWAP2 ADD SWAP1 DUP5 ADD PUSH2 0x18D8 JUMP JUMPDEST POP DUP6 DUP3 LT ISZERO PUSH2 0x1915 JUMPI DUP8 DUP6 ADD MLOAD PUSH1 0x0 NOT PUSH1 0x3 DUP9 SWAP1 SHL PUSH1 0xF8 AND SHR NOT AND DUP2 SSTORE JUMPDEST POP POP POP POP POP PUSH1 0x1 SWAP1 DUP2 SHL ADD SWAP1 SSTORE POP JUMP JUMPDEST PUSH1 0x40 DUP2 MSTORE PUSH1 0x0 PUSH2 0x1938 PUSH1 0x40 DUP4 ADD DUP6 PUSH2 0x15D7 JUMP JUMPDEST SWAP1 POP PUSH1 0x1 DUP1 PUSH1 0xA0 SHL SUB DUP4 AND PUSH1 0x20 DUP4 ADD MSTORE SWAP4 SWAP3 POP POP POP JUMP JUMPDEST PUSH1 0x40 DUP2 MSTORE PUSH1 0x0 PUSH2 0x1962 PUSH1 0x40 DUP4 ADD DUP6 PUSH2 0x15D7 JUMP JUMPDEST SWAP1 POP DUP3 PUSH1 0x20 DUP4 ADD MSTORE SWAP4 SWAP3 POP POP POP JUMP JUMPDEST PUSH1 0x20 DUP2 MSTORE PUSH1 0x0 PUSH2 0x1423 PUSH1 0x20 DUP4 ADD DUP5 PUSH2 0x15D7 JUMP INVALID PUSH1 0x80 PUSH1 0x40 MSTORE PUSH1 0x0 DUP1 SSTORE CALLVALUE DUP1 ISZERO PUSH2 0x14 JUMPI PUSH1 0x0 DUP1 REVERT JUMPDEST POP PUSH2 0x189 DUP1 PUSH2 0x24 PUSH1 0x0 CODECOPY PUSH1 0x0 RETURN INVALID PUSH1 0x80 PUSH1 0x40 MSTORE CALLVALUE DUP1 ISZERO PUSH2 0x10 JUMPI PUSH1 0x0 DUP1 REVERT JUMPDEST POP PUSH1 0x4 CALLDATASIZE LT PUSH2 0x2B JUMPI PUSH1 0x0 CALLDATALOAD PUSH1 0xE0 SHR DUP1 PUSH4 0xC6CB1401 EQ PUSH2 0x30 JUMPI JUMPDEST PUSH1 0x0 DUP1 REVERT JUMPDEST PUSH2 0x43 PUSH2 0x3E CALLDATASIZE PUSH1 0x4 PUSH2 0xF1 JUMP JUMPDEST PUSH2 0x62 JUMP JUMPDEST PUSH1 0x40 DUP1 MLOAD SWAP4 DUP5 MSTORE PUSH1 0x20 DUP5 ADD SWAP3 SWAP1 SWAP3 MSTORE SWAP1 DUP3 ADD MSTORE PUSH1 0x60 ADD PUSH1 0x40 MLOAD DUP1 SWAP2 SUB SWAP1 RETURN JUMPDEST PUSH1 0x0 DUP1 PUSH1 0x0 DUP1 PUSH2 0x71 DUP6 PUSH2 0x80 JUMP JUMPDEST SWAP6 PUSH1 0x2 SWAP6 POP PUSH1 0x3 SWAP5 POP SWAP3 POP POP POP JUMP JUMPDEST PUSH1 0x0 DUP1 SLOAD DUP2 DUP1 PUSH2 0x8F DUP4 PUSH2 0x10A JUMP JUMPDEST SWAP1 SWAP2 SSTORE POP POP PUSH1 0x0 SLOAD PUSH1 0x40 DUP1 MLOAD TIMESTAMP PUSH1 0x20 DUP3 ADD MSTORE PUSH12 0xFFFFFFFFFFFFFFFFFFFFFFFF NOT CALLER PUSH1 0x60 SHL AND SWAP2 DUP2 ADD SWAP2 SWAP1 SWAP2 MSTORE PUSH1 0x54 DUP2 ADD SWAP2 SWAP1 SWAP2 MSTORE DUP3 SWAP1 PUSH1 0x74 ADD PUSH1 0x40 MLOAD PUSH1 0x20 DUP2 DUP4 SUB SUB DUP2 MSTORE SWAP1 PUSH1 0x40 MSTORE DUP1 MLOAD SWAP1 PUSH1 0x20 ADD KECCAK256 PUSH1 0x0 SHR PUSH2 0xEB SWAP2 SWAP1 PUSH2 0x131 JUMP JUMPDEST SWAP3 SWAP2 POP POP JUMP JUMPDEST PUSH1 0x0 PUSH1 0x20 DUP3 DUP5 SUB SLT ISZERO PUSH2 0x103 JUMPI PUSH1 0x0 DUP1 REVERT JUMPDEST POP CALLDATALOAD SWAP2 SWAP1 POP JUMP JUMPDEST PUSH1 0x0 PUSH1 0x1 DUP3 ADD PUSH2 0x12A JUMPI PUSH4 0x4E487B71 PUSH1 0xE0 SHL PUSH1 0x0 MSTORE PUSH1 0x11 PUSH1 0x4 MSTORE PUSH1 0x24 PUSH1 0x0 REVERT JUMPDEST POP PUSH1 0x1 ADD SWAP1 JUMP JUMPDEST PUSH1 0x0 DUP3 PUSH2 0x14E JUMPI PUSH4 0x4E487B71 PUSH1 0xE0 SHL PUSH1 0x0 MSTORE PUSH1 0x12 PUSH1 0x4 MSTORE PUSH1 0x24 PUSH1 0x0 REVERT JUMPDEST POP MOD SWAP1 JUMP INVALID LOG2 PUSH5 0x6970667358 0x22 SLT KECCAK256 0x2E 0xB8 SWAP9 0xE5 0xB2 0xE SELFBALANCE 0x26 0xBE STOP 0xCD JUMPI 0xD3 0xA8 0x2D CALLCODE PUSH10 0x887DD4BBBD0F72955753 0xD6 0xFB NOT 0xE1 PUSH12 0x64736F6C63430008120033A2 PUSH5 0x6970667358 0x22 SLT KECCAK256 0xC8 0xE7 BASEFEE 0xE4 DIV 0xD2 0xCD PUSH22 0x3AD6C37219B65E744A926F1D429C3AA6A1D2AB4344B3 BLOCKHASH 0xCA PUSH5 0x736F6C6343 STOP ADDMOD SLT STOP CALLER "
		},
		"gasEstimates": {
			"creation": {
				"codeDepositCost": "1403000",
				"executionCost": "infinite",
				"totalCost": "infinite"
			},
			"external": {
				"HORSES()": "infinite",
				"Loot(address)": "2554",
				"accept(uint256,address)": "infinite",
				"acceptEther(uint256,address)": "363",
				"approveSpending(uint256)": "infinite",
				"currentRace()": "infinite",
				"findPos(uint256)": "6700",
				"horseBettor(uint256,uint256)": "4771",
				"myOwner()": "2447",
				"owner()": "2409",
				"raceExecution()": "infinite",
				"registerUser(uint256,uint256,uint256)": "infinite",
				"renounceOwnership()": "infinite",
				"returnToken(address)": "infinite",
				"startRace(string,bool,uint256,uint256)": "infinite",
				"tokenAddress()": "2382",
				"totalAmount()": "2308",
				"totalUsers(uint256)": "4703",
				"transferOwnership(address)": "28421",
				"userBet(address,uint256)": "9161"
			}
		},
		"methodIdentifiers": {
			"HORSES()": "5a8bd215",
			"Loot(address)": "1d637f42",
			"accept(uint256,address)": "50ace9c2",
			"acceptEther(uint256,address)": "9fda96db",
			"approveSpending(uint256)": "95f8c33d",
			"currentRace()": "c4fc3b2e",
			"findPos(uint256)": "6c23f9c8",
			"horseBettor(uint256,uint256)": "debd24bd",
			"myOwner()": "f5c0753c",
			"owner()": "8da5cb5b",
			"raceExecution()": "4fd5e96d",
			"registerUser(uint256,uint256,uint256)": "cde0acc2",
			"renounceOwnership()": "715018a6",
			"returnToken(address)": "924806a0",
			"startRace(string,bool,uint256,uint256)": "bf79b873",
			"tokenAddress()": "9d76ea58",
			"totalAmount()": "1a39d8ef",
			"totalUsers(uint256)": "a4f67b8b",
			"transferOwnership(address)": "f2fde38b",
			"userBet(address,uint256)": "4195ab8e"
		}
	},
	"abi": [
		{
			"anonymous": false,
			"inputs": [
				{
					"indexed": true,
					"internalType": "address",
					"name": "previousOwner",
					"type": "address"
				},
				{
					"indexed": true,
					"internalType": "address",
					"name": "newOwner",
					"type": "address"
				}
			],
			"name": "OwnershipTransferred",
			"type": "event"
		},
		{
			"inputs": [],
			"name": "HORSES",
			"outputs": [
				{
					"internalType": "uint256",
					"name": "",
					"type": "uint256"
				}
			],
			"stateMutability": "view",
			"type": "function"
		},
		{
			"inputs": [
				{
					"internalType": "address",
					"name": "",
					"type": "address"
				}
			],
			"name": "Loot",
			"outputs": [
				{
					"internalType": "uint256",
					"name": "",
					"type": "uint256"
				}
			],
			"stateMutability": "view",
			"type": "function"
		},
		{
			"inputs": [
				{
					"internalType": "uint256",
					"name": "amount",
					"type": "uint256"
				},
				{
					"internalType": "address",
					"name": "_token",
					"type": "address"
				}
			],
			"name": "accept",
			"outputs": [],
			"stateMutability": "nonpayable",
			"type": "function"
		},
		{
			"inputs": [
				{
					"internalType": "uint256",
					"name": "amount",
					"type": "uint256"
				},
				{
					"internalType": "address",
					"name": "_token",
					"type": "address"
				}
			],
			"name": "acceptEther",
			"outputs": [],
			"stateMutability": "payable",
			"type": "function"
		},
		{
			"inputs": [
				{
					"internalType": "uint256",
					"name": "_amount",
					"type": "uint256"
				}
			],
			"name": "approveSpending",
			"outputs": [],
			"stateMutability": "nonpayable",
			"type": "function"
		},
		{
			"inputs": [],
			"name": "currentRace",
			"outputs": [
				{
					"internalType": "string",
					"name": "name",
					"type": "string"
				},
				{
					"internalType": "enum Main.RACE_TYPE",
					"name": "raceType",
					"type": "uint8"
				},
				{
					"internalType": "uint256",
					"name": "startTime",
					"type": "uint256"
				},
				{
					"internalType": "uint256",
					"name": "raceId",
					"type": "uint256"
				},
				{
					"internalType": "uint256",
					"name": "locationId",
					"type": "uint256"
				},
				{
					"internalType": "uint256",
					"name": "first",
					"type": "uint256"
				},
				{
					"internalType": "uint256",
					"name": "runner",
					"type": "uint256"
				},
				{
					"internalType": "uint256",
					"name": "third",
					"type": "uint256"
				}
			],
			"stateMutability": "view",
			"type": "function"
		},
		{
			"inputs": [
				{
					"internalType": "uint256",
					"name": "h",
					"type": "uint256"
				}
			],
			"name": "findPos",
			"outputs": [
				{
					"internalType": "uint256",
					"name": "",
					"type": "uint256"
				}
			],
			"stateMutability": "view",
			"type": "function"
		},
		{
			"inputs": [
				{
					"internalType": "uint256",
					"name": "",
					"type": "uint256"
				},
				{
					"internalType": "uint256",
					"name": "",
					"type": "uint256"
				}
			],
			"name": "horseBettor",
			"outputs": [
				{
					"internalType": "address",
					"name": "",
					"type": "address"
				}
			],
			"stateMutability": "view",
			"type": "function"
		},
		{
			"inputs": [],
			"name": "myOwner",
			"outputs": [
				{
					"internalType": "address",
					"name": "",
					"type": "address"
				}
			],
			"stateMutability": "view",
			"type": "function"
		},
		{
			"inputs": [],
			"name": "owner",
			"outputs": [
				{
					"internalType": "address",
					"name": "",
					"type": "address"
				}
			],
			"stateMutability": "view",
			"type": "function"
		},
		{
			"inputs": [],
			"name": "raceExecution",
			"outputs": [],
			"stateMutability": "nonpayable",
			"type": "function"
		},
		{
			"inputs": [
				{
					"internalType": "uint256",
					"name": "_betAmount",
					"type": "uint256"
				},
				{
					"internalType": "uint256",
					"name": "_horse",
					"type": "uint256"
				},
				{
					"internalType": "uint256",
					"name": "_betType",
					"type": "uint256"
				}
			],
			"name": "registerUser",
			"outputs": [],
			"stateMutability": "payable",
			"type": "function"
		},
		{
			"inputs": [],
			"name": "renounceOwnership",
			"outputs": [],
			"stateMutability": "nonpayable",
			"type": "function"
		},
		{
			"inputs": [
				{
					"internalType": "address",
					"name": "user",
					"type": "address"
				}
			],
			"name": "returnToken",
			"outputs": [],
			"stateMutability": "payable",
			"type": "function"
		},
		{
			"inputs": [
				{
					"internalType": "string",
					"name": "raceName",
					"type": "string"
				},
				{
					"internalType": "bool",
					"name": "raceType",
					"type": "bool"
				},
				{
					"internalType": "uint256",
					"name": "numberofHorses",
					"type": "uint256"
				},
				{
					"internalType": "uint256",
					"name": "begin",
					"type": "uint256"
				}
			],
			"name": "startRace",
			"outputs": [],
			"stateMutability": "payable",
			"type": "function"
		},
		{
			"inputs": [],
			"name": "tokenAddress",
			"outputs": [
				{
					"internalType": "address",
					"name": "",
					"type": "address"
				}
			],
			"stateMutability": "view",
			"type": "function"
		},
		{
			"inputs": [],
			"name": "totalAmount",
			"outputs": [
				{
					"internalType": "uint256",
					"name": "",
					"type": "uint256"
				}
			],
			"stateMutability": "view",
			"type": "function"
		},
		{
			"inputs": [
				{
					"internalType": "uint256",
					"name": "",
					"type": "uint256"
				}
			],
			"name": "totalUsers",
			"outputs": [
				{
					"internalType": "address",
					"name": "",
					"type": "address"
				}
			],
			"stateMutability": "view",
			"type": "function"
		},
		{
			"inputs": [
				{
					"internalType": "address",
					"name": "newOwner",
					"type": "address"
				}
			],
			"name": "transferOwnership",
			"outputs": [],
			"stateMutability": "nonpayable",
			"type": "function"
		},
		{
			"inputs": [
				{
					"internalType": "address",
					"name": "",
					"type": "address"
				},
				{
					"internalType": "uint256",
					"name": "",
					"type": "uint256"
				}
			],
			"name": "userBet",
			"outputs": [
				{
					"internalType": "enum Main.BET_TYPE",
					"name": "betType",
					"type": "uint8"
				},
				{
					"internalType": "uint256",
					"name": "amount",
					"type": "uint256"
				},
				{
					"internalType": "uint256",
					"name": "horseNum",
					"type": "uint256"
				}
			],
			"stateMutability": "view",
			"type": "function"
		}
	]
}