{
	"data": {
		"bytecode": {
			"linkReferences": {},
			"object": "60c060405234801561001057600080fd5b50600060035560056080526101f460a05260805160a0516107a661005b600039600081816101bb015261036c01526000818161011a015281816103de01526104e701526107a66000f3fe608060405234801561001057600080fd5b50600436106100b45760003560e01c80635ec01e4d116100715780635ec01e4d1461016357806367ad4ec21461016b578063a4f67b8b1461018b578063c4832364146101b6578063d826f88f146101dd578063dc73428e146101e557600080fd5b80630d7087e9146100b95780631a39d8ef146100c35780633c127736146100df5780634d7260b5146100f25780635a8bd215146101155780635d495aea1461013c575b600080fd5b6100c161020e565b005b6100cc60035481565b6040519081526020015b60405180910390f35b6100c16100ed36600461060a565b6102c9565b61010561010036600461063d565b610363565b60405190151581526020016100d6565b6100cc7f000000000000000000000000000000000000000000000000000000000000000081565b6101446103a7565b604080516001600160a01b0390931683526020830191909152016100d6565b6100cc6103da565b6100cc610179366004610656565b60006020819052908152604090205481565b61019e61019936600461063d565b61045d565b6040516001600160a01b0390911681526020016100d6565b6100cc7f000000000000000000000000000000000000000000000000000000000000000081565b6100c1610487565b61019e6101f336600461063d565b6001602052600090815260409020546001600160a01b031681565b60005b6002548110156102c6576102b46002828154811061023157610231610678565b9060005260206000200160009054906101000a90046001600160a01b03166040518060400160405280600c81526020016b01030b732103132ba101e90160a51b8152506000806002868154811061028a5761028a610678565b60009182526020808320909101546001600160a01b0316835282019290925260400190205461054f565b806102be816106a4565b915050610211565b50565b6001600160a01b0383166000908152602081905260408120839055600380548492906102f69084906106bd565b90915550506002805460018181019092557f405787fa12a823e0f2b7631cc41b3ba8828b3321ca811111fa75cd3aa3bb5ace0180546001600160a01b039095166001600160a01b031995861681179091556000928352602091909152604090912080549093161790915550565b600080826003547f000000000000000000000000000000000000000000000000000000000000000061039591906106d6565b61039f91906106bd565b101592915050565b60008060006103b46103da565b6000908152600160205260409020546003546001600160a01b0390911694909350915050565b60007f000000000000000000000000000000000000000000000000000000000000000042443360405160200161043593929190928352602083019190915260601b6bffffffffffffffffffffffff1916604082015260540190565b6040516020818303038152906040528051906020012060001c61045891906106e9565b905090565b6002818154811061046d57600080fd5b6000918252602090912001546001600160a01b0316905081565b60005b6002548110156104e157600080600283815481106104aa576104aa610678565b60009182526020808320909101546001600160a01b03168352820192909252604001812055806104d9816106a4565b91505061048a565b5060005b7f000000000000000000000000000000000000000000000000000000000000000081101561053b57600081815260016020526040902080546001600160a01b031916905580610533816106a4565b9150506104e5565b50610548600260006105bc565b6000600355565b6105968383836040516024016105679392919061070b565b60408051601f198184030181529190526020810180516001600160e01b03166367dd6ff160e01b17905261059b565b505050565b80516a636f6e736f6c652e6c6f67602083016000808483855afa5050505050565b50805460008255906000526020600020908101906102c691905b808211156105ea57600081556001016105d6565b5090565b80356001600160a01b038116811461060557600080fd5b919050565b60008060006060848603121561061f57600080fd5b610628846105ee565b95602085013595506040909401359392505050565b60006020828403121561064f57600080fd5b5035919050565b60006020828403121561066857600080fd5b610671826105ee565b9392505050565b634e487b7160e01b600052603260045260246000fd5b634e487b7160e01b600052601160045260246000fd5b6000600182016106b6576106b661068e565b5060010190565b808201808211156106d0576106d061068e565b92915050565b818103818111156106d0576106d061068e565b60008261070657634e487b7160e01b600052601260045260246000fd5b500690565b60018060a01b038416815260006020606081840152845180606085015260005b818110156107475786810183015185820160800152820161072b565b506000608082860101526080601f19601f8301168501019250505082604083015294935050505056fea26469706673582212206108af18884770d68a4821929a15af2d5d7adb3fc06b916e4c92446feaf0f65a64736f6c63430008120033",
			"opcodes": "PUSH1 0xC0 PUSH1 0x40 MSTORE CALLVALUE DUP1 ISZERO PUSH2 0x10 JUMPI PUSH1 0x0 DUP1 REVERT JUMPDEST POP PUSH1 0x0 PUSH1 0x3 SSTORE PUSH1 0x5 PUSH1 0x80 MSTORE PUSH2 0x1F4 PUSH1 0xA0 MSTORE PUSH1 0x80 MLOAD PUSH1 0xA0 MLOAD PUSH2 0x7A6 PUSH2 0x5B PUSH1 0x0 CODECOPY PUSH1 0x0 DUP2 DUP2 PUSH2 0x1BB ADD MSTORE PUSH2 0x36C ADD MSTORE PUSH1 0x0 DUP2 DUP2 PUSH2 0x11A ADD MSTORE DUP2 DUP2 PUSH2 0x3DE ADD MSTORE PUSH2 0x4E7 ADD MSTORE PUSH2 0x7A6 PUSH1 0x0 RETURN INVALID PUSH1 0x80 PUSH1 0x40 MSTORE CALLVALUE DUP1 ISZERO PUSH2 0x10 JUMPI PUSH1 0x0 DUP1 REVERT JUMPDEST POP PUSH1 0x4 CALLDATASIZE LT PUSH2 0xB4 JUMPI PUSH1 0x0 CALLDATALOAD PUSH1 0xE0 SHR DUP1 PUSH4 0x5EC01E4D GT PUSH2 0x71 JUMPI DUP1 PUSH4 0x5EC01E4D EQ PUSH2 0x163 JUMPI DUP1 PUSH4 0x67AD4EC2 EQ PUSH2 0x16B JUMPI DUP1 PUSH4 0xA4F67B8B EQ PUSH2 0x18B JUMPI DUP1 PUSH4 0xC4832364 EQ PUSH2 0x1B6 JUMPI DUP1 PUSH4 0xD826F88F EQ PUSH2 0x1DD JUMPI DUP1 PUSH4 0xDC73428E EQ PUSH2 0x1E5 JUMPI PUSH1 0x0 DUP1 REVERT JUMPDEST DUP1 PUSH4 0xD7087E9 EQ PUSH2 0xB9 JUMPI DUP1 PUSH4 0x1A39D8EF EQ PUSH2 0xC3 JUMPI DUP1 PUSH4 0x3C127736 EQ PUSH2 0xDF JUMPI DUP1 PUSH4 0x4D7260B5 EQ PUSH2 0xF2 JUMPI DUP1 PUSH4 0x5A8BD215 EQ PUSH2 0x115 JUMPI DUP1 PUSH4 0x5D495AEA EQ PUSH2 0x13C JUMPI JUMPDEST PUSH1 0x0 DUP1 REVERT JUMPDEST PUSH2 0xC1 PUSH2 0x20E JUMP JUMPDEST STOP JUMPDEST PUSH2 0xCC PUSH1 0x3 SLOAD DUP2 JUMP JUMPDEST PUSH1 0x40 MLOAD SWAP1 DUP2 MSTORE PUSH1 0x20 ADD JUMPDEST PUSH1 0x40 MLOAD DUP1 SWAP2 SUB SWAP1 RETURN JUMPDEST PUSH2 0xC1 PUSH2 0xED CALLDATASIZE PUSH1 0x4 PUSH2 0x60A JUMP JUMPDEST PUSH2 0x2C9 JUMP JUMPDEST PUSH2 0x105 PUSH2 0x100 CALLDATASIZE PUSH1 0x4 PUSH2 0x63D JUMP JUMPDEST PUSH2 0x363 JUMP JUMPDEST PUSH1 0x40 MLOAD SWAP1 ISZERO ISZERO DUP2 MSTORE PUSH1 0x20 ADD PUSH2 0xD6 JUMP JUMPDEST PUSH2 0xCC PUSH32 0x0 DUP2 JUMP JUMPDEST PUSH2 0x144 PUSH2 0x3A7 JUMP JUMPDEST PUSH1 0x40 DUP1 MLOAD PUSH1 0x1 PUSH1 0x1 PUSH1 0xA0 SHL SUB SWAP1 SWAP4 AND DUP4 MSTORE PUSH1 0x20 DUP4 ADD SWAP2 SWAP1 SWAP2 MSTORE ADD PUSH2 0xD6 JUMP JUMPDEST PUSH2 0xCC PUSH2 0x3DA JUMP JUMPDEST PUSH2 0xCC PUSH2 0x179 CALLDATASIZE PUSH1 0x4 PUSH2 0x656 JUMP JUMPDEST PUSH1 0x0 PUSH1 0x20 DUP2 SWAP1 MSTORE SWAP1 DUP2 MSTORE PUSH1 0x40 SWAP1 KECCAK256 SLOAD DUP2 JUMP JUMPDEST PUSH2 0x19E PUSH2 0x199 CALLDATASIZE PUSH1 0x4 PUSH2 0x63D JUMP JUMPDEST PUSH2 0x45D JUMP JUMPDEST PUSH1 0x40 MLOAD PUSH1 0x1 PUSH1 0x1 PUSH1 0xA0 SHL SUB SWAP1 SWAP2 AND DUP2 MSTORE PUSH1 0x20 ADD PUSH2 0xD6 JUMP JUMPDEST PUSH2 0xCC PUSH32 0x0 DUP2 JUMP JUMPDEST PUSH2 0xC1 PUSH2 0x487 JUMP JUMPDEST PUSH2 0x19E PUSH2 0x1F3 CALLDATASIZE PUSH1 0x4 PUSH2 0x63D JUMP JUMPDEST PUSH1 0x1 PUSH1 0x20 MSTORE PUSH1 0x0 SWAP1 DUP2 MSTORE PUSH1 0x40 SWAP1 KECCAK256 SLOAD PUSH1 0x1 PUSH1 0x1 PUSH1 0xA0 SHL SUB AND DUP2 JUMP JUMPDEST PUSH1 0x0 JUMPDEST PUSH1 0x2 SLOAD DUP2 LT ISZERO PUSH2 0x2C6 JUMPI PUSH2 0x2B4 PUSH1 0x2 DUP3 DUP2 SLOAD DUP2 LT PUSH2 0x231 JUMPI PUSH2 0x231 PUSH2 0x678 JUMP JUMPDEST SWAP1 PUSH1 0x0 MSTORE PUSH1 0x20 PUSH1 0x0 KECCAK256 ADD PUSH1 0x0 SWAP1 SLOAD SWAP1 PUSH2 0x100 EXP SWAP1 DIV PUSH1 0x1 PUSH1 0x1 PUSH1 0xA0 SHL SUB AND PUSH1 0x40 MLOAD DUP1 PUSH1 0x40 ADD PUSH1 0x40 MSTORE DUP1 PUSH1 0xC DUP2 MSTORE PUSH1 0x20 ADD PUSH12 0x1030B732103132BA101E901 PUSH1 0xA5 SHL DUP2 MSTORE POP PUSH1 0x0 DUP1 PUSH1 0x2 DUP7 DUP2 SLOAD DUP2 LT PUSH2 0x28A JUMPI PUSH2 0x28A PUSH2 0x678 JUMP JUMPDEST PUSH1 0x0 SWAP2 DUP3 MSTORE PUSH1 0x20 DUP1 DUP4 KECCAK256 SWAP1 SWAP2 ADD SLOAD PUSH1 0x1 PUSH1 0x1 PUSH1 0xA0 SHL SUB AND DUP4 MSTORE DUP3 ADD SWAP3 SWAP1 SWAP3 MSTORE PUSH1 0x40 ADD SWAP1 KECCAK256 SLOAD PUSH2 0x54F JUMP JUMPDEST DUP1 PUSH2 0x2BE DUP2 PUSH2 0x6A4 JUMP JUMPDEST SWAP2 POP POP PUSH2 0x211 JUMP JUMPDEST POP JUMP JUMPDEST PUSH1 0x1 PUSH1 0x1 PUSH1 0xA0 SHL SUB DUP4 AND PUSH1 0x0 SWAP1 DUP2 MSTORE PUSH1 0x20 DUP2 SWAP1 MSTORE PUSH1 0x40 DUP2 KECCAK256 DUP4 SWAP1 SSTORE PUSH1 0x3 DUP1 SLOAD DUP5 SWAP3 SWAP1 PUSH2 0x2F6 SWAP1 DUP5 SWAP1 PUSH2 0x6BD JUMP JUMPDEST SWAP1 SWAP2 SSTORE POP POP PUSH1 0x2 DUP1 SLOAD PUSH1 0x1 DUP2 DUP2 ADD SWAP1 SWAP3 SSTORE PUSH32 0x405787FA12A823E0F2B7631CC41B3BA8828B3321CA811111FA75CD3AA3BB5ACE ADD DUP1 SLOAD PUSH1 0x1 PUSH1 0x1 PUSH1 0xA0 SHL SUB SWAP1 SWAP6 AND PUSH1 0x1 PUSH1 0x1 PUSH1 0xA0 SHL SUB NOT SWAP6 DUP7 AND DUP2 OR SWAP1 SWAP2 SSTORE PUSH1 0x0 SWAP3 DUP4 MSTORE PUSH1 0x20 SWAP2 SWAP1 SWAP2 MSTORE PUSH1 0x40 SWAP1 SWAP2 KECCAK256 DUP1 SLOAD SWAP1 SWAP4 AND OR SWAP1 SWAP2 SSTORE POP JUMP JUMPDEST PUSH1 0x0 DUP1 DUP3 PUSH1 0x3 SLOAD PUSH32 0x0 PUSH2 0x395 SWAP2 SWAP1 PUSH2 0x6D6 JUMP JUMPDEST PUSH2 0x39F SWAP2 SWAP1 PUSH2 0x6BD JUMP JUMPDEST LT ISZERO SWAP3 SWAP2 POP POP JUMP JUMPDEST PUSH1 0x0 DUP1 PUSH1 0x0 PUSH2 0x3B4 PUSH2 0x3DA JUMP JUMPDEST PUSH1 0x0 SWAP1 DUP2 MSTORE PUSH1 0x1 PUSH1 0x20 MSTORE PUSH1 0x40 SWAP1 KECCAK256 SLOAD PUSH1 0x3 SLOAD PUSH1 0x1 PUSH1 0x1 PUSH1 0xA0 SHL SUB SWAP1 SWAP2 AND SWAP5 SWAP1 SWAP4 POP SWAP2 POP POP JUMP JUMPDEST PUSH1 0x0 PUSH32 0x0 TIMESTAMP PREVRANDAO CALLER PUSH1 0x40 MLOAD PUSH1 0x20 ADD PUSH2 0x435 SWAP4 SWAP3 SWAP2 SWAP1 SWAP3 DUP4 MSTORE PUSH1 0x20 DUP4 ADD SWAP2 SWAP1 SWAP2 MSTORE PUSH1 0x60 SHL PUSH12 0xFFFFFFFFFFFFFFFFFFFFFFFF NOT AND PUSH1 0x40 DUP3 ADD MSTORE PUSH1 0x54 ADD SWAP1 JUMP JUMPDEST PUSH1 0x40 MLOAD PUSH1 0x20 DUP2 DUP4 SUB SUB DUP2 MSTORE SWAP1 PUSH1 0x40 MSTORE DUP1 MLOAD SWAP1 PUSH1 0x20 ADD KECCAK256 PUSH1 0x0 SHR PUSH2 0x458 SWAP2 SWAP1 PUSH2 0x6E9 JUMP JUMPDEST SWAP1 POP SWAP1 JUMP JUMPDEST PUSH1 0x2 DUP2 DUP2 SLOAD DUP2 LT PUSH2 0x46D JUMPI PUSH1 0x0 DUP1 REVERT JUMPDEST PUSH1 0x0 SWAP2 DUP3 MSTORE PUSH1 0x20 SWAP1 SWAP2 KECCAK256 ADD SLOAD PUSH1 0x1 PUSH1 0x1 PUSH1 0xA0 SHL SUB AND SWAP1 POP DUP2 JUMP JUMPDEST PUSH1 0x0 JUMPDEST PUSH1 0x2 SLOAD DUP2 LT ISZERO PUSH2 0x4E1 JUMPI PUSH1 0x0 DUP1 PUSH1 0x2 DUP4 DUP2 SLOAD DUP2 LT PUSH2 0x4AA JUMPI PUSH2 0x4AA PUSH2 0x678 JUMP JUMPDEST PUSH1 0x0 SWAP2 DUP3 MSTORE PUSH1 0x20 DUP1 DUP4 KECCAK256 SWAP1 SWAP2 ADD SLOAD PUSH1 0x1 PUSH1 0x1 PUSH1 0xA0 SHL SUB AND DUP4 MSTORE DUP3 ADD SWAP3 SWAP1 SWAP3 MSTORE PUSH1 0x40 ADD DUP2 KECCAK256 SSTORE DUP1 PUSH2 0x4D9 DUP2 PUSH2 0x6A4 JUMP JUMPDEST SWAP2 POP POP PUSH2 0x48A JUMP JUMPDEST POP PUSH1 0x0 JUMPDEST PUSH32 0x0 DUP2 LT ISZERO PUSH2 0x53B JUMPI PUSH1 0x0 DUP2 DUP2 MSTORE PUSH1 0x1 PUSH1 0x20 MSTORE PUSH1 0x40 SWAP1 KECCAK256 DUP1 SLOAD PUSH1 0x1 PUSH1 0x1 PUSH1 0xA0 SHL SUB NOT AND SWAP1 SSTORE DUP1 PUSH2 0x533 DUP2 PUSH2 0x6A4 JUMP JUMPDEST SWAP2 POP POP PUSH2 0x4E5 JUMP JUMPDEST POP PUSH2 0x548 PUSH1 0x2 PUSH1 0x0 PUSH2 0x5BC JUMP JUMPDEST PUSH1 0x0 PUSH1 0x3 SSTORE JUMP JUMPDEST PUSH2 0x596 DUP4 DUP4 DUP4 PUSH1 0x40 MLOAD PUSH1 0x24 ADD PUSH2 0x567 SWAP4 SWAP3 SWAP2 SWAP1 PUSH2 0x70B JUMP JUMPDEST PUSH1 0x40 DUP1 MLOAD PUSH1 0x1F NOT DUP2 DUP5 SUB ADD DUP2 MSTORE SWAP2 SWAP1 MSTORE PUSH1 0x20 DUP2 ADD DUP1 MLOAD PUSH1 0x1 PUSH1 0x1 PUSH1 0xE0 SHL SUB AND PUSH4 0x67DD6FF1 PUSH1 0xE0 SHL OR SWAP1 MSTORE PUSH2 0x59B JUMP JUMPDEST POP POP POP JUMP JUMPDEST DUP1 MLOAD PUSH11 0x636F6E736F6C652E6C6F67 PUSH1 0x20 DUP4 ADD PUSH1 0x0 DUP1 DUP5 DUP4 DUP6 GAS STATICCALL POP POP POP POP POP JUMP JUMPDEST POP DUP1 SLOAD PUSH1 0x0 DUP3 SSTORE SWAP1 PUSH1 0x0 MSTORE PUSH1 0x20 PUSH1 0x0 KECCAK256 SWAP1 DUP2 ADD SWAP1 PUSH2 0x2C6 SWAP2 SWAP1 JUMPDEST DUP1 DUP3 GT ISZERO PUSH2 0x5EA JUMPI PUSH1 0x0 DUP2 SSTORE PUSH1 0x1 ADD PUSH2 0x5D6 JUMP JUMPDEST POP SWAP1 JUMP JUMPDEST DUP1 CALLDATALOAD PUSH1 0x1 PUSH1 0x1 PUSH1 0xA0 SHL SUB DUP2 AND DUP2 EQ PUSH2 0x605 JUMPI PUSH1 0x0 DUP1 REVERT JUMPDEST SWAP2 SWAP1 POP JUMP JUMPDEST PUSH1 0x0 DUP1 PUSH1 0x0 PUSH1 0x60 DUP5 DUP7 SUB SLT ISZERO PUSH2 0x61F JUMPI PUSH1 0x0 DUP1 REVERT JUMPDEST PUSH2 0x628 DUP5 PUSH2 0x5EE JUMP JUMPDEST SWAP6 PUSH1 0x20 DUP6 ADD CALLDATALOAD SWAP6 POP PUSH1 0x40 SWAP1 SWAP5 ADD CALLDATALOAD SWAP4 SWAP3 POP POP POP JUMP JUMPDEST PUSH1 0x0 PUSH1 0x20 DUP3 DUP5 SUB SLT ISZERO PUSH2 0x64F JUMPI PUSH1 0x0 DUP1 REVERT JUMPDEST POP CALLDATALOAD SWAP2 SWAP1 POP JUMP JUMPDEST PUSH1 0x0 PUSH1 0x20 DUP3 DUP5 SUB SLT ISZERO PUSH2 0x668 JUMPI PUSH1 0x0 DUP1 REVERT JUMPDEST PUSH2 0x671 DUP3 PUSH2 0x5EE JUMP JUMPDEST SWAP4 SWAP3 POP POP POP JUMP JUMPDEST PUSH4 0x4E487B71 PUSH1 0xE0 SHL PUSH1 0x0 MSTORE PUSH1 0x32 PUSH1 0x4 MSTORE PUSH1 0x24 PUSH1 0x0 REVERT JUMPDEST PUSH4 0x4E487B71 PUSH1 0xE0 SHL PUSH1 0x0 MSTORE PUSH1 0x11 PUSH1 0x4 MSTORE PUSH1 0x24 PUSH1 0x0 REVERT JUMPDEST PUSH1 0x0 PUSH1 0x1 DUP3 ADD PUSH2 0x6B6 JUMPI PUSH2 0x6B6 PUSH2 0x68E JUMP JUMPDEST POP PUSH1 0x1 ADD SWAP1 JUMP JUMPDEST DUP1 DUP3 ADD DUP1 DUP3 GT ISZERO PUSH2 0x6D0 JUMPI PUSH2 0x6D0 PUSH2 0x68E JUMP JUMPDEST SWAP3 SWAP2 POP POP JUMP JUMPDEST DUP2 DUP2 SUB DUP2 DUP2 GT ISZERO PUSH2 0x6D0 JUMPI PUSH2 0x6D0 PUSH2 0x68E JUMP JUMPDEST PUSH1 0x0 DUP3 PUSH2 0x706 JUMPI PUSH4 0x4E487B71 PUSH1 0xE0 SHL PUSH1 0x0 MSTORE PUSH1 0x12 PUSH1 0x4 MSTORE PUSH1 0x24 PUSH1 0x0 REVERT JUMPDEST POP MOD SWAP1 JUMP JUMPDEST PUSH1 0x1 DUP1 PUSH1 0xA0 SHL SUB DUP5 AND DUP2 MSTORE PUSH1 0x0 PUSH1 0x20 PUSH1 0x60 DUP2 DUP5 ADD MSTORE DUP5 MLOAD DUP1 PUSH1 0x60 DUP6 ADD MSTORE PUSH1 0x0 JUMPDEST DUP2 DUP2 LT ISZERO PUSH2 0x747 JUMPI DUP7 DUP2 ADD DUP4 ADD MLOAD DUP6 DUP3 ADD PUSH1 0x80 ADD MSTORE DUP3 ADD PUSH2 0x72B JUMP JUMPDEST POP PUSH1 0x0 PUSH1 0x80 DUP3 DUP7 ADD ADD MSTORE PUSH1 0x80 PUSH1 0x1F NOT PUSH1 0x1F DUP4 ADD AND DUP6 ADD ADD SWAP3 POP POP POP DUP3 PUSH1 0x40 DUP4 ADD MSTORE SWAP5 SWAP4 POP POP POP POP JUMP INVALID LOG2 PUSH5 0x6970667358 0x22 SLT KECCAK256 PUSH2 0x8AF XOR DUP9 SELFBALANCE PUSH17 0xD68A4821929A15AF2D5D7ADB3FC06B916E 0x4C SWAP3 PREVRANDAO PUSH16 0xEAF0F65A64736F6C6343000812003300 "
		},
		"gasEstimates": {
			"creation": {
				"codeDepositCost": "391600",
				"executionCost": "infinite",
				"totalCost": "infinite"
			},
			"external": {
				"BETCAP()": "infinite",
				"HORSES()": "infinite",
				"horseBettor(uint256)": "2587",
				"leftAmountForBets(uint256)": "infinite",
				"listAllUsers()": "infinite",
				"pickWinner()": "infinite",
				"random()": "infinite",
				"registerUser(address,uint256,uint256)": "119687",
				"reset()": "infinite",
				"totalAmount()": "2307",
				"totalUsers(uint256)": "4658",
				"userBet(address)": "2533"
			}
		},
		"methodIdentifiers": {
			"BETCAP()": "c4832364",
			"HORSES()": "5a8bd215",
			"horseBettor(uint256)": "dc73428e",
			"leftAmountForBets(uint256)": "4d7260b5",
			"listAllUsers()": "0d7087e9",
			"pickWinner()": "5d495aea",
			"random()": "5ec01e4d",
			"registerUser(address,uint256,uint256)": "3c127736",
			"reset()": "d826f88f",
			"totalAmount()": "1a39d8ef",
			"totalUsers(uint256)": "a4f67b8b",
			"userBet(address)": "67ad4ec2"
		}
	},
	"abi": [
		{
			"inputs": [],
			"stateMutability": "nonpayable",
			"type": "constructor"
		},
		{
			"inputs": [],
			"name": "BETCAP",
			"outputs": [
				{
					"internalType": "uint256",
					"name": "",
					"type": "uint256"
				}
			],
			"stateMutability": "view",
			"type": "function"
		},
		{
			"inputs": [],
			"name": "HORSES",
			"outputs": [
				{
					"internalType": "uint256",
					"name": "",
					"type": "uint256"
				}
			],
			"stateMutability": "view",
			"type": "function"
		},
		{
			"inputs": [
				{
					"internalType": "uint256",
					"name": "",
					"type": "uint256"
				}
			],
			"name": "horseBettor",
			"outputs": [
				{
					"internalType": "address",
					"name": "",
					"type": "address"
				}
			],
			"stateMutability": "view",
			"type": "function"
		},
		{
			"inputs": [
				{
					"internalType": "uint256",
					"name": "_betAmount",
					"type": "uint256"
				}
			],
			"name": "leftAmountForBets",
			"outputs": [
				{
					"internalType": "bool",
					"name": "",
					"type": "bool"
				}
			],
			"stateMutability": "view",
			"type": "function"
		},
		{
			"inputs": [],
			"name": "listAllUsers",
			"outputs": [],
			"stateMutability": "view",
			"type": "function"
		},
		{
			"inputs": [],
			"name": "pickWinner",
			"outputs": [
				{
					"internalType": "address",
					"name": "",
					"type": "address"
				},
				{
					"internalType": "uint256",
					"name": "",
					"type": "uint256"
				}
			],
			"stateMutability": "view",
			"type": "function"
		},
		{
			"inputs": [],
			"name": "random",
			"outputs": [
				{
					"internalType": "uint256",
					"name": "",
					"type": "uint256"
				}
			],
			"stateMutability": "view",
			"type": "function"
		},
		{
			"inputs": [
				{
					"internalType": "address",
					"name": "_user",
					"type": "address"
				},
				{
					"internalType": "uint256",
					"name": "_betAmount",
					"type": "uint256"
				},
				{
					"internalType": "uint256",
					"name": "_horse",
					"type": "uint256"
				}
			],
			"name": "registerUser",
			"outputs": [],
			"stateMutability": "nonpayable",
			"type": "function"
		},
		{
			"inputs": [],
			"name": "reset",
			"outputs": [],
			"stateMutability": "nonpayable",
			"type": "function"
		},
		{
			"inputs": [],
			"name": "totalAmount",
			"outputs": [
				{
					"internalType": "uint256",
					"name": "",
					"type": "uint256"
				}
			],
			"stateMutability": "view",
			"type": "function"
		},
		{
			"inputs": [
				{
					"internalType": "uint256",
					"name": "",
					"type": "uint256"
				}
			],
			"name": "totalUsers",
			"outputs": [
				{
					"internalType": "address",
					"name": "",
					"type": "address"
				}
			],
			"stateMutability": "view",
			"type": "function"
		},
		{
			"inputs": [
				{
					"internalType": "address",
					"name": "",
					"type": "address"
				}
			],
			"name": "userBet",
			"outputs": [
				{
					"internalType": "uint256",
					"name": "",
					"type": "uint256"
				}
			],
			"stateMutability": "view",
			"type": "function"
		}
	]
}