{
	"data": {
		"bytecode": {
			"linkReferences": {},
			"object": "60c060405234801561001057600080fd5b50600060035560056080526101f460a05260805160a05161139e61005b600039600081816102b4015261049e0152600081816101ae01528181610a560152610be7015261139e6000f3fe608060405234801561001057600080fd5b50600436106101165760003560e01c806381077173116100a2578063b863bd3711610071578063b863bd371461029c578063c4832364146102af578063c4fc3b2e146102d6578063debd24bd146102ed578063f3de9cfa1461030057600080fd5b8063810771731461023657806383c260721461024957806385d3db1114610251578063a4f67b8b1461027157600080fd5b80634d7260b5116100e95780634d7260b5146101865780635a8bd215146101a95780635d495aea146101d057806367ad4ec2146101e857806371d58cce1461022357600080fd5b80630b0705c81461011b5780630d7087e9146101455780631a39d8ef1461014f5780631d637f4214610166575b600080fd5b61012e610129366004610e27565b610313565b60405161013c929190610e84565b60405180910390f35b61014d610435565b005b61015860035481565b60405190815260200161013c565b610158610174366004610ec2565b60076020526000908152604090205481565b610199610194366004610e27565b610487565b604051901515815260200161013c565b6101587f000000000000000000000000000000000000000000000000000000000000000081565b6101d86104ca565b60405161013c9493929190610ee4565b6102156101f6366004610ec2565b6000602081905290815260409020805460019091015460ff9091169082565b60405161013c929190610f78565b61014d610231366004610f96565b61059b565b61014d610244366004610fb8565b610845565b61014d6109d1565b60408051600181526002602082015260039181019190915260600161013c565b61028461027f366004610e27565b6109fc565b6040516001600160a01b03909116815260200161013c565b6101586102aa366004610e27565b610a26565b6101587f000000000000000000000000000000000000000000000000000000000000000081565b6102de610aa2565b60405161013c93929190611037565b6102846102fb366004610f96565b610b44565b61014d61030e366004611093565b610b7c565b60606000806103226001610a26565b6000818152600160209081526040808320805482518185028101850190935280835294955092938493919283018282801561038657602002820191906000526020600020905b81546001600160a01b03168152600190910190602001808311610368575b505050505090505b805160000361040f576103a16002610a26565b600081815260016020908152604091829020805483518184028101840190945280845293965091929083018282801561040357602002820191906000526020600020905b81546001600160a01b031681526001909101906020018083116103e5575b5050505050905061038e565b85815161041c919061116b565b600354610429919061119e565b90969095509350505050565b60005b6002548110156104845761047260028281548110610458576104586111b2565b6000918252602090912001546001600160a01b0316610ce7565b8061047c816111c8565b915050610438565b50565b6000808260035461049891906111e1565b6104c2907f00000000000000000000000000000000000000000000000000000000000000006111f4565b101592915050565b6060806060806000806104dd6001610313565b915091506000806104ee6002610313565b915091506000806104ff6004610313565b604080516003808252608082019092529294509092506000919060208201606080368337019050509050858160008151811061053d5761053d6111b2565b602002602001018181525050818160018151811061055d5761055d6111b2565b602002602001018181525050838160028151811061057d5761057d6111b2565b6020908102919091010152959a939950909750939550909350505050565b6000828152600160209081526040808320805482518185028101850190935280835291929091908301828280156105fb57602002820191906000526020600020905b81546001600160a01b031681526001909101906020018083116105dd575b5050505050905060005b815181101561083f576000806000848481518110610625576106256111b2565b6020908102919091018101516001600160a01b03168252810191909152604090810160002081518083019092528054829060ff16600281111561066a5761066a610f62565b600281111561067b5761067b610f62565b81526001919091015460209091015290506000815160028111156106a1576106a1610f62565b1480156106ae5750836001145b156107165760208101516106c390600661116b565b600760008585815181106106d9576106d96111b2565b60200260200101516001600160a01b03166001600160a01b03168152602001908152602001600020600082825461071091906111e1565b90915550505b60018151600281111561072b5761072b610f62565b148015610739575060028411155b156107a157602081015161074e90600461116b565b60076000858581518110610764576107646111b2565b60200260200101516001600160a01b03166001600160a01b03168152602001908152602001600020600082825461079b91906111e1565b90915550505b6002815160028111156107b6576107b6610f62565b1480156107c4575060038411155b1561082c5760208101516107d990600261116b565b600760008585815181106107ef576107ef6111b2565b60200260200101516001600160a01b03166001600160a01b03168152602001908152602001600020600082825461082691906111e1565b90915550505b5080610837816111c8565b915050610605565b50505050565b6108796040518060400160405280601381526020017224b739b4b232903932b3b4b9ba32b92ab9b2b960691b815250610d2f565b6002600182900361088c57506000610898565b81600203610898575060015b600060405180604001604052808360028111156108b7576108b7610f62565b815260209081018790526001600160a01b03881660009081529081905260409020815181549293508392829060ff191660018360028111156108fb576108fb610f62565b021790555060208201518160010155905050846003600082825461091f91906111e1565b90915550506002805460018181019092557f405787fa12a823e0f2b7631cc41b3ba8828b3321ca811111fa75cd3aa3bb5ace0180546001600160a01b0389166001600160a01b031991821681179092556000878152602084815260408083208054968701815583529181902090940180549092169092179055805180820190915260118152702237b732903932b3b4b9ba32b92ab9b2b960791b918101919091526109c990610d2f565b505050505050565b6001600260036109e1838061059b565b6109ec82600261059b565b6109f781600361059b565b505050565b60028181548110610a0c57600080fd5b6000918252602090912001546001600160a01b0316905081565b604080514260208201526bffffffffffffffffffffffff193360601b1691810191909152605481018290526000907f0000000000000000000000000000000000000000000000000000000000000000906074016040516020818303038152906040528051906020012060001c610a9c9190611207565b50919050565b600480548190610ab19061121b565b80601f0160208091040260200160405190810160405280929190818152602001828054610add9061121b565b8015610b2a5780601f10610aff57610100808354040283529160200191610b2a565b820191906000526020600020905b815481529060010190602001808311610b0d57829003601f168201915b505050506001830154600290930154919260ff1691905083565b60016020528160005260406000208181548110610b6057600080fd5b6000918252602090912001546001600160a01b03169150829050565b60005b600254811015610be15760008060028381548110610b9f57610b9f6111b2565b60009182526020808320909101546001600160a01b031683528201929092526040018120805460ff191681556001015580610bd9816111c8565b915050610b7f565b5060005b7f0000000000000000000000000000000000000000000000000000000000000000811015610c36576000818152600160205260408120610c2491610d8f565b80610c2e816111c8565b915050610be5565b506040805160008152602081019182905251610c5491600291610dad565b50600060038190556040805160608101825284815260208101929092528101610c7f426102586111e1565b905280516004908190610c929082611295565b50602082015160018083018054909160ff19909116908381811115610cb957610cb9610f62565b021790555060409190910151600290910155801515600103610ce3576005805460ff191660011790555b5050565b6040516001600160a01b03821660248201526104849060440160408051601f198184030181529190526020810180516001600160e01b031663161765e160e11b179052610d6e565b61048481604051602401610d439190611355565b60408051601f198184030181529190526020810180516001600160e01b031663104c13eb60e21b1790525b80516a636f6e736f6c652e6c6f67602083016000808483855afa5050505050565b50805460008255906000526020600020908101906104849190610e12565b828054828255906000526020600020908101928215610e02579160200282015b82811115610e0257825182546001600160a01b0319166001600160a01b03909116178255602090920191600190910190610dcd565b50610e0e929150610e12565b5090565b5b80821115610e0e5760008155600101610e13565b600060208284031215610e3957600080fd5b5035919050565b600081518084526020808501945080840160005b83811015610e795781516001600160a01b031687529582019590820190600101610e54565b509495945050505050565b604081526000610e976040830185610e40565b90508260208301529392505050565b80356001600160a01b0381168114610ebd57600080fd5b919050565b600060208284031215610ed457600080fd5b610edd82610ea6565b9392505050565b608081526000610ef76080830187610e40565b602083820381850152610f0a8288610e40565b91508382036040850152610f1e8287610e40565b8481036060860152855180825282870193509082019060005b81811015610f5357845183529383019391830191600101610f37565b50909998505050505050505050565b634e487b7160e01b600052602160045260246000fd5b6040810160038410610f8c57610f8c610f62565b9281526020015290565b60008060408385031215610fa957600080fd5b50508035926020909101359150565b60008060008060808587031215610fce57600080fd5b610fd785610ea6565b966020860135965060408601359560600135945092505050565b6000815180845260005b8181101561101757602081850181015186830182015201610ffb565b506000602082860101526020601f19601f83011685010191505092915050565b60608152600061104a6060830186610ff1565b90506002841061105c5761105c610f62565b602082019390935260400152919050565b634e487b7160e01b600052604160045260246000fd5b80358015158114610ebd57600080fd5b600080604083850312156110a657600080fd5b823567ffffffffffffffff808211156110be57600080fd5b818501915085601f8301126110d257600080fd5b8135818111156110e4576110e461106d565b604051601f8201601f19908116603f0116810190838211818310171561110c5761110c61106d565b8160405282815288602084870101111561112557600080fd5b82602086016020830137600060208483010152809650505050505061114c60208401611083565b90509250929050565b634e487b7160e01b600052601160045260246000fd5b808202811582820484141761118257611182611155565b92915050565b634e487b7160e01b600052601260045260246000fd5b6000826111ad576111ad611188565b500490565b634e487b7160e01b600052603260045260246000fd5b6000600182016111da576111da611155565b5060010190565b8082018082111561118257611182611155565b8181038181111561118257611182611155565b60008261121657611216611188565b500690565b600181811c9082168061122f57607f821691505b602082108103610a9c57634e487b7160e01b600052602260045260246000fd5b601f8211156109f757600081815260208120601f850160051c810160208610156112765750805b601f850160051c820191505b818110156109c957828155600101611282565b815167ffffffffffffffff8111156112af576112af61106d565b6112c3816112bd845461121b565b8461124f565b602080601f8311600181146112f857600084156112e05750858301515b600019600386901b1c1916600185901b1785556109c9565b600085815260208120601f198616915b8281101561132757888601518255948401946001909101908401611308565b50858210156113455787850151600019600388901b60f8161c191681555b5050505050600190811b01905550565b602081526000610edd6020830184610ff156fea26469706673582212204c42bc4c65359eb3f2c9d06a5db1d7ab5039aa2d4acb86f912d14176f7d7619f64736f6c63430008120033",
			"opcodes": "PUSH1 0xC0 PUSH1 0x40 MSTORE CALLVALUE DUP1 ISZERO PUSH2 0x10 JUMPI PUSH1 0x0 DUP1 REVERT JUMPDEST POP PUSH1 0x0 PUSH1 0x3 SSTORE PUSH1 0x5 PUSH1 0x80 MSTORE PUSH2 0x1F4 PUSH1 0xA0 MSTORE PUSH1 0x80 MLOAD PUSH1 0xA0 MLOAD PUSH2 0x139E PUSH2 0x5B PUSH1 0x0 CODECOPY PUSH1 0x0 DUP2 DUP2 PUSH2 0x2B4 ADD MSTORE PUSH2 0x49E ADD MSTORE PUSH1 0x0 DUP2 DUP2 PUSH2 0x1AE ADD MSTORE DUP2 DUP2 PUSH2 0xA56 ADD MSTORE PUSH2 0xBE7 ADD MSTORE PUSH2 0x139E PUSH1 0x0 RETURN INVALID PUSH1 0x80 PUSH1 0x40 MSTORE CALLVALUE DUP1 ISZERO PUSH2 0x10 JUMPI PUSH1 0x0 DUP1 REVERT JUMPDEST POP PUSH1 0x4 CALLDATASIZE LT PUSH2 0x116 JUMPI PUSH1 0x0 CALLDATALOAD PUSH1 0xE0 SHR DUP1 PUSH4 0x81077173 GT PUSH2 0xA2 JUMPI DUP1 PUSH4 0xB863BD37 GT PUSH2 0x71 JUMPI DUP1 PUSH4 0xB863BD37 EQ PUSH2 0x29C JUMPI DUP1 PUSH4 0xC4832364 EQ PUSH2 0x2AF JUMPI DUP1 PUSH4 0xC4FC3B2E EQ PUSH2 0x2D6 JUMPI DUP1 PUSH4 0xDEBD24BD EQ PUSH2 0x2ED JUMPI DUP1 PUSH4 0xF3DE9CFA EQ PUSH2 0x300 JUMPI PUSH1 0x0 DUP1 REVERT JUMPDEST DUP1 PUSH4 0x81077173 EQ PUSH2 0x236 JUMPI DUP1 PUSH4 0x83C26072 EQ PUSH2 0x249 JUMPI DUP1 PUSH4 0x85D3DB11 EQ PUSH2 0x251 JUMPI DUP1 PUSH4 0xA4F67B8B EQ PUSH2 0x271 JUMPI PUSH1 0x0 DUP1 REVERT JUMPDEST DUP1 PUSH4 0x4D7260B5 GT PUSH2 0xE9 JUMPI DUP1 PUSH4 0x4D7260B5 EQ PUSH2 0x186 JUMPI DUP1 PUSH4 0x5A8BD215 EQ PUSH2 0x1A9 JUMPI DUP1 PUSH4 0x5D495AEA EQ PUSH2 0x1D0 JUMPI DUP1 PUSH4 0x67AD4EC2 EQ PUSH2 0x1E8 JUMPI DUP1 PUSH4 0x71D58CCE EQ PUSH2 0x223 JUMPI PUSH1 0x0 DUP1 REVERT JUMPDEST DUP1 PUSH4 0xB0705C8 EQ PUSH2 0x11B JUMPI DUP1 PUSH4 0xD7087E9 EQ PUSH2 0x145 JUMPI DUP1 PUSH4 0x1A39D8EF EQ PUSH2 0x14F JUMPI DUP1 PUSH4 0x1D637F42 EQ PUSH2 0x166 JUMPI JUMPDEST PUSH1 0x0 DUP1 REVERT JUMPDEST PUSH2 0x12E PUSH2 0x129 CALLDATASIZE PUSH1 0x4 PUSH2 0xE27 JUMP JUMPDEST PUSH2 0x313 JUMP JUMPDEST PUSH1 0x40 MLOAD PUSH2 0x13C SWAP3 SWAP2 SWAP1 PUSH2 0xE84 JUMP JUMPDEST PUSH1 0x40 MLOAD DUP1 SWAP2 SUB SWAP1 RETURN JUMPDEST PUSH2 0x14D PUSH2 0x435 JUMP JUMPDEST STOP JUMPDEST PUSH2 0x158 PUSH1 0x3 SLOAD DUP2 JUMP JUMPDEST PUSH1 0x40 MLOAD SWAP1 DUP2 MSTORE PUSH1 0x20 ADD PUSH2 0x13C JUMP JUMPDEST PUSH2 0x158 PUSH2 0x174 CALLDATASIZE PUSH1 0x4 PUSH2 0xEC2 JUMP JUMPDEST PUSH1 0x7 PUSH1 0x20 MSTORE PUSH1 0x0 SWAP1 DUP2 MSTORE PUSH1 0x40 SWAP1 KECCAK256 SLOAD DUP2 JUMP JUMPDEST PUSH2 0x199 PUSH2 0x194 CALLDATASIZE PUSH1 0x4 PUSH2 0xE27 JUMP JUMPDEST PUSH2 0x487 JUMP JUMPDEST PUSH1 0x40 MLOAD SWAP1 ISZERO ISZERO DUP2 MSTORE PUSH1 0x20 ADD PUSH2 0x13C JUMP JUMPDEST PUSH2 0x158 PUSH32 0x0 DUP2 JUMP JUMPDEST PUSH2 0x1D8 PUSH2 0x4CA JUMP JUMPDEST PUSH1 0x40 MLOAD PUSH2 0x13C SWAP5 SWAP4 SWAP3 SWAP2 SWAP1 PUSH2 0xEE4 JUMP JUMPDEST PUSH2 0x215 PUSH2 0x1F6 CALLDATASIZE PUSH1 0x4 PUSH2 0xEC2 JUMP JUMPDEST PUSH1 0x0 PUSH1 0x20 DUP2 SWAP1 MSTORE SWAP1 DUP2 MSTORE PUSH1 0x40 SWAP1 KECCAK256 DUP1 SLOAD PUSH1 0x1 SWAP1 SWAP2 ADD SLOAD PUSH1 0xFF SWAP1 SWAP2 AND SWAP1 DUP3 JUMP JUMPDEST PUSH1 0x40 MLOAD PUSH2 0x13C SWAP3 SWAP2 SWAP1 PUSH2 0xF78 JUMP JUMPDEST PUSH2 0x14D PUSH2 0x231 CALLDATASIZE PUSH1 0x4 PUSH2 0xF96 JUMP JUMPDEST PUSH2 0x59B JUMP JUMPDEST PUSH2 0x14D PUSH2 0x244 CALLDATASIZE PUSH1 0x4 PUSH2 0xFB8 JUMP JUMPDEST PUSH2 0x845 JUMP JUMPDEST PUSH2 0x14D PUSH2 0x9D1 JUMP JUMPDEST PUSH1 0x40 DUP1 MLOAD PUSH1 0x1 DUP2 MSTORE PUSH1 0x2 PUSH1 0x20 DUP3 ADD MSTORE PUSH1 0x3 SWAP2 DUP2 ADD SWAP2 SWAP1 SWAP2 MSTORE PUSH1 0x60 ADD PUSH2 0x13C JUMP JUMPDEST PUSH2 0x284 PUSH2 0x27F CALLDATASIZE PUSH1 0x4 PUSH2 0xE27 JUMP JUMPDEST PUSH2 0x9FC JUMP JUMPDEST PUSH1 0x40 MLOAD PUSH1 0x1 PUSH1 0x1 PUSH1 0xA0 SHL SUB SWAP1 SWAP2 AND DUP2 MSTORE PUSH1 0x20 ADD PUSH2 0x13C JUMP JUMPDEST PUSH2 0x158 PUSH2 0x2AA CALLDATASIZE PUSH1 0x4 PUSH2 0xE27 JUMP JUMPDEST PUSH2 0xA26 JUMP JUMPDEST PUSH2 0x158 PUSH32 0x0 DUP2 JUMP JUMPDEST PUSH2 0x2DE PUSH2 0xAA2 JUMP JUMPDEST PUSH1 0x40 MLOAD PUSH2 0x13C SWAP4 SWAP3 SWAP2 SWAP1 PUSH2 0x1037 JUMP JUMPDEST PUSH2 0x284 PUSH2 0x2FB CALLDATASIZE PUSH1 0x4 PUSH2 0xF96 JUMP JUMPDEST PUSH2 0xB44 JUMP JUMPDEST PUSH2 0x14D PUSH2 0x30E CALLDATASIZE PUSH1 0x4 PUSH2 0x1093 JUMP JUMPDEST PUSH2 0xB7C JUMP JUMPDEST PUSH1 0x60 PUSH1 0x0 DUP1 PUSH2 0x322 PUSH1 0x1 PUSH2 0xA26 JUMP JUMPDEST PUSH1 0x0 DUP2 DUP2 MSTORE PUSH1 0x1 PUSH1 0x20 SWAP1 DUP2 MSTORE PUSH1 0x40 DUP1 DUP4 KECCAK256 DUP1 SLOAD DUP3 MLOAD DUP2 DUP6 MUL DUP2 ADD DUP6 ADD SWAP1 SWAP4 MSTORE DUP1 DUP4 MSTORE SWAP5 SWAP6 POP SWAP3 SWAP4 DUP5 SWAP4 SWAP2 SWAP3 DUP4 ADD DUP3 DUP3 DUP1 ISZERO PUSH2 0x386 JUMPI PUSH1 0x20 MUL DUP3 ADD SWAP2 SWAP1 PUSH1 0x0 MSTORE PUSH1 0x20 PUSH1 0x0 KECCAK256 SWAP1 JUMPDEST DUP2 SLOAD PUSH1 0x1 PUSH1 0x1 PUSH1 0xA0 SHL SUB AND DUP2 MSTORE PUSH1 0x1 SWAP1 SWAP2 ADD SWAP1 PUSH1 0x20 ADD DUP1 DUP4 GT PUSH2 0x368 JUMPI JUMPDEST POP POP POP POP POP SWAP1 POP JUMPDEST DUP1 MLOAD PUSH1 0x0 SUB PUSH2 0x40F JUMPI PUSH2 0x3A1 PUSH1 0x2 PUSH2 0xA26 JUMP JUMPDEST PUSH1 0x0 DUP2 DUP2 MSTORE PUSH1 0x1 PUSH1 0x20 SWAP1 DUP2 MSTORE PUSH1 0x40 SWAP2 DUP3 SWAP1 KECCAK256 DUP1 SLOAD DUP4 MLOAD DUP2 DUP5 MUL DUP2 ADD DUP5 ADD SWAP1 SWAP5 MSTORE DUP1 DUP5 MSTORE SWAP4 SWAP7 POP SWAP2 SWAP3 SWAP1 DUP4 ADD DUP3 DUP3 DUP1 ISZERO PUSH2 0x403 JUMPI PUSH1 0x20 MUL DUP3 ADD SWAP2 SWAP1 PUSH1 0x0 MSTORE PUSH1 0x20 PUSH1 0x0 KECCAK256 SWAP1 JUMPDEST DUP2 SLOAD PUSH1 0x1 PUSH1 0x1 PUSH1 0xA0 SHL SUB AND DUP2 MSTORE PUSH1 0x1 SWAP1 SWAP2 ADD SWAP1 PUSH1 0x20 ADD DUP1 DUP4 GT PUSH2 0x3E5 JUMPI JUMPDEST POP POP POP POP POP SWAP1 POP PUSH2 0x38E JUMP JUMPDEST DUP6 DUP2 MLOAD PUSH2 0x41C SWAP2 SWAP1 PUSH2 0x116B JUMP JUMPDEST PUSH1 0x3 SLOAD PUSH2 0x429 SWAP2 SWAP1 PUSH2 0x119E JUMP JUMPDEST SWAP1 SWAP7 SWAP1 SWAP6 POP SWAP4 POP POP POP POP JUMP JUMPDEST PUSH1 0x0 JUMPDEST PUSH1 0x2 SLOAD DUP2 LT ISZERO PUSH2 0x484 JUMPI PUSH2 0x472 PUSH1 0x2 DUP3 DUP2 SLOAD DUP2 LT PUSH2 0x458 JUMPI PUSH2 0x458 PUSH2 0x11B2 JUMP JUMPDEST PUSH1 0x0 SWAP2 DUP3 MSTORE PUSH1 0x20 SWAP1 SWAP2 KECCAK256 ADD SLOAD PUSH1 0x1 PUSH1 0x1 PUSH1 0xA0 SHL SUB AND PUSH2 0xCE7 JUMP JUMPDEST DUP1 PUSH2 0x47C DUP2 PUSH2 0x11C8 JUMP JUMPDEST SWAP2 POP POP PUSH2 0x438 JUMP JUMPDEST POP JUMP JUMPDEST PUSH1 0x0 DUP1 DUP3 PUSH1 0x3 SLOAD PUSH2 0x498 SWAP2 SWAP1 PUSH2 0x11E1 JUMP JUMPDEST PUSH2 0x4C2 SWAP1 PUSH32 0x0 PUSH2 0x11F4 JUMP JUMPDEST LT ISZERO SWAP3 SWAP2 POP POP JUMP JUMPDEST PUSH1 0x60 DUP1 PUSH1 0x60 DUP1 PUSH1 0x0 DUP1 PUSH2 0x4DD PUSH1 0x1 PUSH2 0x313 JUMP JUMPDEST SWAP2 POP SWAP2 POP PUSH1 0x0 DUP1 PUSH2 0x4EE PUSH1 0x2 PUSH2 0x313 JUMP JUMPDEST SWAP2 POP SWAP2 POP PUSH1 0x0 DUP1 PUSH2 0x4FF PUSH1 0x4 PUSH2 0x313 JUMP JUMPDEST PUSH1 0x40 DUP1 MLOAD PUSH1 0x3 DUP1 DUP3 MSTORE PUSH1 0x80 DUP3 ADD SWAP1 SWAP3 MSTORE SWAP3 SWAP5 POP SWAP1 SWAP3 POP PUSH1 0x0 SWAP2 SWAP1 PUSH1 0x20 DUP3 ADD PUSH1 0x60 DUP1 CALLDATASIZE DUP4 CALLDATACOPY ADD SWAP1 POP POP SWAP1 POP DUP6 DUP2 PUSH1 0x0 DUP2 MLOAD DUP2 LT PUSH2 0x53D JUMPI PUSH2 0x53D PUSH2 0x11B2 JUMP JUMPDEST PUSH1 0x20 MUL PUSH1 0x20 ADD ADD DUP2 DUP2 MSTORE POP POP DUP2 DUP2 PUSH1 0x1 DUP2 MLOAD DUP2 LT PUSH2 0x55D JUMPI PUSH2 0x55D PUSH2 0x11B2 JUMP JUMPDEST PUSH1 0x20 MUL PUSH1 0x20 ADD ADD DUP2 DUP2 MSTORE POP POP DUP4 DUP2 PUSH1 0x2 DUP2 MLOAD DUP2 LT PUSH2 0x57D JUMPI PUSH2 0x57D PUSH2 0x11B2 JUMP JUMPDEST PUSH1 0x20 SWAP1 DUP2 MUL SWAP2 SWAP1 SWAP2 ADD ADD MSTORE SWAP6 SWAP11 SWAP4 SWAP10 POP SWAP1 SWAP8 POP SWAP4 SWAP6 POP SWAP1 SWAP4 POP POP POP POP JUMP JUMPDEST PUSH1 0x0 DUP3 DUP2 MSTORE PUSH1 0x1 PUSH1 0x20 SWAP1 DUP2 MSTORE PUSH1 0x40 DUP1 DUP4 KECCAK256 DUP1 SLOAD DUP3 MLOAD DUP2 DUP6 MUL DUP2 ADD DUP6 ADD SWAP1 SWAP4 MSTORE DUP1 DUP4 MSTORE SWAP2 SWAP3 SWAP1 SWAP2 SWAP1 DUP4 ADD DUP3 DUP3 DUP1 ISZERO PUSH2 0x5FB JUMPI PUSH1 0x20 MUL DUP3 ADD SWAP2 SWAP1 PUSH1 0x0 MSTORE PUSH1 0x20 PUSH1 0x0 KECCAK256 SWAP1 JUMPDEST DUP2 SLOAD PUSH1 0x1 PUSH1 0x1 PUSH1 0xA0 SHL SUB AND DUP2 MSTORE PUSH1 0x1 SWAP1 SWAP2 ADD SWAP1 PUSH1 0x20 ADD DUP1 DUP4 GT PUSH2 0x5DD JUMPI JUMPDEST POP POP POP POP POP SWAP1 POP PUSH1 0x0 JUMPDEST DUP2 MLOAD DUP2 LT ISZERO PUSH2 0x83F JUMPI PUSH1 0x0 DUP1 PUSH1 0x0 DUP5 DUP5 DUP2 MLOAD DUP2 LT PUSH2 0x625 JUMPI PUSH2 0x625 PUSH2 0x11B2 JUMP JUMPDEST PUSH1 0x20 SWAP1 DUP2 MUL SWAP2 SWAP1 SWAP2 ADD DUP2 ADD MLOAD PUSH1 0x1 PUSH1 0x1 PUSH1 0xA0 SHL SUB AND DUP3 MSTORE DUP2 ADD SWAP2 SWAP1 SWAP2 MSTORE PUSH1 0x40 SWAP1 DUP2 ADD PUSH1 0x0 KECCAK256 DUP2 MLOAD DUP1 DUP4 ADD SWAP1 SWAP3 MSTORE DUP1 SLOAD DUP3 SWAP1 PUSH1 0xFF AND PUSH1 0x2 DUP2 GT ISZERO PUSH2 0x66A JUMPI PUSH2 0x66A PUSH2 0xF62 JUMP JUMPDEST PUSH1 0x2 DUP2 GT ISZERO PUSH2 0x67B JUMPI PUSH2 0x67B PUSH2 0xF62 JUMP JUMPDEST DUP2 MSTORE PUSH1 0x1 SWAP2 SWAP1 SWAP2 ADD SLOAD PUSH1 0x20 SWAP1 SWAP2 ADD MSTORE SWAP1 POP PUSH1 0x0 DUP2 MLOAD PUSH1 0x2 DUP2 GT ISZERO PUSH2 0x6A1 JUMPI PUSH2 0x6A1 PUSH2 0xF62 JUMP JUMPDEST EQ DUP1 ISZERO PUSH2 0x6AE JUMPI POP DUP4 PUSH1 0x1 EQ JUMPDEST ISZERO PUSH2 0x716 JUMPI PUSH1 0x20 DUP2 ADD MLOAD PUSH2 0x6C3 SWAP1 PUSH1 0x6 PUSH2 0x116B JUMP JUMPDEST PUSH1 0x7 PUSH1 0x0 DUP6 DUP6 DUP2 MLOAD DUP2 LT PUSH2 0x6D9 JUMPI PUSH2 0x6D9 PUSH2 0x11B2 JUMP JUMPDEST PUSH1 0x20 MUL PUSH1 0x20 ADD ADD MLOAD PUSH1 0x1 PUSH1 0x1 PUSH1 0xA0 SHL SUB AND PUSH1 0x1 PUSH1 0x1 PUSH1 0xA0 SHL SUB AND DUP2 MSTORE PUSH1 0x20 ADD SWAP1 DUP2 MSTORE PUSH1 0x20 ADD PUSH1 0x0 KECCAK256 PUSH1 0x0 DUP3 DUP3 SLOAD PUSH2 0x710 SWAP2 SWAP1 PUSH2 0x11E1 JUMP JUMPDEST SWAP1 SWAP2 SSTORE POP POP JUMPDEST PUSH1 0x1 DUP2 MLOAD PUSH1 0x2 DUP2 GT ISZERO PUSH2 0x72B JUMPI PUSH2 0x72B PUSH2 0xF62 JUMP JUMPDEST EQ DUP1 ISZERO PUSH2 0x739 JUMPI POP PUSH1 0x2 DUP5 GT ISZERO JUMPDEST ISZERO PUSH2 0x7A1 JUMPI PUSH1 0x20 DUP2 ADD MLOAD PUSH2 0x74E SWAP1 PUSH1 0x4 PUSH2 0x116B JUMP JUMPDEST PUSH1 0x7 PUSH1 0x0 DUP6 DUP6 DUP2 MLOAD DUP2 LT PUSH2 0x764 JUMPI PUSH2 0x764 PUSH2 0x11B2 JUMP JUMPDEST PUSH1 0x20 MUL PUSH1 0x20 ADD ADD MLOAD PUSH1 0x1 PUSH1 0x1 PUSH1 0xA0 SHL SUB AND PUSH1 0x1 PUSH1 0x1 PUSH1 0xA0 SHL SUB AND DUP2 MSTORE PUSH1 0x20 ADD SWAP1 DUP2 MSTORE PUSH1 0x20 ADD PUSH1 0x0 KECCAK256 PUSH1 0x0 DUP3 DUP3 SLOAD PUSH2 0x79B SWAP2 SWAP1 PUSH2 0x11E1 JUMP JUMPDEST SWAP1 SWAP2 SSTORE POP POP JUMPDEST PUSH1 0x2 DUP2 MLOAD PUSH1 0x2 DUP2 GT ISZERO PUSH2 0x7B6 JUMPI PUSH2 0x7B6 PUSH2 0xF62 JUMP JUMPDEST EQ DUP1 ISZERO PUSH2 0x7C4 JUMPI POP PUSH1 0x3 DUP5 GT ISZERO JUMPDEST ISZERO PUSH2 0x82C JUMPI PUSH1 0x20 DUP2 ADD MLOAD PUSH2 0x7D9 SWAP1 PUSH1 0x2 PUSH2 0x116B JUMP JUMPDEST PUSH1 0x7 PUSH1 0x0 DUP6 DUP6 DUP2 MLOAD DUP2 LT PUSH2 0x7EF JUMPI PUSH2 0x7EF PUSH2 0x11B2 JUMP JUMPDEST PUSH1 0x20 MUL PUSH1 0x20 ADD ADD MLOAD PUSH1 0x1 PUSH1 0x1 PUSH1 0xA0 SHL SUB AND PUSH1 0x1 PUSH1 0x1 PUSH1 0xA0 SHL SUB AND DUP2 MSTORE PUSH1 0x20 ADD SWAP1 DUP2 MSTORE PUSH1 0x20 ADD PUSH1 0x0 KECCAK256 PUSH1 0x0 DUP3 DUP3 SLOAD PUSH2 0x826 SWAP2 SWAP1 PUSH2 0x11E1 JUMP JUMPDEST SWAP1 SWAP2 SSTORE POP POP JUMPDEST POP DUP1 PUSH2 0x837 DUP2 PUSH2 0x11C8 JUMP JUMPDEST SWAP2 POP POP PUSH2 0x605 JUMP JUMPDEST POP POP POP POP JUMP JUMPDEST PUSH2 0x879 PUSH1 0x40 MLOAD DUP1 PUSH1 0x40 ADD PUSH1 0x40 MSTORE DUP1 PUSH1 0x13 DUP2 MSTORE PUSH1 0x20 ADD PUSH19 0x24B739B4B232903932B3B4B9BA32B92AB9B2B9 PUSH1 0x69 SHL DUP2 MSTORE POP PUSH2 0xD2F JUMP JUMPDEST PUSH1 0x2 PUSH1 0x1 DUP3 SWAP1 SUB PUSH2 0x88C JUMPI POP PUSH1 0x0 PUSH2 0x898 JUMP JUMPDEST DUP2 PUSH1 0x2 SUB PUSH2 0x898 JUMPI POP PUSH1 0x1 JUMPDEST PUSH1 0x0 PUSH1 0x40 MLOAD DUP1 PUSH1 0x40 ADD PUSH1 0x40 MSTORE DUP1 DUP4 PUSH1 0x2 DUP2 GT ISZERO PUSH2 0x8B7 JUMPI PUSH2 0x8B7 PUSH2 0xF62 JUMP JUMPDEST DUP2 MSTORE PUSH1 0x20 SWAP1 DUP2 ADD DUP8 SWAP1 MSTORE PUSH1 0x1 PUSH1 0x1 PUSH1 0xA0 SHL SUB DUP9 AND PUSH1 0x0 SWAP1 DUP2 MSTORE SWAP1 DUP2 SWAP1 MSTORE PUSH1 0x40 SWAP1 KECCAK256 DUP2 MLOAD DUP2 SLOAD SWAP3 SWAP4 POP DUP4 SWAP3 DUP3 SWAP1 PUSH1 0xFF NOT AND PUSH1 0x1 DUP4 PUSH1 0x2 DUP2 GT ISZERO PUSH2 0x8FB JUMPI PUSH2 0x8FB PUSH2 0xF62 JUMP JUMPDEST MUL OR SWAP1 SSTORE POP PUSH1 0x20 DUP3 ADD MLOAD DUP2 PUSH1 0x1 ADD SSTORE SWAP1 POP POP DUP5 PUSH1 0x3 PUSH1 0x0 DUP3 DUP3 SLOAD PUSH2 0x91F SWAP2 SWAP1 PUSH2 0x11E1 JUMP JUMPDEST SWAP1 SWAP2 SSTORE POP POP PUSH1 0x2 DUP1 SLOAD PUSH1 0x1 DUP2 DUP2 ADD SWAP1 SWAP3 SSTORE PUSH32 0x405787FA12A823E0F2B7631CC41B3BA8828B3321CA811111FA75CD3AA3BB5ACE ADD DUP1 SLOAD PUSH1 0x1 PUSH1 0x1 PUSH1 0xA0 SHL SUB DUP10 AND PUSH1 0x1 PUSH1 0x1 PUSH1 0xA0 SHL SUB NOT SWAP2 DUP3 AND DUP2 OR SWAP1 SWAP3 SSTORE PUSH1 0x0 DUP8 DUP2 MSTORE PUSH1 0x20 DUP5 DUP2 MSTORE PUSH1 0x40 DUP1 DUP4 KECCAK256 DUP1 SLOAD SWAP7 DUP8 ADD DUP2 SSTORE DUP4 MSTORE SWAP2 DUP2 SWAP1 KECCAK256 SWAP1 SWAP5 ADD DUP1 SLOAD SWAP1 SWAP3 AND SWAP1 SWAP3 OR SWAP1 SSTORE DUP1 MLOAD DUP1 DUP3 ADD SWAP1 SWAP2 MSTORE PUSH1 0x11 DUP2 MSTORE PUSH17 0x2237B732903932B3B4B9BA32B92AB9B2B9 PUSH1 0x79 SHL SWAP2 DUP2 ADD SWAP2 SWAP1 SWAP2 MSTORE PUSH2 0x9C9 SWAP1 PUSH2 0xD2F JUMP JUMPDEST POP POP POP POP POP POP JUMP JUMPDEST PUSH1 0x1 PUSH1 0x2 PUSH1 0x3 PUSH2 0x9E1 DUP4 DUP1 PUSH2 0x59B JUMP JUMPDEST PUSH2 0x9EC DUP3 PUSH1 0x2 PUSH2 0x59B JUMP JUMPDEST PUSH2 0x9F7 DUP2 PUSH1 0x3 PUSH2 0x59B JUMP JUMPDEST POP POP POP JUMP JUMPDEST PUSH1 0x2 DUP2 DUP2 SLOAD DUP2 LT PUSH2 0xA0C JUMPI PUSH1 0x0 DUP1 REVERT JUMPDEST PUSH1 0x0 SWAP2 DUP3 MSTORE PUSH1 0x20 SWAP1 SWAP2 KECCAK256 ADD SLOAD PUSH1 0x1 PUSH1 0x1 PUSH1 0xA0 SHL SUB AND SWAP1 POP DUP2 JUMP JUMPDEST PUSH1 0x40 DUP1 MLOAD TIMESTAMP PUSH1 0x20 DUP3 ADD MSTORE PUSH12 0xFFFFFFFFFFFFFFFFFFFFFFFF NOT CALLER PUSH1 0x60 SHL AND SWAP2 DUP2 ADD SWAP2 SWAP1 SWAP2 MSTORE PUSH1 0x54 DUP2 ADD DUP3 SWAP1 MSTORE PUSH1 0x0 SWAP1 PUSH32 0x0 SWAP1 PUSH1 0x74 ADD PUSH1 0x40 MLOAD PUSH1 0x20 DUP2 DUP4 SUB SUB DUP2 MSTORE SWAP1 PUSH1 0x40 MSTORE DUP1 MLOAD SWAP1 PUSH1 0x20 ADD KECCAK256 PUSH1 0x0 SHR PUSH2 0xA9C SWAP2 SWAP1 PUSH2 0x1207 JUMP JUMPDEST POP SWAP2 SWAP1 POP JUMP JUMPDEST PUSH1 0x4 DUP1 SLOAD DUP2 SWAP1 PUSH2 0xAB1 SWAP1 PUSH2 0x121B JUMP JUMPDEST DUP1 PUSH1 0x1F ADD PUSH1 0x20 DUP1 SWAP2 DIV MUL PUSH1 0x20 ADD PUSH1 0x40 MLOAD SWAP1 DUP2 ADD PUSH1 0x40 MSTORE DUP1 SWAP3 SWAP2 SWAP1 DUP2 DUP2 MSTORE PUSH1 0x20 ADD DUP3 DUP1 SLOAD PUSH2 0xADD SWAP1 PUSH2 0x121B JUMP JUMPDEST DUP1 ISZERO PUSH2 0xB2A JUMPI DUP1 PUSH1 0x1F LT PUSH2 0xAFF JUMPI PUSH2 0x100 DUP1 DUP4 SLOAD DIV MUL DUP4 MSTORE SWAP2 PUSH1 0x20 ADD SWAP2 PUSH2 0xB2A JUMP JUMPDEST DUP3 ADD SWAP2 SWAP1 PUSH1 0x0 MSTORE PUSH1 0x20 PUSH1 0x0 KECCAK256 SWAP1 JUMPDEST DUP2 SLOAD DUP2 MSTORE SWAP1 PUSH1 0x1 ADD SWAP1 PUSH1 0x20 ADD DUP1 DUP4 GT PUSH2 0xB0D JUMPI DUP3 SWAP1 SUB PUSH1 0x1F AND DUP3 ADD SWAP2 JUMPDEST POP POP POP POP PUSH1 0x1 DUP4 ADD SLOAD PUSH1 0x2 SWAP1 SWAP4 ADD SLOAD SWAP2 SWAP3 PUSH1 0xFF AND SWAP2 SWAP1 POP DUP4 JUMP JUMPDEST PUSH1 0x1 PUSH1 0x20 MSTORE DUP2 PUSH1 0x0 MSTORE PUSH1 0x40 PUSH1 0x0 KECCAK256 DUP2 DUP2 SLOAD DUP2 LT PUSH2 0xB60 JUMPI PUSH1 0x0 DUP1 REVERT JUMPDEST PUSH1 0x0 SWAP2 DUP3 MSTORE PUSH1 0x20 SWAP1 SWAP2 KECCAK256 ADD SLOAD PUSH1 0x1 PUSH1 0x1 PUSH1 0xA0 SHL SUB AND SWAP2 POP DUP3 SWAP1 POP JUMP JUMPDEST PUSH1 0x0 JUMPDEST PUSH1 0x2 SLOAD DUP2 LT ISZERO PUSH2 0xBE1 JUMPI PUSH1 0x0 DUP1 PUSH1 0x2 DUP4 DUP2 SLOAD DUP2 LT PUSH2 0xB9F JUMPI PUSH2 0xB9F PUSH2 0x11B2 JUMP JUMPDEST PUSH1 0x0 SWAP2 DUP3 MSTORE PUSH1 0x20 DUP1 DUP4 KECCAK256 SWAP1 SWAP2 ADD SLOAD PUSH1 0x1 PUSH1 0x1 PUSH1 0xA0 SHL SUB AND DUP4 MSTORE DUP3 ADD SWAP3 SWAP1 SWAP3 MSTORE PUSH1 0x40 ADD DUP2 KECCAK256 DUP1 SLOAD PUSH1 0xFF NOT AND DUP2 SSTORE PUSH1 0x1 ADD SSTORE DUP1 PUSH2 0xBD9 DUP2 PUSH2 0x11C8 JUMP JUMPDEST SWAP2 POP POP PUSH2 0xB7F JUMP JUMPDEST POP PUSH1 0x0 JUMPDEST PUSH32 0x0 DUP2 LT ISZERO PUSH2 0xC36 JUMPI PUSH1 0x0 DUP2 DUP2 MSTORE PUSH1 0x1 PUSH1 0x20 MSTORE PUSH1 0x40 DUP2 KECCAK256 PUSH2 0xC24 SWAP2 PUSH2 0xD8F JUMP JUMPDEST DUP1 PUSH2 0xC2E DUP2 PUSH2 0x11C8 JUMP JUMPDEST SWAP2 POP POP PUSH2 0xBE5 JUMP JUMPDEST POP PUSH1 0x40 DUP1 MLOAD PUSH1 0x0 DUP2 MSTORE PUSH1 0x20 DUP2 ADD SWAP2 DUP3 SWAP1 MSTORE MLOAD PUSH2 0xC54 SWAP2 PUSH1 0x2 SWAP2 PUSH2 0xDAD JUMP JUMPDEST POP PUSH1 0x0 PUSH1 0x3 DUP2 SWAP1 SSTORE PUSH1 0x40 DUP1 MLOAD PUSH1 0x60 DUP2 ADD DUP3 MSTORE DUP5 DUP2 MSTORE PUSH1 0x20 DUP2 ADD SWAP3 SWAP1 SWAP3 MSTORE DUP2 ADD PUSH2 0xC7F TIMESTAMP PUSH2 0x258 PUSH2 0x11E1 JUMP JUMPDEST SWAP1 MSTORE DUP1 MLOAD PUSH1 0x4 SWAP1 DUP2 SWAP1 PUSH2 0xC92 SWAP1 DUP3 PUSH2 0x1295 JUMP JUMPDEST POP PUSH1 0x20 DUP3 ADD MLOAD PUSH1 0x1 DUP1 DUP4 ADD DUP1 SLOAD SWAP1 SWAP2 PUSH1 0xFF NOT SWAP1 SWAP2 AND SWAP1 DUP4 DUP2 DUP2 GT ISZERO PUSH2 0xCB9 JUMPI PUSH2 0xCB9 PUSH2 0xF62 JUMP JUMPDEST MUL OR SWAP1 SSTORE POP PUSH1 0x40 SWAP2 SWAP1 SWAP2 ADD MLOAD PUSH1 0x2 SWAP1 SWAP2 ADD SSTORE DUP1 ISZERO ISZERO PUSH1 0x1 SUB PUSH2 0xCE3 JUMPI PUSH1 0x5 DUP1 SLOAD PUSH1 0xFF NOT AND PUSH1 0x1 OR SWAP1 SSTORE JUMPDEST POP POP JUMP JUMPDEST PUSH1 0x40 MLOAD PUSH1 0x1 PUSH1 0x1 PUSH1 0xA0 SHL SUB DUP3 AND PUSH1 0x24 DUP3 ADD MSTORE PUSH2 0x484 SWAP1 PUSH1 0x44 ADD PUSH1 0x40 DUP1 MLOAD PUSH1 0x1F NOT DUP2 DUP5 SUB ADD DUP2 MSTORE SWAP2 SWAP1 MSTORE PUSH1 0x20 DUP2 ADD DUP1 MLOAD PUSH1 0x1 PUSH1 0x1 PUSH1 0xE0 SHL SUB AND PUSH4 0x161765E1 PUSH1 0xE1 SHL OR SWAP1 MSTORE PUSH2 0xD6E JUMP JUMPDEST PUSH2 0x484 DUP2 PUSH1 0x40 MLOAD PUSH1 0x24 ADD PUSH2 0xD43 SWAP2 SWAP1 PUSH2 0x1355 JUMP JUMPDEST PUSH1 0x40 DUP1 MLOAD PUSH1 0x1F NOT DUP2 DUP5 SUB ADD DUP2 MSTORE SWAP2 SWAP1 MSTORE PUSH1 0x20 DUP2 ADD DUP1 MLOAD PUSH1 0x1 PUSH1 0x1 PUSH1 0xE0 SHL SUB AND PUSH4 0x104C13EB PUSH1 0xE2 SHL OR SWAP1 MSTORE JUMPDEST DUP1 MLOAD PUSH11 0x636F6E736F6C652E6C6F67 PUSH1 0x20 DUP4 ADD PUSH1 0x0 DUP1 DUP5 DUP4 DUP6 GAS STATICCALL POP POP POP POP POP JUMP JUMPDEST POP DUP1 SLOAD PUSH1 0x0 DUP3 SSTORE SWAP1 PUSH1 0x0 MSTORE PUSH1 0x20 PUSH1 0x0 KECCAK256 SWAP1 DUP2 ADD SWAP1 PUSH2 0x484 SWAP2 SWAP1 PUSH2 0xE12 JUMP JUMPDEST DUP3 DUP1 SLOAD DUP3 DUP3 SSTORE SWAP1 PUSH1 0x0 MSTORE PUSH1 0x20 PUSH1 0x0 KECCAK256 SWAP1 DUP2 ADD SWAP3 DUP3 ISZERO PUSH2 0xE02 JUMPI SWAP2 PUSH1 0x20 MUL DUP3 ADD JUMPDEST DUP3 DUP2 GT ISZERO PUSH2 0xE02 JUMPI DUP3 MLOAD DUP3 SLOAD PUSH1 0x1 PUSH1 0x1 PUSH1 0xA0 SHL SUB NOT AND PUSH1 0x1 PUSH1 0x1 PUSH1 0xA0 SHL SUB SWAP1 SWAP2 AND OR DUP3 SSTORE PUSH1 0x20 SWAP1 SWAP3 ADD SWAP2 PUSH1 0x1 SWAP1 SWAP2 ADD SWAP1 PUSH2 0xDCD JUMP JUMPDEST POP PUSH2 0xE0E SWAP3 SWAP2 POP PUSH2 0xE12 JUMP JUMPDEST POP SWAP1 JUMP JUMPDEST JUMPDEST DUP1 DUP3 GT ISZERO PUSH2 0xE0E JUMPI PUSH1 0x0 DUP2 SSTORE PUSH1 0x1 ADD PUSH2 0xE13 JUMP JUMPDEST PUSH1 0x0 PUSH1 0x20 DUP3 DUP5 SUB SLT ISZERO PUSH2 0xE39 JUMPI PUSH1 0x0 DUP1 REVERT JUMPDEST POP CALLDATALOAD SWAP2 SWAP1 POP JUMP JUMPDEST PUSH1 0x0 DUP2 MLOAD DUP1 DUP5 MSTORE PUSH1 0x20 DUP1 DUP6 ADD SWAP5 POP DUP1 DUP5 ADD PUSH1 0x0 JUMPDEST DUP4 DUP2 LT ISZERO PUSH2 0xE79 JUMPI DUP2 MLOAD PUSH1 0x1 PUSH1 0x1 PUSH1 0xA0 SHL SUB AND DUP8 MSTORE SWAP6 DUP3 ADD SWAP6 SWAP1 DUP3 ADD SWAP1 PUSH1 0x1 ADD PUSH2 0xE54 JUMP JUMPDEST POP SWAP5 SWAP6 SWAP5 POP POP POP POP POP JUMP JUMPDEST PUSH1 0x40 DUP2 MSTORE PUSH1 0x0 PUSH2 0xE97 PUSH1 0x40 DUP4 ADD DUP6 PUSH2 0xE40 JUMP JUMPDEST SWAP1 POP DUP3 PUSH1 0x20 DUP4 ADD MSTORE SWAP4 SWAP3 POP POP POP JUMP JUMPDEST DUP1 CALLDATALOAD PUSH1 0x1 PUSH1 0x1 PUSH1 0xA0 SHL SUB DUP2 AND DUP2 EQ PUSH2 0xEBD JUMPI PUSH1 0x0 DUP1 REVERT JUMPDEST SWAP2 SWAP1 POP JUMP JUMPDEST PUSH1 0x0 PUSH1 0x20 DUP3 DUP5 SUB SLT ISZERO PUSH2 0xED4 JUMPI PUSH1 0x0 DUP1 REVERT JUMPDEST PUSH2 0xEDD DUP3 PUSH2 0xEA6 JUMP JUMPDEST SWAP4 SWAP3 POP POP POP JUMP JUMPDEST PUSH1 0x80 DUP2 MSTORE PUSH1 0x0 PUSH2 0xEF7 PUSH1 0x80 DUP4 ADD DUP8 PUSH2 0xE40 JUMP JUMPDEST PUSH1 0x20 DUP4 DUP3 SUB DUP2 DUP6 ADD MSTORE PUSH2 0xF0A DUP3 DUP9 PUSH2 0xE40 JUMP JUMPDEST SWAP2 POP DUP4 DUP3 SUB PUSH1 0x40 DUP6 ADD MSTORE PUSH2 0xF1E DUP3 DUP8 PUSH2 0xE40 JUMP JUMPDEST DUP5 DUP2 SUB PUSH1 0x60 DUP7 ADD MSTORE DUP6 MLOAD DUP1 DUP3 MSTORE DUP3 DUP8 ADD SWAP4 POP SWAP1 DUP3 ADD SWAP1 PUSH1 0x0 JUMPDEST DUP2 DUP2 LT ISZERO PUSH2 0xF53 JUMPI DUP5 MLOAD DUP4 MSTORE SWAP4 DUP4 ADD SWAP4 SWAP2 DUP4 ADD SWAP2 PUSH1 0x1 ADD PUSH2 0xF37 JUMP JUMPDEST POP SWAP1 SWAP10 SWAP9 POP POP POP POP POP POP POP POP POP JUMP JUMPDEST PUSH4 0x4E487B71 PUSH1 0xE0 SHL PUSH1 0x0 MSTORE PUSH1 0x21 PUSH1 0x4 MSTORE PUSH1 0x24 PUSH1 0x0 REVERT JUMPDEST PUSH1 0x40 DUP2 ADD PUSH1 0x3 DUP5 LT PUSH2 0xF8C JUMPI PUSH2 0xF8C PUSH2 0xF62 JUMP JUMPDEST SWAP3 DUP2 MSTORE PUSH1 0x20 ADD MSTORE SWAP1 JUMP JUMPDEST PUSH1 0x0 DUP1 PUSH1 0x40 DUP4 DUP6 SUB SLT ISZERO PUSH2 0xFA9 JUMPI PUSH1 0x0 DUP1 REVERT JUMPDEST POP POP DUP1 CALLDATALOAD SWAP3 PUSH1 0x20 SWAP1 SWAP2 ADD CALLDATALOAD SWAP2 POP JUMP JUMPDEST PUSH1 0x0 DUP1 PUSH1 0x0 DUP1 PUSH1 0x80 DUP6 DUP8 SUB SLT ISZERO PUSH2 0xFCE JUMPI PUSH1 0x0 DUP1 REVERT JUMPDEST PUSH2 0xFD7 DUP6 PUSH2 0xEA6 JUMP JUMPDEST SWAP7 PUSH1 0x20 DUP7 ADD CALLDATALOAD SWAP7 POP PUSH1 0x40 DUP7 ADD CALLDATALOAD SWAP6 PUSH1 0x60 ADD CALLDATALOAD SWAP5 POP SWAP3 POP POP POP JUMP JUMPDEST PUSH1 0x0 DUP2 MLOAD DUP1 DUP5 MSTORE PUSH1 0x0 JUMPDEST DUP2 DUP2 LT ISZERO PUSH2 0x1017 JUMPI PUSH1 0x20 DUP2 DUP6 ADD DUP2 ADD MLOAD DUP7 DUP4 ADD DUP3 ADD MSTORE ADD PUSH2 0xFFB JUMP JUMPDEST POP PUSH1 0x0 PUSH1 0x20 DUP3 DUP7 ADD ADD MSTORE PUSH1 0x20 PUSH1 0x1F NOT PUSH1 0x1F DUP4 ADD AND DUP6 ADD ADD SWAP2 POP POP SWAP3 SWAP2 POP POP JUMP JUMPDEST PUSH1 0x60 DUP2 MSTORE PUSH1 0x0 PUSH2 0x104A PUSH1 0x60 DUP4 ADD DUP7 PUSH2 0xFF1 JUMP JUMPDEST SWAP1 POP PUSH1 0x2 DUP5 LT PUSH2 0x105C JUMPI PUSH2 0x105C PUSH2 0xF62 JUMP JUMPDEST PUSH1 0x20 DUP3 ADD SWAP4 SWAP1 SWAP4 MSTORE PUSH1 0x40 ADD MSTORE SWAP2 SWAP1 POP JUMP JUMPDEST PUSH4 0x4E487B71 PUSH1 0xE0 SHL PUSH1 0x0 MSTORE PUSH1 0x41 PUSH1 0x4 MSTORE PUSH1 0x24 PUSH1 0x0 REVERT JUMPDEST DUP1 CALLDATALOAD DUP1 ISZERO ISZERO DUP2 EQ PUSH2 0xEBD JUMPI PUSH1 0x0 DUP1 REVERT JUMPDEST PUSH1 0x0 DUP1 PUSH1 0x40 DUP4 DUP6 SUB SLT ISZERO PUSH2 0x10A6 JUMPI PUSH1 0x0 DUP1 REVERT JUMPDEST DUP3 CALLDATALOAD PUSH8 0xFFFFFFFFFFFFFFFF DUP1 DUP3 GT ISZERO PUSH2 0x10BE JUMPI PUSH1 0x0 DUP1 REVERT JUMPDEST DUP2 DUP6 ADD SWAP2 POP DUP6 PUSH1 0x1F DUP4 ADD SLT PUSH2 0x10D2 JUMPI PUSH1 0x0 DUP1 REVERT JUMPDEST DUP2 CALLDATALOAD DUP2 DUP2 GT ISZERO PUSH2 0x10E4 JUMPI PUSH2 0x10E4 PUSH2 0x106D JUMP JUMPDEST PUSH1 0x40 MLOAD PUSH1 0x1F DUP3 ADD PUSH1 0x1F NOT SWAP1 DUP2 AND PUSH1 0x3F ADD AND DUP2 ADD SWAP1 DUP4 DUP3 GT DUP2 DUP4 LT OR ISZERO PUSH2 0x110C JUMPI PUSH2 0x110C PUSH2 0x106D JUMP JUMPDEST DUP2 PUSH1 0x40 MSTORE DUP3 DUP2 MSTORE DUP9 PUSH1 0x20 DUP5 DUP8 ADD ADD GT ISZERO PUSH2 0x1125 JUMPI PUSH1 0x0 DUP1 REVERT JUMPDEST DUP3 PUSH1 0x20 DUP7 ADD PUSH1 0x20 DUP4 ADD CALLDATACOPY PUSH1 0x0 PUSH1 0x20 DUP5 DUP4 ADD ADD MSTORE DUP1 SWAP7 POP POP POP POP POP POP PUSH2 0x114C PUSH1 0x20 DUP5 ADD PUSH2 0x1083 JUMP JUMPDEST SWAP1 POP SWAP3 POP SWAP3 SWAP1 POP JUMP JUMPDEST PUSH4 0x4E487B71 PUSH1 0xE0 SHL PUSH1 0x0 MSTORE PUSH1 0x11 PUSH1 0x4 MSTORE PUSH1 0x24 PUSH1 0x0 REVERT JUMPDEST DUP1 DUP3 MUL DUP2 ISZERO DUP3 DUP3 DIV DUP5 EQ OR PUSH2 0x1182 JUMPI PUSH2 0x1182 PUSH2 0x1155 JUMP JUMPDEST SWAP3 SWAP2 POP POP JUMP JUMPDEST PUSH4 0x4E487B71 PUSH1 0xE0 SHL PUSH1 0x0 MSTORE PUSH1 0x12 PUSH1 0x4 MSTORE PUSH1 0x24 PUSH1 0x0 REVERT JUMPDEST PUSH1 0x0 DUP3 PUSH2 0x11AD JUMPI PUSH2 0x11AD PUSH2 0x1188 JUMP JUMPDEST POP DIV SWAP1 JUMP JUMPDEST PUSH4 0x4E487B71 PUSH1 0xE0 SHL PUSH1 0x0 MSTORE PUSH1 0x32 PUSH1 0x4 MSTORE PUSH1 0x24 PUSH1 0x0 REVERT JUMPDEST PUSH1 0x0 PUSH1 0x1 DUP3 ADD PUSH2 0x11DA JUMPI PUSH2 0x11DA PUSH2 0x1155 JUMP JUMPDEST POP PUSH1 0x1 ADD SWAP1 JUMP JUMPDEST DUP1 DUP3 ADD DUP1 DUP3 GT ISZERO PUSH2 0x1182 JUMPI PUSH2 0x1182 PUSH2 0x1155 JUMP JUMPDEST DUP2 DUP2 SUB DUP2 DUP2 GT ISZERO PUSH2 0x1182 JUMPI PUSH2 0x1182 PUSH2 0x1155 JUMP JUMPDEST PUSH1 0x0 DUP3 PUSH2 0x1216 JUMPI PUSH2 0x1216 PUSH2 0x1188 JUMP JUMPDEST POP MOD SWAP1 JUMP JUMPDEST PUSH1 0x1 DUP2 DUP2 SHR SWAP1 DUP3 AND DUP1 PUSH2 0x122F JUMPI PUSH1 0x7F DUP3 AND SWAP2 POP JUMPDEST PUSH1 0x20 DUP3 LT DUP2 SUB PUSH2 0xA9C JUMPI PUSH4 0x4E487B71 PUSH1 0xE0 SHL PUSH1 0x0 MSTORE PUSH1 0x22 PUSH1 0x4 MSTORE PUSH1 0x24 PUSH1 0x0 REVERT JUMPDEST PUSH1 0x1F DUP3 GT ISZERO PUSH2 0x9F7 JUMPI PUSH1 0x0 DUP2 DUP2 MSTORE PUSH1 0x20 DUP2 KECCAK256 PUSH1 0x1F DUP6 ADD PUSH1 0x5 SHR DUP2 ADD PUSH1 0x20 DUP7 LT ISZERO PUSH2 0x1276 JUMPI POP DUP1 JUMPDEST PUSH1 0x1F DUP6 ADD PUSH1 0x5 SHR DUP3 ADD SWAP2 POP JUMPDEST DUP2 DUP2 LT ISZERO PUSH2 0x9C9 JUMPI DUP3 DUP2 SSTORE PUSH1 0x1 ADD PUSH2 0x1282 JUMP JUMPDEST DUP2 MLOAD PUSH8 0xFFFFFFFFFFFFFFFF DUP2 GT ISZERO PUSH2 0x12AF JUMPI PUSH2 0x12AF PUSH2 0x106D JUMP JUMPDEST PUSH2 0x12C3 DUP2 PUSH2 0x12BD DUP5 SLOAD PUSH2 0x121B JUMP JUMPDEST DUP5 PUSH2 0x124F JUMP JUMPDEST PUSH1 0x20 DUP1 PUSH1 0x1F DUP4 GT PUSH1 0x1 DUP2 EQ PUSH2 0x12F8 JUMPI PUSH1 0x0 DUP5 ISZERO PUSH2 0x12E0 JUMPI POP DUP6 DUP4 ADD MLOAD JUMPDEST PUSH1 0x0 NOT PUSH1 0x3 DUP7 SWAP1 SHL SHR NOT AND PUSH1 0x1 DUP6 SWAP1 SHL OR DUP6 SSTORE PUSH2 0x9C9 JUMP JUMPDEST PUSH1 0x0 DUP6 DUP2 MSTORE PUSH1 0x20 DUP2 KECCAK256 PUSH1 0x1F NOT DUP7 AND SWAP2 JUMPDEST DUP3 DUP2 LT ISZERO PUSH2 0x1327 JUMPI DUP9 DUP7 ADD MLOAD DUP3 SSTORE SWAP5 DUP5 ADD SWAP5 PUSH1 0x1 SWAP1 SWAP2 ADD SWAP1 DUP5 ADD PUSH2 0x1308 JUMP JUMPDEST POP DUP6 DUP3 LT ISZERO PUSH2 0x1345 JUMPI DUP8 DUP6 ADD MLOAD PUSH1 0x0 NOT PUSH1 0x3 DUP9 SWAP1 SHL PUSH1 0xF8 AND SHR NOT AND DUP2 SSTORE JUMPDEST POP POP POP POP POP PUSH1 0x1 SWAP1 DUP2 SHL ADD SWAP1 SSTORE POP JUMP JUMPDEST PUSH1 0x20 DUP2 MSTORE PUSH1 0x0 PUSH2 0xEDD PUSH1 0x20 DUP4 ADD DUP5 PUSH2 0xFF1 JUMP INVALID LOG2 PUSH5 0x6970667358 0x22 SLT KECCAK256 0x4C TIMESTAMP 0xBC 0x4C PUSH6 0x359EB3F2C9D0 PUSH11 0x5DB1D7AB5039AA2D4ACB86 0xF9 SLT 0xD1 COINBASE PUSH23 0xF7D7619F64736F6C634300081200330000000000000000 "
		},
		"gasEstimates": {
			"creation": {
				"codeDepositCost": "1004400",
				"executionCost": "infinite",
				"totalCost": "infinite"
			},
			"external": {
				"BETCAP()": "infinite",
				"HORSES()": "infinite",
				"Loot(address)": "2609",
				"allocationUtil(uint256,uint256)": "infinite",
				"currentRace()": "infinite",
				"getRaceWinners()": "292",
				"getWinnerList(uint256)": "infinite",
				"horseBettor(uint256,uint256)": "4793",
				"leftAmountForBets(uint256)": "infinite",
				"listAllUsers()": "infinite",
				"pickWinner()": "infinite",
				"raceExec()": "infinite",
				"random(uint256)": "infinite",
				"registerUser(address,uint256,uint256,uint256)": "infinite",
				"reset(string,bool)": "infinite",
				"totalAmount()": "2363",
				"totalUsers(uint256)": "4703",
				"userBet(address)": "4803"
			}
		},
		"methodIdentifiers": {
			"BETCAP()": "c4832364",
			"HORSES()": "5a8bd215",
			"Loot(address)": "1d637f42",
			"allocationUtil(uint256,uint256)": "71d58cce",
			"currentRace()": "c4fc3b2e",
			"getRaceWinners()": "85d3db11",
			"getWinnerList(uint256)": "0b0705c8",
			"horseBettor(uint256,uint256)": "debd24bd",
			"leftAmountForBets(uint256)": "4d7260b5",
			"listAllUsers()": "0d7087e9",
			"pickWinner()": "5d495aea",
			"raceExec()": "83c26072",
			"random(uint256)": "b863bd37",
			"registerUser(address,uint256,uint256,uint256)": "81077173",
			"reset(string,bool)": "f3de9cfa",
			"totalAmount()": "1a39d8ef",
			"totalUsers(uint256)": "a4f67b8b",
			"userBet(address)": "67ad4ec2"
		}
	},
	"abi": [
		{
			"inputs": [],
			"stateMutability": "nonpayable",
			"type": "constructor"
		},
		{
			"inputs": [],
			"name": "BETCAP",
			"outputs": [
				{
					"internalType": "uint256",
					"name": "",
					"type": "uint256"
				}
			],
			"stateMutability": "view",
			"type": "function"
		},
		{
			"inputs": [],
			"name": "HORSES",
			"outputs": [
				{
					"internalType": "uint256",
					"name": "",
					"type": "uint256"
				}
			],
			"stateMutability": "view",
			"type": "function"
		},
		{
			"inputs": [
				{
					"internalType": "address",
					"name": "",
					"type": "address"
				}
			],
			"name": "Loot",
			"outputs": [
				{
					"internalType": "uint256",
					"name": "",
					"type": "uint256"
				}
			],
			"stateMutability": "view",
			"type": "function"
		},
		{
			"inputs": [
				{
					"internalType": "uint256",
					"name": "horse",
					"type": "uint256"
				},
				{
					"internalType": "uint256",
					"name": "position",
					"type": "uint256"
				}
			],
			"name": "allocationUtil",
			"outputs": [],
			"stateMutability": "nonpayable",
			"type": "function"
		},
		{
			"inputs": [],
			"name": "currentRace",
			"outputs": [
				{
					"internalType": "string",
					"name": "name",
					"type": "string"
				},
				{
					"internalType": "enum Storage.RACE_TYPE",
					"name": "raceType",
					"type": "uint8"
				},
				{
					"internalType": "uint256",
					"name": "startTime",
					"type": "uint256"
				}
			],
			"stateMutability": "view",
			"type": "function"
		},
		{
			"inputs": [],
			"name": "getRaceWinners",
			"outputs": [
				{
					"internalType": "uint256",
					"name": "",
					"type": "uint256"
				},
				{
					"internalType": "uint256",
					"name": "",
					"type": "uint256"
				},
				{
					"internalType": "uint256",
					"name": "",
					"type": "uint256"
				}
			],
			"stateMutability": "pure",
			"type": "function"
		},
		{
			"inputs": [
				{
					"internalType": "uint256",
					"name": "_prizeFactor",
					"type": "uint256"
				}
			],
			"name": "getWinnerList",
			"outputs": [
				{
					"internalType": "address[]",
					"name": "",
					"type": "address[]"
				},
				{
					"internalType": "uint256",
					"name": "",
					"type": "uint256"
				}
			],
			"stateMutability": "view",
			"type": "function"
		},
		{
			"inputs": [
				{
					"internalType": "uint256",
					"name": "",
					"type": "uint256"
				},
				{
					"internalType": "uint256",
					"name": "",
					"type": "uint256"
				}
			],
			"name": "horseBettor",
			"outputs": [
				{
					"internalType": "address",
					"name": "",
					"type": "address"
				}
			],
			"stateMutability": "view",
			"type": "function"
		},
		{
			"inputs": [
				{
					"internalType": "uint256",
					"name": "_betAmount",
					"type": "uint256"
				}
			],
			"name": "leftAmountForBets",
			"outputs": [
				{
					"internalType": "bool",
					"name": "",
					"type": "bool"
				}
			],
			"stateMutability": "view",
			"type": "function"
		},
		{
			"inputs": [],
			"name": "listAllUsers",
			"outputs": [],
			"stateMutability": "view",
			"type": "function"
		},
		{
			"inputs": [],
			"name": "pickWinner",
			"outputs": [
				{
					"internalType": "address[]",
					"name": "",
					"type": "address[]"
				},
				{
					"internalType": "address[]",
					"name": "",
					"type": "address[]"
				},
				{
					"internalType": "address[]",
					"name": "",
					"type": "address[]"
				},
				{
					"internalType": "uint256[]",
					"name": "",
					"type": "uint256[]"
				}
			],
			"stateMutability": "view",
			"type": "function"
		},
		{
			"inputs": [],
			"name": "raceExec",
			"outputs": [],
			"stateMutability": "nonpayable",
			"type": "function"
		},
		{
			"inputs": [
				{
					"internalType": "uint256",
					"name": "randNonce",
					"type": "uint256"
				}
			],
			"name": "random",
			"outputs": [
				{
					"internalType": "uint256",
					"name": "",
					"type": "uint256"
				}
			],
			"stateMutability": "view",
			"type": "function"
		},
		{
			"inputs": [
				{
					"internalType": "address",
					"name": "_user",
					"type": "address"
				},
				{
					"internalType": "uint256",
					"name": "_betAmount",
					"type": "uint256"
				},
				{
					"internalType": "uint256",
					"name": "_horse",
					"type": "uint256"
				},
				{
					"internalType": "uint256",
					"name": "_typeOfBet",
					"type": "uint256"
				}
			],
			"name": "registerUser",
			"outputs": [],
			"stateMutability": "nonpayable",
			"type": "function"
		},
		{
			"inputs": [
				{
					"internalType": "string",
					"name": "raceName",
					"type": "string"
				},
				{
					"internalType": "bool",
					"name": "isEuropean",
					"type": "bool"
				}
			],
			"name": "reset",
			"outputs": [],
			"stateMutability": "nonpayable",
			"type": "function"
		},
		{
			"inputs": [],
			"name": "totalAmount",
			"outputs": [
				{
					"internalType": "uint256",
					"name": "",
					"type": "uint256"
				}
			],
			"stateMutability": "view",
			"type": "function"
		},
		{
			"inputs": [
				{
					"internalType": "uint256",
					"name": "",
					"type": "uint256"
				}
			],
			"name": "totalUsers",
			"outputs": [
				{
					"internalType": "address",
					"name": "",
					"type": "address"
				}
			],
			"stateMutability": "view",
			"type": "function"
		},
		{
			"inputs": [
				{
					"internalType": "address",
					"name": "",
					"type": "address"
				}
			],
			"name": "userBet",
			"outputs": [
				{
					"internalType": "enum Storage.BET_TYPE",
					"name": "betType",
					"type": "uint8"
				},
				{
					"internalType": "uint256",
					"name": "amount",
					"type": "uint256"
				}
			],
			"stateMutability": "view",
			"type": "function"
		}
	]
}