{
	"data": {
		"bytecode": {
			"linkReferences": {},
			"object": "60c060405234801561001057600080fd5b50600060035560056080526101f460a05260805160a05161142161005b600039600081816102b4015261049e0152600081816101ae01528181610a810152610c1201526114216000f3fe608060405234801561001057600080fd5b50600436106101165760003560e01c806381077173116100a2578063b863bd3711610071578063b863bd371461029c578063c4832364146102af578063c4fc3b2e146102d6578063debd24bd146102ed578063f3de9cfa1461030057600080fd5b8063810771731461023657806383c260721461024957806385d3db1114610251578063a4f67b8b1461027157600080fd5b80634d7260b5116100e95780634d7260b5146101865780635a8bd215146101a95780635d495aea146101d057806367ad4ec2146101e857806371d58cce1461022357600080fd5b80630b0705c81461011b5780630d7087e9146101455780631a39d8ef1461014f5780631d637f4214610166575b600080fd5b61012e610129366004610e97565b610313565b60405161013c929190610ef4565b60405180910390f35b61014d610435565b005b61015860035481565b60405190815260200161013c565b610158610174366004610f32565b60076020526000908152604090205481565b610199610194366004610e97565b610487565b604051901515815260200161013c565b6101587f000000000000000000000000000000000000000000000000000000000000000081565b6101d86104ca565b60405161013c9493929190610f54565b6102156101f6366004610f32565b6000602081905290815260409020805460019091015460ff9091169082565b60405161013c929190610fe8565b61014d610231366004611006565b61059b565b61014d610244366004611028565b610870565b61014d6109fc565b60408051600181526002602082015260039181019190915260600161013c565b61028461027f366004610e97565b610a27565b6040516001600160a01b03909116815260200161013c565b6101586102aa366004610e97565b610a51565b6101587f000000000000000000000000000000000000000000000000000000000000000081565b6102de610acd565b60405161013c939291906110a7565b6102846102fb366004611006565b610b6f565b61014d61030e366004611103565b610ba7565b60606000806103226001610a51565b6000818152600160209081526040808320805482518185028101850190935280835294955092938493919283018282801561038657602002820191906000526020600020905b81546001600160a01b03168152600190910190602001808311610368575b505050505090505b805160000361040f576103a16002610a51565b600081815260016020908152604091829020805483518184028101840190945280845293965091929083018282801561040357602002820191906000526020600020905b81546001600160a01b031681526001909101906020018083116103e5575b5050505050905061038e565b85815161041c91906111db565b600354610429919061120e565b90969095509350505050565b60005b600254811015610484576104726002828154811061045857610458611222565b6000918252602090912001546001600160a01b0316610d12565b8061047c81611238565b915050610438565b50565b600080826003546104989190611251565b6104c2907f0000000000000000000000000000000000000000000000000000000000000000611264565b101592915050565b6060806060806000806104dd6001610313565b915091506000806104ee6002610313565b915091506000806104ff6004610313565b604080516003808252608082019092529294509092506000919060208201606080368337019050509050858160008151811061053d5761053d611222565b602002602001018181525050818160018151811061055d5761055d611222565b602002602001018181525050838160028151811061057d5761057d611222565b6020908102919091010152959a939950909750939550909350505050565b6000828152600160209081526040808320805482518185028101850190935280835291929091908301828280156105fb57602002820191906000526020600020905b81546001600160a01b031681526001909101906020018083116105dd575b5050505050905060005b815181101561086a57600080600084848151811061062557610625611222565b6020908102919091018101516001600160a01b03168252810191909152604090810160002081518083019092528054829060ff16600281111561066a5761066a610fd2565b600281111561067b5761067b610fd2565b815260200160018201548152505090506106b76040518060400160405280600681526020016503132ba101d160d51b8152508260200151610d5a565b6000815160028111156106cc576106cc610fd2565b1480156106d95750836001145b156107415760208101516106ee9060066111db565b6007600085858151811061070457610704611222565b60200260200101516001600160a01b03166001600160a01b03168152602001908152602001600020600082825461073b9190611251565b90915550505b60018151600281111561075657610756610fd2565b148015610764575060028411155b156107cc5760208101516107799060046111db565b6007600085858151811061078f5761078f611222565b60200260200101516001600160a01b03166001600160a01b0316815260200190815260200160002060008282546107c69190611251565b90915550505b6002815160028111156107e1576107e1610fd2565b1480156107ef575060038411155b156108575760208101516108049060026111db565b6007600085858151811061081a5761081a611222565b60200260200101516001600160a01b03166001600160a01b0316815260200190815260200160002060008282546108519190611251565b90915550505b508061086281611238565b915050610605565b50505050565b6108a46040518060400160405280601381526020017224b739b4b232903932b3b4b9ba32b92ab9b2b960691b815250610d9f565b600260018290036108b7575060006108c3565b816002036108c3575060015b600060405180604001604052808360028111156108e2576108e2610fd2565b815260209081018790526001600160a01b03881660009081529081905260409020815181549293508392829060ff1916600183600281111561092657610926610fd2565b021790555060208201518160010155905050846003600082825461094a9190611251565b90915550506002805460018181019092557f405787fa12a823e0f2b7631cc41b3ba8828b3321ca811111fa75cd3aa3bb5ace0180546001600160a01b0389166001600160a01b031991821681179092556000878152602084815260408083208054968701815583529181902090940180549092169092179055805180820190915260118152702237b732903932b3b4b9ba32b92ab9b2b960791b918101919091526109f490610d9f565b505050505050565b600160026003610a0c838061059b565b610a1782600261059b565b610a2281600361059b565b505050565b60028181548110610a3757600080fd5b6000918252602090912001546001600160a01b0316905081565b604080514260208201526bffffffffffffffffffffffff193360601b1691810191909152605481018290526000907f0000000000000000000000000000000000000000000000000000000000000000906074016040516020818303038152906040528051906020012060001c610ac79190611277565b50919050565b600480548190610adc9061128b565b80601f0160208091040260200160405190810160405280929190818152602001828054610b089061128b565b8015610b555780601f10610b2a57610100808354040283529160200191610b55565b820191906000526020600020905b815481529060010190602001808311610b3857829003601f168201915b505050506001830154600290930154919260ff1691905083565b60016020528160005260406000208181548110610b8b57600080fd5b6000918252602090912001546001600160a01b03169150829050565b60005b600254811015610c0c5760008060028381548110610bca57610bca611222565b60009182526020808320909101546001600160a01b031683528201929092526040018120805460ff191681556001015580610c0481611238565b915050610baa565b5060005b7f0000000000000000000000000000000000000000000000000000000000000000811015610c61576000818152600160205260408120610c4f91610dff565b80610c5981611238565b915050610c10565b506040805160008152602081019182905251610c7f91600291610e1d565b50600060038190556040805160608101825284815260208101929092528101610caa42610258611251565b905280516004908190610cbd9082611305565b50602082015160018083018054909160ff19909116908381811115610ce457610ce4610fd2565b021790555060409190910151600290910155801515600103610d0e576005805460ff191660011790555b5050565b6040516001600160a01b03821660248201526104849060440160408051601f198184030181529190526020810180516001600160e01b031663161765e160e11b179052610dde565b610d0e8282604051602401610d709291906113c5565b60408051601f198184030181529190526020810180516001600160e01b0316632d839cb360e21b179052610dde565b61048481604051602401610db391906113d8565b60408051601f198184030181529190526020810180516001600160e01b031663104c13eb60e21b1790525b60006a636f6e736f6c652e6c6f679050600080835160208501845afa505050565b50805460008255906000526020600020908101906104849190610e82565b828054828255906000526020600020908101928215610e72579160200282015b82811115610e7257825182546001600160a01b0319166001600160a01b03909116178255602090920191600190910190610e3d565b50610e7e929150610e82565b5090565b5b80821115610e7e5760008155600101610e83565b600060208284031215610ea957600080fd5b5035919050565b600081518084526020808501945080840160005b83811015610ee95781516001600160a01b031687529582019590820190600101610ec4565b509495945050505050565b604081526000610f076040830185610eb0565b90508260208301529392505050565b80356001600160a01b0381168114610f2d57600080fd5b919050565b600060208284031215610f4457600080fd5b610f4d82610f16565b9392505050565b608081526000610f676080830187610eb0565b602083820381850152610f7a8288610eb0565b91508382036040850152610f8e8287610eb0565b8481036060860152855180825282870193509082019060005b81811015610fc357845183529383019391830191600101610fa7565b50909998505050505050505050565b634e487b7160e01b600052602160045260246000fd5b6040810160038410610ffc57610ffc610fd2565b9281526020015290565b6000806040838503121561101957600080fd5b50508035926020909101359150565b6000806000806080858703121561103e57600080fd5b61104785610f16565b966020860135965060408601359560600135945092505050565b6000815180845260005b818110156110875760208185018101518683018201520161106b565b506000602082860101526020601f19601f83011685010191505092915050565b6060815260006110ba6060830186611061565b9050600284106110cc576110cc610fd2565b602082019390935260400152919050565b634e487b7160e01b600052604160045260246000fd5b80358015158114610f2d57600080fd5b6000806040838503121561111657600080fd5b823567ffffffffffffffff8082111561112e57600080fd5b818501915085601f83011261114257600080fd5b813581811115611154576111546110dd565b604051601f8201601f19908116603f0116810190838211818310171561117c5761117c6110dd565b8160405282815288602084870101111561119557600080fd5b8260208601602083013760006020848301015280965050505050506111bc602084016110f3565b90509250929050565b634e487b7160e01b600052601160045260246000fd5b80820281158282048414176111f2576111f26111c5565b92915050565b634e487b7160e01b600052601260045260246000fd5b60008261121d5761121d6111f8565b500490565b634e487b7160e01b600052603260045260246000fd5b60006001820161124a5761124a6111c5565b5060010190565b808201808211156111f2576111f26111c5565b818103818111156111f2576111f26111c5565b600082611286576112866111f8565b500690565b600181811c9082168061129f57607f821691505b602082108103610ac757634e487b7160e01b600052602260045260246000fd5b601f821115610a2257600081815260208120601f850160051c810160208610156112e65750805b601f850160051c820191505b818110156109f4578281556001016112f2565b815167ffffffffffffffff81111561131f5761131f6110dd565b6113338161132d845461128b565b846112bf565b602080601f83116001811461136857600084156113505750858301515b600019600386901b1c1916600185901b1785556109f4565b600085815260208120601f198616915b8281101561139757888601518255948401946001909101908401611378565b50858210156113b55787850151600019600388901b60f8161c191681555b5050505050600190811b01905550565b604081526000610f076040830185611061565b602081526000610f4d602083018461106156fea26469706673582212205dec86b2813000ac59b903323007d06bb34ea3dd33d850c4a045bd9ff53e1b4964736f6c63430008120033",
			"opcodes": "PUSH1 0xC0 PUSH1 0x40 MSTORE CALLVALUE DUP1 ISZERO PUSH2 0x10 JUMPI PUSH1 0x0 DUP1 REVERT JUMPDEST POP PUSH1 0x0 PUSH1 0x3 SSTORE PUSH1 0x5 PUSH1 0x80 MSTORE PUSH2 0x1F4 PUSH1 0xA0 MSTORE PUSH1 0x80 MLOAD PUSH1 0xA0 MLOAD PUSH2 0x1421 PUSH2 0x5B PUSH1 0x0 CODECOPY PUSH1 0x0 DUP2 DUP2 PUSH2 0x2B4 ADD MSTORE PUSH2 0x49E ADD MSTORE PUSH1 0x0 DUP2 DUP2 PUSH2 0x1AE ADD MSTORE DUP2 DUP2 PUSH2 0xA81 ADD MSTORE PUSH2 0xC12 ADD MSTORE PUSH2 0x1421 PUSH1 0x0 RETURN INVALID PUSH1 0x80 PUSH1 0x40 MSTORE CALLVALUE DUP1 ISZERO PUSH2 0x10 JUMPI PUSH1 0x0 DUP1 REVERT JUMPDEST POP PUSH1 0x4 CALLDATASIZE LT PUSH2 0x116 JUMPI PUSH1 0x0 CALLDATALOAD PUSH1 0xE0 SHR DUP1 PUSH4 0x81077173 GT PUSH2 0xA2 JUMPI DUP1 PUSH4 0xB863BD37 GT PUSH2 0x71 JUMPI DUP1 PUSH4 0xB863BD37 EQ PUSH2 0x29C JUMPI DUP1 PUSH4 0xC4832364 EQ PUSH2 0x2AF JUMPI DUP1 PUSH4 0xC4FC3B2E EQ PUSH2 0x2D6 JUMPI DUP1 PUSH4 0xDEBD24BD EQ PUSH2 0x2ED JUMPI DUP1 PUSH4 0xF3DE9CFA EQ PUSH2 0x300 JUMPI PUSH1 0x0 DUP1 REVERT JUMPDEST DUP1 PUSH4 0x81077173 EQ PUSH2 0x236 JUMPI DUP1 PUSH4 0x83C26072 EQ PUSH2 0x249 JUMPI DUP1 PUSH4 0x85D3DB11 EQ PUSH2 0x251 JUMPI DUP1 PUSH4 0xA4F67B8B EQ PUSH2 0x271 JUMPI PUSH1 0x0 DUP1 REVERT JUMPDEST DUP1 PUSH4 0x4D7260B5 GT PUSH2 0xE9 JUMPI DUP1 PUSH4 0x4D7260B5 EQ PUSH2 0x186 JUMPI DUP1 PUSH4 0x5A8BD215 EQ PUSH2 0x1A9 JUMPI DUP1 PUSH4 0x5D495AEA EQ PUSH2 0x1D0 JUMPI DUP1 PUSH4 0x67AD4EC2 EQ PUSH2 0x1E8 JUMPI DUP1 PUSH4 0x71D58CCE EQ PUSH2 0x223 JUMPI PUSH1 0x0 DUP1 REVERT JUMPDEST DUP1 PUSH4 0xB0705C8 EQ PUSH2 0x11B JUMPI DUP1 PUSH4 0xD7087E9 EQ PUSH2 0x145 JUMPI DUP1 PUSH4 0x1A39D8EF EQ PUSH2 0x14F JUMPI DUP1 PUSH4 0x1D637F42 EQ PUSH2 0x166 JUMPI JUMPDEST PUSH1 0x0 DUP1 REVERT JUMPDEST PUSH2 0x12E PUSH2 0x129 CALLDATASIZE PUSH1 0x4 PUSH2 0xE97 JUMP JUMPDEST PUSH2 0x313 JUMP JUMPDEST PUSH1 0x40 MLOAD PUSH2 0x13C SWAP3 SWAP2 SWAP1 PUSH2 0xEF4 JUMP JUMPDEST PUSH1 0x40 MLOAD DUP1 SWAP2 SUB SWAP1 RETURN JUMPDEST PUSH2 0x14D PUSH2 0x435 JUMP JUMPDEST STOP JUMPDEST PUSH2 0x158 PUSH1 0x3 SLOAD DUP2 JUMP JUMPDEST PUSH1 0x40 MLOAD SWAP1 DUP2 MSTORE PUSH1 0x20 ADD PUSH2 0x13C JUMP JUMPDEST PUSH2 0x158 PUSH2 0x174 CALLDATASIZE PUSH1 0x4 PUSH2 0xF32 JUMP JUMPDEST PUSH1 0x7 PUSH1 0x20 MSTORE PUSH1 0x0 SWAP1 DUP2 MSTORE PUSH1 0x40 SWAP1 KECCAK256 SLOAD DUP2 JUMP JUMPDEST PUSH2 0x199 PUSH2 0x194 CALLDATASIZE PUSH1 0x4 PUSH2 0xE97 JUMP JUMPDEST PUSH2 0x487 JUMP JUMPDEST PUSH1 0x40 MLOAD SWAP1 ISZERO ISZERO DUP2 MSTORE PUSH1 0x20 ADD PUSH2 0x13C JUMP JUMPDEST PUSH2 0x158 PUSH32 0x0 DUP2 JUMP JUMPDEST PUSH2 0x1D8 PUSH2 0x4CA JUMP JUMPDEST PUSH1 0x40 MLOAD PUSH2 0x13C SWAP5 SWAP4 SWAP3 SWAP2 SWAP1 PUSH2 0xF54 JUMP JUMPDEST PUSH2 0x215 PUSH2 0x1F6 CALLDATASIZE PUSH1 0x4 PUSH2 0xF32 JUMP JUMPDEST PUSH1 0x0 PUSH1 0x20 DUP2 SWAP1 MSTORE SWAP1 DUP2 MSTORE PUSH1 0x40 SWAP1 KECCAK256 DUP1 SLOAD PUSH1 0x1 SWAP1 SWAP2 ADD SLOAD PUSH1 0xFF SWAP1 SWAP2 AND SWAP1 DUP3 JUMP JUMPDEST PUSH1 0x40 MLOAD PUSH2 0x13C SWAP3 SWAP2 SWAP1 PUSH2 0xFE8 JUMP JUMPDEST PUSH2 0x14D PUSH2 0x231 CALLDATASIZE PUSH1 0x4 PUSH2 0x1006 JUMP JUMPDEST PUSH2 0x59B JUMP JUMPDEST PUSH2 0x14D PUSH2 0x244 CALLDATASIZE PUSH1 0x4 PUSH2 0x1028 JUMP JUMPDEST PUSH2 0x870 JUMP JUMPDEST PUSH2 0x14D PUSH2 0x9FC JUMP JUMPDEST PUSH1 0x40 DUP1 MLOAD PUSH1 0x1 DUP2 MSTORE PUSH1 0x2 PUSH1 0x20 DUP3 ADD MSTORE PUSH1 0x3 SWAP2 DUP2 ADD SWAP2 SWAP1 SWAP2 MSTORE PUSH1 0x60 ADD PUSH2 0x13C JUMP JUMPDEST PUSH2 0x284 PUSH2 0x27F CALLDATASIZE PUSH1 0x4 PUSH2 0xE97 JUMP JUMPDEST PUSH2 0xA27 JUMP JUMPDEST PUSH1 0x40 MLOAD PUSH1 0x1 PUSH1 0x1 PUSH1 0xA0 SHL SUB SWAP1 SWAP2 AND DUP2 MSTORE PUSH1 0x20 ADD PUSH2 0x13C JUMP JUMPDEST PUSH2 0x158 PUSH2 0x2AA CALLDATASIZE PUSH1 0x4 PUSH2 0xE97 JUMP JUMPDEST PUSH2 0xA51 JUMP JUMPDEST PUSH2 0x158 PUSH32 0x0 DUP2 JUMP JUMPDEST PUSH2 0x2DE PUSH2 0xACD JUMP JUMPDEST PUSH1 0x40 MLOAD PUSH2 0x13C SWAP4 SWAP3 SWAP2 SWAP1 PUSH2 0x10A7 JUMP JUMPDEST PUSH2 0x284 PUSH2 0x2FB CALLDATASIZE PUSH1 0x4 PUSH2 0x1006 JUMP JUMPDEST PUSH2 0xB6F JUMP JUMPDEST PUSH2 0x14D PUSH2 0x30E CALLDATASIZE PUSH1 0x4 PUSH2 0x1103 JUMP JUMPDEST PUSH2 0xBA7 JUMP JUMPDEST PUSH1 0x60 PUSH1 0x0 DUP1 PUSH2 0x322 PUSH1 0x1 PUSH2 0xA51 JUMP JUMPDEST PUSH1 0x0 DUP2 DUP2 MSTORE PUSH1 0x1 PUSH1 0x20 SWAP1 DUP2 MSTORE PUSH1 0x40 DUP1 DUP4 KECCAK256 DUP1 SLOAD DUP3 MLOAD DUP2 DUP6 MUL DUP2 ADD DUP6 ADD SWAP1 SWAP4 MSTORE DUP1 DUP4 MSTORE SWAP5 SWAP6 POP SWAP3 SWAP4 DUP5 SWAP4 SWAP2 SWAP3 DUP4 ADD DUP3 DUP3 DUP1 ISZERO PUSH2 0x386 JUMPI PUSH1 0x20 MUL DUP3 ADD SWAP2 SWAP1 PUSH1 0x0 MSTORE PUSH1 0x20 PUSH1 0x0 KECCAK256 SWAP1 JUMPDEST DUP2 SLOAD PUSH1 0x1 PUSH1 0x1 PUSH1 0xA0 SHL SUB AND DUP2 MSTORE PUSH1 0x1 SWAP1 SWAP2 ADD SWAP1 PUSH1 0x20 ADD DUP1 DUP4 GT PUSH2 0x368 JUMPI JUMPDEST POP POP POP POP POP SWAP1 POP JUMPDEST DUP1 MLOAD PUSH1 0x0 SUB PUSH2 0x40F JUMPI PUSH2 0x3A1 PUSH1 0x2 PUSH2 0xA51 JUMP JUMPDEST PUSH1 0x0 DUP2 DUP2 MSTORE PUSH1 0x1 PUSH1 0x20 SWAP1 DUP2 MSTORE PUSH1 0x40 SWAP2 DUP3 SWAP1 KECCAK256 DUP1 SLOAD DUP4 MLOAD DUP2 DUP5 MUL DUP2 ADD DUP5 ADD SWAP1 SWAP5 MSTORE DUP1 DUP5 MSTORE SWAP4 SWAP7 POP SWAP2 SWAP3 SWAP1 DUP4 ADD DUP3 DUP3 DUP1 ISZERO PUSH2 0x403 JUMPI PUSH1 0x20 MUL DUP3 ADD SWAP2 SWAP1 PUSH1 0x0 MSTORE PUSH1 0x20 PUSH1 0x0 KECCAK256 SWAP1 JUMPDEST DUP2 SLOAD PUSH1 0x1 PUSH1 0x1 PUSH1 0xA0 SHL SUB AND DUP2 MSTORE PUSH1 0x1 SWAP1 SWAP2 ADD SWAP1 PUSH1 0x20 ADD DUP1 DUP4 GT PUSH2 0x3E5 JUMPI JUMPDEST POP POP POP POP POP SWAP1 POP PUSH2 0x38E JUMP JUMPDEST DUP6 DUP2 MLOAD PUSH2 0x41C SWAP2 SWAP1 PUSH2 0x11DB JUMP JUMPDEST PUSH1 0x3 SLOAD PUSH2 0x429 SWAP2 SWAP1 PUSH2 0x120E JUMP JUMPDEST SWAP1 SWAP7 SWAP1 SWAP6 POP SWAP4 POP POP POP POP JUMP JUMPDEST PUSH1 0x0 JUMPDEST PUSH1 0x2 SLOAD DUP2 LT ISZERO PUSH2 0x484 JUMPI PUSH2 0x472 PUSH1 0x2 DUP3 DUP2 SLOAD DUP2 LT PUSH2 0x458 JUMPI PUSH2 0x458 PUSH2 0x1222 JUMP JUMPDEST PUSH1 0x0 SWAP2 DUP3 MSTORE PUSH1 0x20 SWAP1 SWAP2 KECCAK256 ADD SLOAD PUSH1 0x1 PUSH1 0x1 PUSH1 0xA0 SHL SUB AND PUSH2 0xD12 JUMP JUMPDEST DUP1 PUSH2 0x47C DUP2 PUSH2 0x1238 JUMP JUMPDEST SWAP2 POP POP PUSH2 0x438 JUMP JUMPDEST POP JUMP JUMPDEST PUSH1 0x0 DUP1 DUP3 PUSH1 0x3 SLOAD PUSH2 0x498 SWAP2 SWAP1 PUSH2 0x1251 JUMP JUMPDEST PUSH2 0x4C2 SWAP1 PUSH32 0x0 PUSH2 0x1264 JUMP JUMPDEST LT ISZERO SWAP3 SWAP2 POP POP JUMP JUMPDEST PUSH1 0x60 DUP1 PUSH1 0x60 DUP1 PUSH1 0x0 DUP1 PUSH2 0x4DD PUSH1 0x1 PUSH2 0x313 JUMP JUMPDEST SWAP2 POP SWAP2 POP PUSH1 0x0 DUP1 PUSH2 0x4EE PUSH1 0x2 PUSH2 0x313 JUMP JUMPDEST SWAP2 POP SWAP2 POP PUSH1 0x0 DUP1 PUSH2 0x4FF PUSH1 0x4 PUSH2 0x313 JUMP JUMPDEST PUSH1 0x40 DUP1 MLOAD PUSH1 0x3 DUP1 DUP3 MSTORE PUSH1 0x80 DUP3 ADD SWAP1 SWAP3 MSTORE SWAP3 SWAP5 POP SWAP1 SWAP3 POP PUSH1 0x0 SWAP2 SWAP1 PUSH1 0x20 DUP3 ADD PUSH1 0x60 DUP1 CALLDATASIZE DUP4 CALLDATACOPY ADD SWAP1 POP POP SWAP1 POP DUP6 DUP2 PUSH1 0x0 DUP2 MLOAD DUP2 LT PUSH2 0x53D JUMPI PUSH2 0x53D PUSH2 0x1222 JUMP JUMPDEST PUSH1 0x20 MUL PUSH1 0x20 ADD ADD DUP2 DUP2 MSTORE POP POP DUP2 DUP2 PUSH1 0x1 DUP2 MLOAD DUP2 LT PUSH2 0x55D JUMPI PUSH2 0x55D PUSH2 0x1222 JUMP JUMPDEST PUSH1 0x20 MUL PUSH1 0x20 ADD ADD DUP2 DUP2 MSTORE POP POP DUP4 DUP2 PUSH1 0x2 DUP2 MLOAD DUP2 LT PUSH2 0x57D JUMPI PUSH2 0x57D PUSH2 0x1222 JUMP JUMPDEST PUSH1 0x20 SWAP1 DUP2 MUL SWAP2 SWAP1 SWAP2 ADD ADD MSTORE SWAP6 SWAP11 SWAP4 SWAP10 POP SWAP1 SWAP8 POP SWAP4 SWAP6 POP SWAP1 SWAP4 POP POP POP POP JUMP JUMPDEST PUSH1 0x0 DUP3 DUP2 MSTORE PUSH1 0x1 PUSH1 0x20 SWAP1 DUP2 MSTORE PUSH1 0x40 DUP1 DUP4 KECCAK256 DUP1 SLOAD DUP3 MLOAD DUP2 DUP6 MUL DUP2 ADD DUP6 ADD SWAP1 SWAP4 MSTORE DUP1 DUP4 MSTORE SWAP2 SWAP3 SWAP1 SWAP2 SWAP1 DUP4 ADD DUP3 DUP3 DUP1 ISZERO PUSH2 0x5FB JUMPI PUSH1 0x20 MUL DUP3 ADD SWAP2 SWAP1 PUSH1 0x0 MSTORE PUSH1 0x20 PUSH1 0x0 KECCAK256 SWAP1 JUMPDEST DUP2 SLOAD PUSH1 0x1 PUSH1 0x1 PUSH1 0xA0 SHL SUB AND DUP2 MSTORE PUSH1 0x1 SWAP1 SWAP2 ADD SWAP1 PUSH1 0x20 ADD DUP1 DUP4 GT PUSH2 0x5DD JUMPI JUMPDEST POP POP POP POP POP SWAP1 POP PUSH1 0x0 JUMPDEST DUP2 MLOAD DUP2 LT ISZERO PUSH2 0x86A JUMPI PUSH1 0x0 DUP1 PUSH1 0x0 DUP5 DUP5 DUP2 MLOAD DUP2 LT PUSH2 0x625 JUMPI PUSH2 0x625 PUSH2 0x1222 JUMP JUMPDEST PUSH1 0x20 SWAP1 DUP2 MUL SWAP2 SWAP1 SWAP2 ADD DUP2 ADD MLOAD PUSH1 0x1 PUSH1 0x1 PUSH1 0xA0 SHL SUB AND DUP3 MSTORE DUP2 ADD SWAP2 SWAP1 SWAP2 MSTORE PUSH1 0x40 SWAP1 DUP2 ADD PUSH1 0x0 KECCAK256 DUP2 MLOAD DUP1 DUP4 ADD SWAP1 SWAP3 MSTORE DUP1 SLOAD DUP3 SWAP1 PUSH1 0xFF AND PUSH1 0x2 DUP2 GT ISZERO PUSH2 0x66A JUMPI PUSH2 0x66A PUSH2 0xFD2 JUMP JUMPDEST PUSH1 0x2 DUP2 GT ISZERO PUSH2 0x67B JUMPI PUSH2 0x67B PUSH2 0xFD2 JUMP JUMPDEST DUP2 MSTORE PUSH1 0x20 ADD PUSH1 0x1 DUP3 ADD SLOAD DUP2 MSTORE POP POP SWAP1 POP PUSH2 0x6B7 PUSH1 0x40 MLOAD DUP1 PUSH1 0x40 ADD PUSH1 0x40 MSTORE DUP1 PUSH1 0x6 DUP2 MSTORE PUSH1 0x20 ADD PUSH6 0x3132BA101D1 PUSH1 0xD5 SHL DUP2 MSTORE POP DUP3 PUSH1 0x20 ADD MLOAD PUSH2 0xD5A JUMP JUMPDEST PUSH1 0x0 DUP2 MLOAD PUSH1 0x2 DUP2 GT ISZERO PUSH2 0x6CC JUMPI PUSH2 0x6CC PUSH2 0xFD2 JUMP JUMPDEST EQ DUP1 ISZERO PUSH2 0x6D9 JUMPI POP DUP4 PUSH1 0x1 EQ JUMPDEST ISZERO PUSH2 0x741 JUMPI PUSH1 0x20 DUP2 ADD MLOAD PUSH2 0x6EE SWAP1 PUSH1 0x6 PUSH2 0x11DB JUMP JUMPDEST PUSH1 0x7 PUSH1 0x0 DUP6 DUP6 DUP2 MLOAD DUP2 LT PUSH2 0x704 JUMPI PUSH2 0x704 PUSH2 0x1222 JUMP JUMPDEST PUSH1 0x20 MUL PUSH1 0x20 ADD ADD MLOAD PUSH1 0x1 PUSH1 0x1 PUSH1 0xA0 SHL SUB AND PUSH1 0x1 PUSH1 0x1 PUSH1 0xA0 SHL SUB AND DUP2 MSTORE PUSH1 0x20 ADD SWAP1 DUP2 MSTORE PUSH1 0x20 ADD PUSH1 0x0 KECCAK256 PUSH1 0x0 DUP3 DUP3 SLOAD PUSH2 0x73B SWAP2 SWAP1 PUSH2 0x1251 JUMP JUMPDEST SWAP1 SWAP2 SSTORE POP POP JUMPDEST PUSH1 0x1 DUP2 MLOAD PUSH1 0x2 DUP2 GT ISZERO PUSH2 0x756 JUMPI PUSH2 0x756 PUSH2 0xFD2 JUMP JUMPDEST EQ DUP1 ISZERO PUSH2 0x764 JUMPI POP PUSH1 0x2 DUP5 GT ISZERO JUMPDEST ISZERO PUSH2 0x7CC JUMPI PUSH1 0x20 DUP2 ADD MLOAD PUSH2 0x779 SWAP1 PUSH1 0x4 PUSH2 0x11DB JUMP JUMPDEST PUSH1 0x7 PUSH1 0x0 DUP6 DUP6 DUP2 MLOAD DUP2 LT PUSH2 0x78F JUMPI PUSH2 0x78F PUSH2 0x1222 JUMP JUMPDEST PUSH1 0x20 MUL PUSH1 0x20 ADD ADD MLOAD PUSH1 0x1 PUSH1 0x1 PUSH1 0xA0 SHL SUB AND PUSH1 0x1 PUSH1 0x1 PUSH1 0xA0 SHL SUB AND DUP2 MSTORE PUSH1 0x20 ADD SWAP1 DUP2 MSTORE PUSH1 0x20 ADD PUSH1 0x0 KECCAK256 PUSH1 0x0 DUP3 DUP3 SLOAD PUSH2 0x7C6 SWAP2 SWAP1 PUSH2 0x1251 JUMP JUMPDEST SWAP1 SWAP2 SSTORE POP POP JUMPDEST PUSH1 0x2 DUP2 MLOAD PUSH1 0x2 DUP2 GT ISZERO PUSH2 0x7E1 JUMPI PUSH2 0x7E1 PUSH2 0xFD2 JUMP JUMPDEST EQ DUP1 ISZERO PUSH2 0x7EF JUMPI POP PUSH1 0x3 DUP5 GT ISZERO JUMPDEST ISZERO PUSH2 0x857 JUMPI PUSH1 0x20 DUP2 ADD MLOAD PUSH2 0x804 SWAP1 PUSH1 0x2 PUSH2 0x11DB JUMP JUMPDEST PUSH1 0x7 PUSH1 0x0 DUP6 DUP6 DUP2 MLOAD DUP2 LT PUSH2 0x81A JUMPI PUSH2 0x81A PUSH2 0x1222 JUMP JUMPDEST PUSH1 0x20 MUL PUSH1 0x20 ADD ADD MLOAD PUSH1 0x1 PUSH1 0x1 PUSH1 0xA0 SHL SUB AND PUSH1 0x1 PUSH1 0x1 PUSH1 0xA0 SHL SUB AND DUP2 MSTORE PUSH1 0x20 ADD SWAP1 DUP2 MSTORE PUSH1 0x20 ADD PUSH1 0x0 KECCAK256 PUSH1 0x0 DUP3 DUP3 SLOAD PUSH2 0x851 SWAP2 SWAP1 PUSH2 0x1251 JUMP JUMPDEST SWAP1 SWAP2 SSTORE POP POP JUMPDEST POP DUP1 PUSH2 0x862 DUP2 PUSH2 0x1238 JUMP JUMPDEST SWAP2 POP POP PUSH2 0x605 JUMP JUMPDEST POP POP POP POP JUMP JUMPDEST PUSH2 0x8A4 PUSH1 0x40 MLOAD DUP1 PUSH1 0x40 ADD PUSH1 0x40 MSTORE DUP1 PUSH1 0x13 DUP2 MSTORE PUSH1 0x20 ADD PUSH19 0x24B739B4B232903932B3B4B9BA32B92AB9B2B9 PUSH1 0x69 SHL DUP2 MSTORE POP PUSH2 0xD9F JUMP JUMPDEST PUSH1 0x2 PUSH1 0x1 DUP3 SWAP1 SUB PUSH2 0x8B7 JUMPI POP PUSH1 0x0 PUSH2 0x8C3 JUMP JUMPDEST DUP2 PUSH1 0x2 SUB PUSH2 0x8C3 JUMPI POP PUSH1 0x1 JUMPDEST PUSH1 0x0 PUSH1 0x40 MLOAD DUP1 PUSH1 0x40 ADD PUSH1 0x40 MSTORE DUP1 DUP4 PUSH1 0x2 DUP2 GT ISZERO PUSH2 0x8E2 JUMPI PUSH2 0x8E2 PUSH2 0xFD2 JUMP JUMPDEST DUP2 MSTORE PUSH1 0x20 SWAP1 DUP2 ADD DUP8 SWAP1 MSTORE PUSH1 0x1 PUSH1 0x1 PUSH1 0xA0 SHL SUB DUP9 AND PUSH1 0x0 SWAP1 DUP2 MSTORE SWAP1 DUP2 SWAP1 MSTORE PUSH1 0x40 SWAP1 KECCAK256 DUP2 MLOAD DUP2 SLOAD SWAP3 SWAP4 POP DUP4 SWAP3 DUP3 SWAP1 PUSH1 0xFF NOT AND PUSH1 0x1 DUP4 PUSH1 0x2 DUP2 GT ISZERO PUSH2 0x926 JUMPI PUSH2 0x926 PUSH2 0xFD2 JUMP JUMPDEST MUL OR SWAP1 SSTORE POP PUSH1 0x20 DUP3 ADD MLOAD DUP2 PUSH1 0x1 ADD SSTORE SWAP1 POP POP DUP5 PUSH1 0x3 PUSH1 0x0 DUP3 DUP3 SLOAD PUSH2 0x94A SWAP2 SWAP1 PUSH2 0x1251 JUMP JUMPDEST SWAP1 SWAP2 SSTORE POP POP PUSH1 0x2 DUP1 SLOAD PUSH1 0x1 DUP2 DUP2 ADD SWAP1 SWAP3 SSTORE PUSH32 0x405787FA12A823E0F2B7631CC41B3BA8828B3321CA811111FA75CD3AA3BB5ACE ADD DUP1 SLOAD PUSH1 0x1 PUSH1 0x1 PUSH1 0xA0 SHL SUB DUP10 AND PUSH1 0x1 PUSH1 0x1 PUSH1 0xA0 SHL SUB NOT SWAP2 DUP3 AND DUP2 OR SWAP1 SWAP3 SSTORE PUSH1 0x0 DUP8 DUP2 MSTORE PUSH1 0x20 DUP5 DUP2 MSTORE PUSH1 0x40 DUP1 DUP4 KECCAK256 DUP1 SLOAD SWAP7 DUP8 ADD DUP2 SSTORE DUP4 MSTORE SWAP2 DUP2 SWAP1 KECCAK256 SWAP1 SWAP5 ADD DUP1 SLOAD SWAP1 SWAP3 AND SWAP1 SWAP3 OR SWAP1 SSTORE DUP1 MLOAD DUP1 DUP3 ADD SWAP1 SWAP2 MSTORE PUSH1 0x11 DUP2 MSTORE PUSH17 0x2237B732903932B3B4B9BA32B92AB9B2B9 PUSH1 0x79 SHL SWAP2 DUP2 ADD SWAP2 SWAP1 SWAP2 MSTORE PUSH2 0x9F4 SWAP1 PUSH2 0xD9F JUMP JUMPDEST POP POP POP POP POP POP JUMP JUMPDEST PUSH1 0x1 PUSH1 0x2 PUSH1 0x3 PUSH2 0xA0C DUP4 DUP1 PUSH2 0x59B JUMP JUMPDEST PUSH2 0xA17 DUP3 PUSH1 0x2 PUSH2 0x59B JUMP JUMPDEST PUSH2 0xA22 DUP2 PUSH1 0x3 PUSH2 0x59B JUMP JUMPDEST POP POP POP JUMP JUMPDEST PUSH1 0x2 DUP2 DUP2 SLOAD DUP2 LT PUSH2 0xA37 JUMPI PUSH1 0x0 DUP1 REVERT JUMPDEST PUSH1 0x0 SWAP2 DUP3 MSTORE PUSH1 0x20 SWAP1 SWAP2 KECCAK256 ADD SLOAD PUSH1 0x1 PUSH1 0x1 PUSH1 0xA0 SHL SUB AND SWAP1 POP DUP2 JUMP JUMPDEST PUSH1 0x40 DUP1 MLOAD TIMESTAMP PUSH1 0x20 DUP3 ADD MSTORE PUSH12 0xFFFFFFFFFFFFFFFFFFFFFFFF NOT CALLER PUSH1 0x60 SHL AND SWAP2 DUP2 ADD SWAP2 SWAP1 SWAP2 MSTORE PUSH1 0x54 DUP2 ADD DUP3 SWAP1 MSTORE PUSH1 0x0 SWAP1 PUSH32 0x0 SWAP1 PUSH1 0x74 ADD PUSH1 0x40 MLOAD PUSH1 0x20 DUP2 DUP4 SUB SUB DUP2 MSTORE SWAP1 PUSH1 0x40 MSTORE DUP1 MLOAD SWAP1 PUSH1 0x20 ADD KECCAK256 PUSH1 0x0 SHR PUSH2 0xAC7 SWAP2 SWAP1 PUSH2 0x1277 JUMP JUMPDEST POP SWAP2 SWAP1 POP JUMP JUMPDEST PUSH1 0x4 DUP1 SLOAD DUP2 SWAP1 PUSH2 0xADC SWAP1 PUSH2 0x128B JUMP JUMPDEST DUP1 PUSH1 0x1F ADD PUSH1 0x20 DUP1 SWAP2 DIV MUL PUSH1 0x20 ADD PUSH1 0x40 MLOAD SWAP1 DUP2 ADD PUSH1 0x40 MSTORE DUP1 SWAP3 SWAP2 SWAP1 DUP2 DUP2 MSTORE PUSH1 0x20 ADD DUP3 DUP1 SLOAD PUSH2 0xB08 SWAP1 PUSH2 0x128B JUMP JUMPDEST DUP1 ISZERO PUSH2 0xB55 JUMPI DUP1 PUSH1 0x1F LT PUSH2 0xB2A JUMPI PUSH2 0x100 DUP1 DUP4 SLOAD DIV MUL DUP4 MSTORE SWAP2 PUSH1 0x20 ADD SWAP2 PUSH2 0xB55 JUMP JUMPDEST DUP3 ADD SWAP2 SWAP1 PUSH1 0x0 MSTORE PUSH1 0x20 PUSH1 0x0 KECCAK256 SWAP1 JUMPDEST DUP2 SLOAD DUP2 MSTORE SWAP1 PUSH1 0x1 ADD SWAP1 PUSH1 0x20 ADD DUP1 DUP4 GT PUSH2 0xB38 JUMPI DUP3 SWAP1 SUB PUSH1 0x1F AND DUP3 ADD SWAP2 JUMPDEST POP POP POP POP PUSH1 0x1 DUP4 ADD SLOAD PUSH1 0x2 SWAP1 SWAP4 ADD SLOAD SWAP2 SWAP3 PUSH1 0xFF AND SWAP2 SWAP1 POP DUP4 JUMP JUMPDEST PUSH1 0x1 PUSH1 0x20 MSTORE DUP2 PUSH1 0x0 MSTORE PUSH1 0x40 PUSH1 0x0 KECCAK256 DUP2 DUP2 SLOAD DUP2 LT PUSH2 0xB8B JUMPI PUSH1 0x0 DUP1 REVERT JUMPDEST PUSH1 0x0 SWAP2 DUP3 MSTORE PUSH1 0x20 SWAP1 SWAP2 KECCAK256 ADD SLOAD PUSH1 0x1 PUSH1 0x1 PUSH1 0xA0 SHL SUB AND SWAP2 POP DUP3 SWAP1 POP JUMP JUMPDEST PUSH1 0x0 JUMPDEST PUSH1 0x2 SLOAD DUP2 LT ISZERO PUSH2 0xC0C JUMPI PUSH1 0x0 DUP1 PUSH1 0x2 DUP4 DUP2 SLOAD DUP2 LT PUSH2 0xBCA JUMPI PUSH2 0xBCA PUSH2 0x1222 JUMP JUMPDEST PUSH1 0x0 SWAP2 DUP3 MSTORE PUSH1 0x20 DUP1 DUP4 KECCAK256 SWAP1 SWAP2 ADD SLOAD PUSH1 0x1 PUSH1 0x1 PUSH1 0xA0 SHL SUB AND DUP4 MSTORE DUP3 ADD SWAP3 SWAP1 SWAP3 MSTORE PUSH1 0x40 ADD DUP2 KECCAK256 DUP1 SLOAD PUSH1 0xFF NOT AND DUP2 SSTORE PUSH1 0x1 ADD SSTORE DUP1 PUSH2 0xC04 DUP2 PUSH2 0x1238 JUMP JUMPDEST SWAP2 POP POP PUSH2 0xBAA JUMP JUMPDEST POP PUSH1 0x0 JUMPDEST PUSH32 0x0 DUP2 LT ISZERO PUSH2 0xC61 JUMPI PUSH1 0x0 DUP2 DUP2 MSTORE PUSH1 0x1 PUSH1 0x20 MSTORE PUSH1 0x40 DUP2 KECCAK256 PUSH2 0xC4F SWAP2 PUSH2 0xDFF JUMP JUMPDEST DUP1 PUSH2 0xC59 DUP2 PUSH2 0x1238 JUMP JUMPDEST SWAP2 POP POP PUSH2 0xC10 JUMP JUMPDEST POP PUSH1 0x40 DUP1 MLOAD PUSH1 0x0 DUP2 MSTORE PUSH1 0x20 DUP2 ADD SWAP2 DUP3 SWAP1 MSTORE MLOAD PUSH2 0xC7F SWAP2 PUSH1 0x2 SWAP2 PUSH2 0xE1D JUMP JUMPDEST POP PUSH1 0x0 PUSH1 0x3 DUP2 SWAP1 SSTORE PUSH1 0x40 DUP1 MLOAD PUSH1 0x60 DUP2 ADD DUP3 MSTORE DUP5 DUP2 MSTORE PUSH1 0x20 DUP2 ADD SWAP3 SWAP1 SWAP3 MSTORE DUP2 ADD PUSH2 0xCAA TIMESTAMP PUSH2 0x258 PUSH2 0x1251 JUMP JUMPDEST SWAP1 MSTORE DUP1 MLOAD PUSH1 0x4 SWAP1 DUP2 SWAP1 PUSH2 0xCBD SWAP1 DUP3 PUSH2 0x1305 JUMP JUMPDEST POP PUSH1 0x20 DUP3 ADD MLOAD PUSH1 0x1 DUP1 DUP4 ADD DUP1 SLOAD SWAP1 SWAP2 PUSH1 0xFF NOT SWAP1 SWAP2 AND SWAP1 DUP4 DUP2 DUP2 GT ISZERO PUSH2 0xCE4 JUMPI PUSH2 0xCE4 PUSH2 0xFD2 JUMP JUMPDEST MUL OR SWAP1 SSTORE POP PUSH1 0x40 SWAP2 SWAP1 SWAP2 ADD MLOAD PUSH1 0x2 SWAP1 SWAP2 ADD SSTORE DUP1 ISZERO ISZERO PUSH1 0x1 SUB PUSH2 0xD0E JUMPI PUSH1 0x5 DUP1 SLOAD PUSH1 0xFF NOT AND PUSH1 0x1 OR SWAP1 SSTORE JUMPDEST POP POP JUMP JUMPDEST PUSH1 0x40 MLOAD PUSH1 0x1 PUSH1 0x1 PUSH1 0xA0 SHL SUB DUP3 AND PUSH1 0x24 DUP3 ADD MSTORE PUSH2 0x484 SWAP1 PUSH1 0x44 ADD PUSH1 0x40 DUP1 MLOAD PUSH1 0x1F NOT DUP2 DUP5 SUB ADD DUP2 MSTORE SWAP2 SWAP1 MSTORE PUSH1 0x20 DUP2 ADD DUP1 MLOAD PUSH1 0x1 PUSH1 0x1 PUSH1 0xE0 SHL SUB AND PUSH4 0x161765E1 PUSH1 0xE1 SHL OR SWAP1 MSTORE PUSH2 0xDDE JUMP JUMPDEST PUSH2 0xD0E DUP3 DUP3 PUSH1 0x40 MLOAD PUSH1 0x24 ADD PUSH2 0xD70 SWAP3 SWAP2 SWAP1 PUSH2 0x13C5 JUMP JUMPDEST PUSH1 0x40 DUP1 MLOAD PUSH1 0x1F NOT DUP2 DUP5 SUB ADD DUP2 MSTORE SWAP2 SWAP1 MSTORE PUSH1 0x20 DUP2 ADD DUP1 MLOAD PUSH1 0x1 PUSH1 0x1 PUSH1 0xE0 SHL SUB AND PUSH4 0x2D839CB3 PUSH1 0xE2 SHL OR SWAP1 MSTORE PUSH2 0xDDE JUMP JUMPDEST PUSH2 0x484 DUP2 PUSH1 0x40 MLOAD PUSH1 0x24 ADD PUSH2 0xDB3 SWAP2 SWAP1 PUSH2 0x13D8 JUMP JUMPDEST PUSH1 0x40 DUP1 MLOAD PUSH1 0x1F NOT DUP2 DUP5 SUB ADD DUP2 MSTORE SWAP2 SWAP1 MSTORE PUSH1 0x20 DUP2 ADD DUP1 MLOAD PUSH1 0x1 PUSH1 0x1 PUSH1 0xE0 SHL SUB AND PUSH4 0x104C13EB PUSH1 0xE2 SHL OR SWAP1 MSTORE JUMPDEST PUSH1 0x0 PUSH11 0x636F6E736F6C652E6C6F67 SWAP1 POP PUSH1 0x0 DUP1 DUP4 MLOAD PUSH1 0x20 DUP6 ADD DUP5 GAS STATICCALL POP POP POP JUMP JUMPDEST POP DUP1 SLOAD PUSH1 0x0 DUP3 SSTORE SWAP1 PUSH1 0x0 MSTORE PUSH1 0x20 PUSH1 0x0 KECCAK256 SWAP1 DUP2 ADD SWAP1 PUSH2 0x484 SWAP2 SWAP1 PUSH2 0xE82 JUMP JUMPDEST DUP3 DUP1 SLOAD DUP3 DUP3 SSTORE SWAP1 PUSH1 0x0 MSTORE PUSH1 0x20 PUSH1 0x0 KECCAK256 SWAP1 DUP2 ADD SWAP3 DUP3 ISZERO PUSH2 0xE72 JUMPI SWAP2 PUSH1 0x20 MUL DUP3 ADD JUMPDEST DUP3 DUP2 GT ISZERO PUSH2 0xE72 JUMPI DUP3 MLOAD DUP3 SLOAD PUSH1 0x1 PUSH1 0x1 PUSH1 0xA0 SHL SUB NOT AND PUSH1 0x1 PUSH1 0x1 PUSH1 0xA0 SHL SUB SWAP1 SWAP2 AND OR DUP3 SSTORE PUSH1 0x20 SWAP1 SWAP3 ADD SWAP2 PUSH1 0x1 SWAP1 SWAP2 ADD SWAP1 PUSH2 0xE3D JUMP JUMPDEST POP PUSH2 0xE7E SWAP3 SWAP2 POP PUSH2 0xE82 JUMP JUMPDEST POP SWAP1 JUMP JUMPDEST JUMPDEST DUP1 DUP3 GT ISZERO PUSH2 0xE7E JUMPI PUSH1 0x0 DUP2 SSTORE PUSH1 0x1 ADD PUSH2 0xE83 JUMP JUMPDEST PUSH1 0x0 PUSH1 0x20 DUP3 DUP5 SUB SLT ISZERO PUSH2 0xEA9 JUMPI PUSH1 0x0 DUP1 REVERT JUMPDEST POP CALLDATALOAD SWAP2 SWAP1 POP JUMP JUMPDEST PUSH1 0x0 DUP2 MLOAD DUP1 DUP5 MSTORE PUSH1 0x20 DUP1 DUP6 ADD SWAP5 POP DUP1 DUP5 ADD PUSH1 0x0 JUMPDEST DUP4 DUP2 LT ISZERO PUSH2 0xEE9 JUMPI DUP2 MLOAD PUSH1 0x1 PUSH1 0x1 PUSH1 0xA0 SHL SUB AND DUP8 MSTORE SWAP6 DUP3 ADD SWAP6 SWAP1 DUP3 ADD SWAP1 PUSH1 0x1 ADD PUSH2 0xEC4 JUMP JUMPDEST POP SWAP5 SWAP6 SWAP5 POP POP POP POP POP JUMP JUMPDEST PUSH1 0x40 DUP2 MSTORE PUSH1 0x0 PUSH2 0xF07 PUSH1 0x40 DUP4 ADD DUP6 PUSH2 0xEB0 JUMP JUMPDEST SWAP1 POP DUP3 PUSH1 0x20 DUP4 ADD MSTORE SWAP4 SWAP3 POP POP POP JUMP JUMPDEST DUP1 CALLDATALOAD PUSH1 0x1 PUSH1 0x1 PUSH1 0xA0 SHL SUB DUP2 AND DUP2 EQ PUSH2 0xF2D JUMPI PUSH1 0x0 DUP1 REVERT JUMPDEST SWAP2 SWAP1 POP JUMP JUMPDEST PUSH1 0x0 PUSH1 0x20 DUP3 DUP5 SUB SLT ISZERO PUSH2 0xF44 JUMPI PUSH1 0x0 DUP1 REVERT JUMPDEST PUSH2 0xF4D DUP3 PUSH2 0xF16 JUMP JUMPDEST SWAP4 SWAP3 POP POP POP JUMP JUMPDEST PUSH1 0x80 DUP2 MSTORE PUSH1 0x0 PUSH2 0xF67 PUSH1 0x80 DUP4 ADD DUP8 PUSH2 0xEB0 JUMP JUMPDEST PUSH1 0x20 DUP4 DUP3 SUB DUP2 DUP6 ADD MSTORE PUSH2 0xF7A DUP3 DUP9 PUSH2 0xEB0 JUMP JUMPDEST SWAP2 POP DUP4 DUP3 SUB PUSH1 0x40 DUP6 ADD MSTORE PUSH2 0xF8E DUP3 DUP8 PUSH2 0xEB0 JUMP JUMPDEST DUP5 DUP2 SUB PUSH1 0x60 DUP7 ADD MSTORE DUP6 MLOAD DUP1 DUP3 MSTORE DUP3 DUP8 ADD SWAP4 POP SWAP1 DUP3 ADD SWAP1 PUSH1 0x0 JUMPDEST DUP2 DUP2 LT ISZERO PUSH2 0xFC3 JUMPI DUP5 MLOAD DUP4 MSTORE SWAP4 DUP4 ADD SWAP4 SWAP2 DUP4 ADD SWAP2 PUSH1 0x1 ADD PUSH2 0xFA7 JUMP JUMPDEST POP SWAP1 SWAP10 SWAP9 POP POP POP POP POP POP POP POP POP JUMP JUMPDEST PUSH4 0x4E487B71 PUSH1 0xE0 SHL PUSH1 0x0 MSTORE PUSH1 0x21 PUSH1 0x4 MSTORE PUSH1 0x24 PUSH1 0x0 REVERT JUMPDEST PUSH1 0x40 DUP2 ADD PUSH1 0x3 DUP5 LT PUSH2 0xFFC JUMPI PUSH2 0xFFC PUSH2 0xFD2 JUMP JUMPDEST SWAP3 DUP2 MSTORE PUSH1 0x20 ADD MSTORE SWAP1 JUMP JUMPDEST PUSH1 0x0 DUP1 PUSH1 0x40 DUP4 DUP6 SUB SLT ISZERO PUSH2 0x1019 JUMPI PUSH1 0x0 DUP1 REVERT JUMPDEST POP POP DUP1 CALLDATALOAD SWAP3 PUSH1 0x20 SWAP1 SWAP2 ADD CALLDATALOAD SWAP2 POP JUMP JUMPDEST PUSH1 0x0 DUP1 PUSH1 0x0 DUP1 PUSH1 0x80 DUP6 DUP8 SUB SLT ISZERO PUSH2 0x103E JUMPI PUSH1 0x0 DUP1 REVERT JUMPDEST PUSH2 0x1047 DUP6 PUSH2 0xF16 JUMP JUMPDEST SWAP7 PUSH1 0x20 DUP7 ADD CALLDATALOAD SWAP7 POP PUSH1 0x40 DUP7 ADD CALLDATALOAD SWAP6 PUSH1 0x60 ADD CALLDATALOAD SWAP5 POP SWAP3 POP POP POP JUMP JUMPDEST PUSH1 0x0 DUP2 MLOAD DUP1 DUP5 MSTORE PUSH1 0x0 JUMPDEST DUP2 DUP2 LT ISZERO PUSH2 0x1087 JUMPI PUSH1 0x20 DUP2 DUP6 ADD DUP2 ADD MLOAD DUP7 DUP4 ADD DUP3 ADD MSTORE ADD PUSH2 0x106B JUMP JUMPDEST POP PUSH1 0x0 PUSH1 0x20 DUP3 DUP7 ADD ADD MSTORE PUSH1 0x20 PUSH1 0x1F NOT PUSH1 0x1F DUP4 ADD AND DUP6 ADD ADD SWAP2 POP POP SWAP3 SWAP2 POP POP JUMP JUMPDEST PUSH1 0x60 DUP2 MSTORE PUSH1 0x0 PUSH2 0x10BA PUSH1 0x60 DUP4 ADD DUP7 PUSH2 0x1061 JUMP JUMPDEST SWAP1 POP PUSH1 0x2 DUP5 LT PUSH2 0x10CC JUMPI PUSH2 0x10CC PUSH2 0xFD2 JUMP JUMPDEST PUSH1 0x20 DUP3 ADD SWAP4 SWAP1 SWAP4 MSTORE PUSH1 0x40 ADD MSTORE SWAP2 SWAP1 POP JUMP JUMPDEST PUSH4 0x4E487B71 PUSH1 0xE0 SHL PUSH1 0x0 MSTORE PUSH1 0x41 PUSH1 0x4 MSTORE PUSH1 0x24 PUSH1 0x0 REVERT JUMPDEST DUP1 CALLDATALOAD DUP1 ISZERO ISZERO DUP2 EQ PUSH2 0xF2D JUMPI PUSH1 0x0 DUP1 REVERT JUMPDEST PUSH1 0x0 DUP1 PUSH1 0x40 DUP4 DUP6 SUB SLT ISZERO PUSH2 0x1116 JUMPI PUSH1 0x0 DUP1 REVERT JUMPDEST DUP3 CALLDATALOAD PUSH8 0xFFFFFFFFFFFFFFFF DUP1 DUP3 GT ISZERO PUSH2 0x112E JUMPI PUSH1 0x0 DUP1 REVERT JUMPDEST DUP2 DUP6 ADD SWAP2 POP DUP6 PUSH1 0x1F DUP4 ADD SLT PUSH2 0x1142 JUMPI PUSH1 0x0 DUP1 REVERT JUMPDEST DUP2 CALLDATALOAD DUP2 DUP2 GT ISZERO PUSH2 0x1154 JUMPI PUSH2 0x1154 PUSH2 0x10DD JUMP JUMPDEST PUSH1 0x40 MLOAD PUSH1 0x1F DUP3 ADD PUSH1 0x1F NOT SWAP1 DUP2 AND PUSH1 0x3F ADD AND DUP2 ADD SWAP1 DUP4 DUP3 GT DUP2 DUP4 LT OR ISZERO PUSH2 0x117C JUMPI PUSH2 0x117C PUSH2 0x10DD JUMP JUMPDEST DUP2 PUSH1 0x40 MSTORE DUP3 DUP2 MSTORE DUP9 PUSH1 0x20 DUP5 DUP8 ADD ADD GT ISZERO PUSH2 0x1195 JUMPI PUSH1 0x0 DUP1 REVERT JUMPDEST DUP3 PUSH1 0x20 DUP7 ADD PUSH1 0x20 DUP4 ADD CALLDATACOPY PUSH1 0x0 PUSH1 0x20 DUP5 DUP4 ADD ADD MSTORE DUP1 SWAP7 POP POP POP POP POP POP PUSH2 0x11BC PUSH1 0x20 DUP5 ADD PUSH2 0x10F3 JUMP JUMPDEST SWAP1 POP SWAP3 POP SWAP3 SWAP1 POP JUMP JUMPDEST PUSH4 0x4E487B71 PUSH1 0xE0 SHL PUSH1 0x0 MSTORE PUSH1 0x11 PUSH1 0x4 MSTORE PUSH1 0x24 PUSH1 0x0 REVERT JUMPDEST DUP1 DUP3 MUL DUP2 ISZERO DUP3 DUP3 DIV DUP5 EQ OR PUSH2 0x11F2 JUMPI PUSH2 0x11F2 PUSH2 0x11C5 JUMP JUMPDEST SWAP3 SWAP2 POP POP JUMP JUMPDEST PUSH4 0x4E487B71 PUSH1 0xE0 SHL PUSH1 0x0 MSTORE PUSH1 0x12 PUSH1 0x4 MSTORE PUSH1 0x24 PUSH1 0x0 REVERT JUMPDEST PUSH1 0x0 DUP3 PUSH2 0x121D JUMPI PUSH2 0x121D PUSH2 0x11F8 JUMP JUMPDEST POP DIV SWAP1 JUMP JUMPDEST PUSH4 0x4E487B71 PUSH1 0xE0 SHL PUSH1 0x0 MSTORE PUSH1 0x32 PUSH1 0x4 MSTORE PUSH1 0x24 PUSH1 0x0 REVERT JUMPDEST PUSH1 0x0 PUSH1 0x1 DUP3 ADD PUSH2 0x124A JUMPI PUSH2 0x124A PUSH2 0x11C5 JUMP JUMPDEST POP PUSH1 0x1 ADD SWAP1 JUMP JUMPDEST DUP1 DUP3 ADD DUP1 DUP3 GT ISZERO PUSH2 0x11F2 JUMPI PUSH2 0x11F2 PUSH2 0x11C5 JUMP JUMPDEST DUP2 DUP2 SUB DUP2 DUP2 GT ISZERO PUSH2 0x11F2 JUMPI PUSH2 0x11F2 PUSH2 0x11C5 JUMP JUMPDEST PUSH1 0x0 DUP3 PUSH2 0x1286 JUMPI PUSH2 0x1286 PUSH2 0x11F8 JUMP JUMPDEST POP MOD SWAP1 JUMP JUMPDEST PUSH1 0x1 DUP2 DUP2 SHR SWAP1 DUP3 AND DUP1 PUSH2 0x129F JUMPI PUSH1 0x7F DUP3 AND SWAP2 POP JUMPDEST PUSH1 0x20 DUP3 LT DUP2 SUB PUSH2 0xAC7 JUMPI PUSH4 0x4E487B71 PUSH1 0xE0 SHL PUSH1 0x0 MSTORE PUSH1 0x22 PUSH1 0x4 MSTORE PUSH1 0x24 PUSH1 0x0 REVERT JUMPDEST PUSH1 0x1F DUP3 GT ISZERO PUSH2 0xA22 JUMPI PUSH1 0x0 DUP2 DUP2 MSTORE PUSH1 0x20 DUP2 KECCAK256 PUSH1 0x1F DUP6 ADD PUSH1 0x5 SHR DUP2 ADD PUSH1 0x20 DUP7 LT ISZERO PUSH2 0x12E6 JUMPI POP DUP1 JUMPDEST PUSH1 0x1F DUP6 ADD PUSH1 0x5 SHR DUP3 ADD SWAP2 POP JUMPDEST DUP2 DUP2 LT ISZERO PUSH2 0x9F4 JUMPI DUP3 DUP2 SSTORE PUSH1 0x1 ADD PUSH2 0x12F2 JUMP JUMPDEST DUP2 MLOAD PUSH8 0xFFFFFFFFFFFFFFFF DUP2 GT ISZERO PUSH2 0x131F JUMPI PUSH2 0x131F PUSH2 0x10DD JUMP JUMPDEST PUSH2 0x1333 DUP2 PUSH2 0x132D DUP5 SLOAD PUSH2 0x128B JUMP JUMPDEST DUP5 PUSH2 0x12BF JUMP JUMPDEST PUSH1 0x20 DUP1 PUSH1 0x1F DUP4 GT PUSH1 0x1 DUP2 EQ PUSH2 0x1368 JUMPI PUSH1 0x0 DUP5 ISZERO PUSH2 0x1350 JUMPI POP DUP6 DUP4 ADD MLOAD JUMPDEST PUSH1 0x0 NOT PUSH1 0x3 DUP7 SWAP1 SHL SHR NOT AND PUSH1 0x1 DUP6 SWAP1 SHL OR DUP6 SSTORE PUSH2 0x9F4 JUMP JUMPDEST PUSH1 0x0 DUP6 DUP2 MSTORE PUSH1 0x20 DUP2 KECCAK256 PUSH1 0x1F NOT DUP7 AND SWAP2 JUMPDEST DUP3 DUP2 LT ISZERO PUSH2 0x1397 JUMPI DUP9 DUP7 ADD MLOAD DUP3 SSTORE SWAP5 DUP5 ADD SWAP5 PUSH1 0x1 SWAP1 SWAP2 ADD SWAP1 DUP5 ADD PUSH2 0x1378 JUMP JUMPDEST POP DUP6 DUP3 LT ISZERO PUSH2 0x13B5 JUMPI DUP8 DUP6 ADD MLOAD PUSH1 0x0 NOT PUSH1 0x3 DUP9 SWAP1 SHL PUSH1 0xF8 AND SHR NOT AND DUP2 SSTORE JUMPDEST POP POP POP POP POP PUSH1 0x1 SWAP1 DUP2 SHL ADD SWAP1 SSTORE POP JUMP JUMPDEST PUSH1 0x40 DUP2 MSTORE PUSH1 0x0 PUSH2 0xF07 PUSH1 0x40 DUP4 ADD DUP6 PUSH2 0x1061 JUMP JUMPDEST PUSH1 0x20 DUP2 MSTORE PUSH1 0x0 PUSH2 0xF4D PUSH1 0x20 DUP4 ADD DUP5 PUSH2 0x1061 JUMP INVALID LOG2 PUSH5 0x6970667358 0x22 SLT KECCAK256 0x5D 0xEC DUP7 0xB2 DUP2 ADDRESS STOP 0xAC MSIZE 0xB9 SUB ORIGIN ADDRESS SMOD 0xD0 PUSH12 0xB34EA3DD33D850C4A045BD9F CREATE2 RETURNDATACOPY SHL 0x49 PUSH5 0x736F6C6343 STOP ADDMOD SLT STOP CALLER "
		},
		"gasEstimates": {
			"creation": {
				"codeDepositCost": "1030600",
				"executionCost": "infinite",
				"totalCost": "infinite"
			},
			"external": {
				"BETCAP()": "infinite",
				"HORSES()": "infinite",
				"Loot(address)": "2609",
				"allocationUtil(uint256,uint256)": "infinite",
				"currentRace()": "infinite",
				"getRaceWinners()": "292",
				"getWinnerList(uint256)": "infinite",
				"horseBettor(uint256,uint256)": "4793",
				"leftAmountForBets(uint256)": "infinite",
				"listAllUsers()": "infinite",
				"pickWinner()": "infinite",
				"raceExec()": "infinite",
				"random(uint256)": "infinite",
				"registerUser(address,uint256,uint256,uint256)": "infinite",
				"reset(string,bool)": "infinite",
				"totalAmount()": "2363",
				"totalUsers(uint256)": "4703",
				"userBet(address)": "4803"
			}
		},
		"methodIdentifiers": {
			"BETCAP()": "c4832364",
			"HORSES()": "5a8bd215",
			"Loot(address)": "1d637f42",
			"allocationUtil(uint256,uint256)": "71d58cce",
			"currentRace()": "c4fc3b2e",
			"getRaceWinners()": "85d3db11",
			"getWinnerList(uint256)": "0b0705c8",
			"horseBettor(uint256,uint256)": "debd24bd",
			"leftAmountForBets(uint256)": "4d7260b5",
			"listAllUsers()": "0d7087e9",
			"pickWinner()": "5d495aea",
			"raceExec()": "83c26072",
			"random(uint256)": "b863bd37",
			"registerUser(address,uint256,uint256,uint256)": "81077173",
			"reset(string,bool)": "f3de9cfa",
			"totalAmount()": "1a39d8ef",
			"totalUsers(uint256)": "a4f67b8b",
			"userBet(address)": "67ad4ec2"
		}
	},
	"abi": [
		{
			"inputs": [],
			"stateMutability": "nonpayable",
			"type": "constructor"
		},
		{
			"inputs": [],
			"name": "BETCAP",
			"outputs": [
				{
					"internalType": "uint256",
					"name": "",
					"type": "uint256"
				}
			],
			"stateMutability": "view",
			"type": "function"
		},
		{
			"inputs": [],
			"name": "HORSES",
			"outputs": [
				{
					"internalType": "uint256",
					"name": "",
					"type": "uint256"
				}
			],
			"stateMutability": "view",
			"type": "function"
		},
		{
			"inputs": [
				{
					"internalType": "address",
					"name": "",
					"type": "address"
				}
			],
			"name": "Loot",
			"outputs": [
				{
					"internalType": "uint256",
					"name": "",
					"type": "uint256"
				}
			],
			"stateMutability": "view",
			"type": "function"
		},
		{
			"inputs": [
				{
					"internalType": "uint256",
					"name": "horse",
					"type": "uint256"
				},
				{
					"internalType": "uint256",
					"name": "position",
					"type": "uint256"
				}
			],
			"name": "allocationUtil",
			"outputs": [],
			"stateMutability": "nonpayable",
			"type": "function"
		},
		{
			"inputs": [],
			"name": "currentRace",
			"outputs": [
				{
					"internalType": "string",
					"name": "name",
					"type": "string"
				},
				{
					"internalType": "enum Storage.RACE_TYPE",
					"name": "raceType",
					"type": "uint8"
				},
				{
					"internalType": "uint256",
					"name": "startTime",
					"type": "uint256"
				}
			],
			"stateMutability": "view",
			"type": "function"
		},
		{
			"inputs": [],
			"name": "getRaceWinners",
			"outputs": [
				{
					"internalType": "uint256",
					"name": "",
					"type": "uint256"
				},
				{
					"internalType": "uint256",
					"name": "",
					"type": "uint256"
				},
				{
					"internalType": "uint256",
					"name": "",
					"type": "uint256"
				}
			],
			"stateMutability": "pure",
			"type": "function"
		},
		{
			"inputs": [
				{
					"internalType": "uint256",
					"name": "_prizeFactor",
					"type": "uint256"
				}
			],
			"name": "getWinnerList",
			"outputs": [
				{
					"internalType": "address[]",
					"name": "",
					"type": "address[]"
				},
				{
					"internalType": "uint256",
					"name": "",
					"type": "uint256"
				}
			],
			"stateMutability": "view",
			"type": "function"
		},
		{
			"inputs": [
				{
					"internalType": "uint256",
					"name": "",
					"type": "uint256"
				},
				{
					"internalType": "uint256",
					"name": "",
					"type": "uint256"
				}
			],
			"name": "horseBettor",
			"outputs": [
				{
					"internalType": "address",
					"name": "",
					"type": "address"
				}
			],
			"stateMutability": "view",
			"type": "function"
		},
		{
			"inputs": [
				{
					"internalType": "uint256",
					"name": "_betAmount",
					"type": "uint256"
				}
			],
			"name": "leftAmountForBets",
			"outputs": [
				{
					"internalType": "bool",
					"name": "",
					"type": "bool"
				}
			],
			"stateMutability": "view",
			"type": "function"
		},
		{
			"inputs": [],
			"name": "listAllUsers",
			"outputs": [],
			"stateMutability": "view",
			"type": "function"
		},
		{
			"inputs": [],
			"name": "pickWinner",
			"outputs": [
				{
					"internalType": "address[]",
					"name": "",
					"type": "address[]"
				},
				{
					"internalType": "address[]",
					"name": "",
					"type": "address[]"
				},
				{
					"internalType": "address[]",
					"name": "",
					"type": "address[]"
				},
				{
					"internalType": "uint256[]",
					"name": "",
					"type": "uint256[]"
				}
			],
			"stateMutability": "view",
			"type": "function"
		},
		{
			"inputs": [],
			"name": "raceExec",
			"outputs": [],
			"stateMutability": "nonpayable",
			"type": "function"
		},
		{
			"inputs": [
				{
					"internalType": "uint256",
					"name": "randNonce",
					"type": "uint256"
				}
			],
			"name": "random",
			"outputs": [
				{
					"internalType": "uint256",
					"name": "",
					"type": "uint256"
				}
			],
			"stateMutability": "view",
			"type": "function"
		},
		{
			"inputs": [
				{
					"internalType": "address",
					"name": "_user",
					"type": "address"
				},
				{
					"internalType": "uint256",
					"name": "_betAmount",
					"type": "uint256"
				},
				{
					"internalType": "uint256",
					"name": "_horse",
					"type": "uint256"
				},
				{
					"internalType": "uint256",
					"name": "_typeOfBet",
					"type": "uint256"
				}
			],
			"name": "registerUser",
			"outputs": [],
			"stateMutability": "nonpayable",
			"type": "function"
		},
		{
			"inputs": [
				{
					"internalType": "string",
					"name": "raceName",
					"type": "string"
				},
				{
					"internalType": "bool",
					"name": "isEuropean",
					"type": "bool"
				}
			],
			"name": "reset",
			"outputs": [],
			"stateMutability": "nonpayable",
			"type": "function"
		},
		{
			"inputs": [],
			"name": "totalAmount",
			"outputs": [
				{
					"internalType": "uint256",
					"name": "",
					"type": "uint256"
				}
			],
			"stateMutability": "view",
			"type": "function"
		},
		{
			"inputs": [
				{
					"internalType": "uint256",
					"name": "",
					"type": "uint256"
				}
			],
			"name": "totalUsers",
			"outputs": [
				{
					"internalType": "address",
					"name": "",
					"type": "address"
				}
			],
			"stateMutability": "view",
			"type": "function"
		},
		{
			"inputs": [
				{
					"internalType": "address",
					"name": "",
					"type": "address"
				}
			],
			"name": "userBet",
			"outputs": [
				{
					"internalType": "enum Storage.BET_TYPE",
					"name": "betType",
					"type": "uint8"
				},
				{
					"internalType": "uint256",
					"name": "amount",
					"type": "uint256"
				}
			],
			"stateMutability": "view",
			"type": "function"
		}
	]
}